{
  "_format": "hh-sol-artifact-1",
  "contractName": "WESaleFactory",
  "sourceName": "contracts/WESaleFactory.sol",
  "abi": [
    {
      "inputs": [
        {
          "internalType": "address",
          "name": "_feeTo",
          "type": "address"
        },
        {
          "internalType": "address",
          "name": "_transferSigner",
          "type": "address"
        }
      ],
      "stateMutability": "nonpayable",
      "type": "constructor"
    },
    {
      "inputs": [],
      "name": "IllegalOperation",
      "type": "error"
    },
    {
      "inputs": [],
      "name": "InsufficientAllowedPresaleAmount",
      "type": "error"
    },
    {
      "inputs": [],
      "name": "InsufficientPresaleBalance",
      "type": "error"
    },
    {
      "inputs": [
        {
          "internalType": "string",
          "name": "_origin",
          "type": "string"
        },
        {
          "internalType": "uint256",
          "name": "_num",
          "type": "uint256"
        }
      ],
      "name": "InvalidNumber",
      "type": "error"
    },
    {
      "inputs": [
        {
          "internalType": "string",
          "name": "_origin",
          "type": "string"
        }
      ],
      "name": "InvalidToken",
      "type": "error"
    },
    {
      "inputs": [],
      "name": "UnsupportedDexRouter",
      "type": "error"
    },
    {
      "anonymous": false,
      "inputs": [
        {
          "indexed": true,
          "internalType": "address",
          "name": "previousOwner",
          "type": "address"
        },
        {
          "indexed": true,
          "internalType": "address",
          "name": "newOwner",
          "type": "address"
        }
      ],
      "name": "OwnershipTransferred",
      "type": "event"
    },
    {
      "anonymous": false,
      "inputs": [
        {
          "indexed": true,
          "internalType": "bytes32",
          "name": "role",
          "type": "bytes32"
        },
        {
          "indexed": true,
          "internalType": "bytes32",
          "name": "previousAdminRole",
          "type": "bytes32"
        },
        {
          "indexed": true,
          "internalType": "bytes32",
          "name": "newAdminRole",
          "type": "bytes32"
        }
      ],
      "name": "RoleAdminChanged",
      "type": "event"
    },
    {
      "anonymous": false,
      "inputs": [
        {
          "indexed": true,
          "internalType": "bytes32",
          "name": "role",
          "type": "bytes32"
        },
        {
          "indexed": true,
          "internalType": "address",
          "name": "account",
          "type": "address"
        },
        {
          "indexed": true,
          "internalType": "address",
          "name": "sender",
          "type": "address"
        }
      ],
      "name": "RoleGranted",
      "type": "event"
    },
    {
      "anonymous": false,
      "inputs": [
        {
          "indexed": true,
          "internalType": "bytes32",
          "name": "role",
          "type": "bytes32"
        },
        {
          "indexed": true,
          "internalType": "address",
          "name": "account",
          "type": "address"
        },
        {
          "indexed": true,
          "internalType": "address",
          "name": "sender",
          "type": "address"
        }
      ],
      "name": "RoleRevoked",
      "type": "event"
    },
    {
      "anonymous": false,
      "inputs": [
        {
          "indexed": false,
          "internalType": "address",
          "name": "_creator",
          "type": "address"
        },
        {
          "indexed": false,
          "internalType": "address",
          "name": "_wesale",
          "type": "address"
        },
        {
          "indexed": false,
          "internalType": "address",
          "name": "_presaleToken",
          "type": "address"
        },
        {
          "indexed": false,
          "internalType": "address",
          "name": "_investToken",
          "type": "address"
        },
        {
          "indexed": false,
          "internalType": "address",
          "name": "_teamWallet",
          "type": "address"
        },
        {
          "indexed": false,
          "internalType": "uint256",
          "name": "_amount",
          "type": "uint256"
        },
        {
          "components": [
            {
              "internalType": "uint256",
              "name": "price",
              "type": "uint256"
            },
            {
              "internalType": "uint24",
              "name": "liquidityRate",
              "type": "uint24"
            },
            {
              "internalType": "uint256",
              "name": "minInvest",
              "type": "uint256"
            },
            {
              "internalType": "uint256",
              "name": "maxInvest",
              "type": "uint256"
            },
            {
              "internalType": "uint256",
              "name": "softCap",
              "type": "uint256"
            },
            {
              "internalType": "uint256",
              "name": "hardCap",
              "type": "uint256"
            },
            {
              "internalType": "address",
              "name": "router",
              "type": "address"
            },
            {
              "internalType": "uint256",
              "name": "dexInitPrice",
              "type": "uint256"
            },
            {
              "internalType": "uint256",
              "name": "startedAt",
              "type": "uint256"
            },
            {
              "internalType": "uint256",
              "name": "endedAt",
              "type": "uint256"
            },
            {
              "internalType": "uint24",
              "name": "firstRelease",
              "type": "uint24"
            },
            {
              "internalType": "uint24",
              "name": "cycle",
              "type": "uint24"
            },
            {
              "internalType": "uint24",
              "name": "cycleRelease",
              "type": "uint24"
            },
            {
              "internalType": "uint24",
              "name": "investTokenDecimals",
              "type": "uint24"
            }
          ],
          "indexed": false,
          "internalType": "struct Parameters",
          "name": "parameters",
          "type": "tuple"
        }
      ],
      "name": "WESaleCreated",
      "type": "event"
    },
    {
      "inputs": [],
      "name": "DEFAULT_ADMIN_ROLE",
      "outputs": [
        {
          "internalType": "bytes32",
          "name": "",
          "type": "bytes32"
        }
      ],
      "stateMutability": "view",
      "type": "function"
    },
    {
      "inputs": [
        {
          "internalType": "address",
          "name": "_teamWallet",
          "type": "address"
        },
        {
          "internalType": "address",
          "name": "_presaleToken",
          "type": "address"
        },
        {
          "internalType": "address",
          "name": "_investToken",
          "type": "address"
        },
        {
          "components": [
            {
              "internalType": "uint256",
              "name": "price",
              "type": "uint256"
            },
            {
              "internalType": "uint24",
              "name": "liquidityRate",
              "type": "uint24"
            },
            {
              "internalType": "uint256",
              "name": "minInvest",
              "type": "uint256"
            },
            {
              "internalType": "uint256",
              "name": "maxInvest",
              "type": "uint256"
            },
            {
              "internalType": "uint256",
              "name": "softCap",
              "type": "uint256"
            },
            {
              "internalType": "uint256",
              "name": "hardCap",
              "type": "uint256"
            },
            {
              "internalType": "address",
              "name": "router",
              "type": "address"
            },
            {
              "internalType": "uint256",
              "name": "dexInitPrice",
              "type": "uint256"
            },
            {
              "internalType": "uint256",
              "name": "startedAt",
              "type": "uint256"
            },
            {
              "internalType": "uint256",
              "name": "endedAt",
              "type": "uint256"
            },
            {
              "internalType": "uint24",
              "name": "firstRelease",
              "type": "uint24"
            },
            {
              "internalType": "uint24",
              "name": "cycle",
              "type": "uint24"
            },
            {
              "internalType": "uint24",
              "name": "cycleRelease",
              "type": "uint24"
            },
            {
              "internalType": "uint24",
              "name": "investTokenDecimals",
              "type": "uint24"
            }
          ],
          "internalType": "struct Parameters",
          "name": "_parameters",
          "type": "tuple"
        }
      ],
      "name": "createSale",
      "outputs": [
        {
          "internalType": "address",
          "name": "wesale",
          "type": "address"
        }
      ],
      "stateMutability": "payable",
      "type": "function"
    },
    {
      "inputs": [],
      "name": "feeTo",
      "outputs": [
        {
          "internalType": "address",
          "name": "",
          "type": "address"
        }
      ],
      "stateMutability": "view",
      "type": "function"
    },
    {
      "inputs": [
        {
          "internalType": "bytes32",
          "name": "role",
          "type": "bytes32"
        }
      ],
      "name": "getRoleAdmin",
      "outputs": [
        {
          "internalType": "bytes32",
          "name": "",
          "type": "bytes32"
        }
      ],
      "stateMutability": "view",
      "type": "function"
    },
    {
      "inputs": [
        {
          "internalType": "bytes32",
          "name": "role",
          "type": "bytes32"
        },
        {
          "internalType": "address",
          "name": "account",
          "type": "address"
        }
      ],
      "name": "grantRole",
      "outputs": [],
      "stateMutability": "nonpayable",
      "type": "function"
    },
    {
      "inputs": [
        {
          "internalType": "bytes32",
          "name": "role",
          "type": "bytes32"
        },
        {
          "internalType": "address",
          "name": "account",
          "type": "address"
        }
      ],
      "name": "hasRole",
      "outputs": [
        {
          "internalType": "bool",
          "name": "",
          "type": "bool"
        }
      ],
      "stateMutability": "view",
      "type": "function"
    },
    {
      "inputs": [],
      "name": "owner",
      "outputs": [
        {
          "internalType": "address",
          "name": "",
          "type": "address"
        }
      ],
      "stateMutability": "view",
      "type": "function"
    },
    {
      "inputs": [],
      "name": "renounceOwnership",
      "outputs": [],
      "stateMutability": "nonpayable",
      "type": "function"
    },
    {
      "inputs": [
        {
          "internalType": "bytes32",
          "name": "role",
          "type": "bytes32"
        },
        {
          "internalType": "address",
          "name": "account",
          "type": "address"
        }
      ],
      "name": "renounceRole",
      "outputs": [],
      "stateMutability": "nonpayable",
      "type": "function"
    },
    {
      "inputs": [
        {
          "internalType": "bytes32",
          "name": "role",
          "type": "bytes32"
        },
        {
          "internalType": "address",
          "name": "account",
          "type": "address"
        }
      ],
      "name": "revokeRole",
      "outputs": [],
      "stateMutability": "nonpayable",
      "type": "function"
    },
    {
      "inputs": [
        {
          "internalType": "address",
          "name": "_feeTo",
          "type": "address"
        }
      ],
      "name": "setFeeTo",
      "outputs": [],
      "stateMutability": "nonpayable",
      "type": "function"
    },
    {
      "inputs": [
        {
          "internalType": "address",
          "name": "_transferSigner",
          "type": "address"
        }
      ],
      "name": "setTransferSigner",
      "outputs": [],
      "stateMutability": "nonpayable",
      "type": "function"
    },
    {
      "inputs": [
        {
          "internalType": "string",
          "name": "_version",
          "type": "string"
        }
      ],
      "name": "setVersion",
      "outputs": [],
      "stateMutability": "nonpayable",
      "type": "function"
    },
    {
      "inputs": [
        {
          "internalType": "bytes4",
          "name": "interfaceId",
          "type": "bytes4"
        }
      ],
      "name": "supportsInterface",
      "outputs": [
        {
          "internalType": "bool",
          "name": "",
          "type": "bool"
        }
      ],
      "stateMutability": "view",
      "type": "function"
    },
    {
      "inputs": [
        {
          "internalType": "address",
          "name": "newOwner",
          "type": "address"
        }
      ],
      "name": "transferOwnership",
      "outputs": [],
      "stateMutability": "nonpayable",
      "type": "function"
    },
    {
      "inputs": [],
      "name": "transferSigner",
      "outputs": [
        {
          "internalType": "address",
          "name": "",
          "type": "address"
        }
      ],
      "stateMutability": "view",
      "type": "function"
    }
  ],
  "bytecode": "0x60c06040526006608090815265574553616c6560d01b60a05260049062000027908262000332565b506040805180820190915260038152620312e360ec1b602082015260059062000051908262000332565b503480156200005f57600080fd5b506040516200510e3803806200510e83398101604081905262000082916200041b565b6200008d3362000167565b600280546001600160a01b038085166001600160a01b0319928316179092556003805492841692909116919091179055620000df600080516020620050ee833981519152620000d93390565b620001b7565b620000fa600080516020620050ee8339815191528062000240565b62000124600080516020620050ce833981519152600080516020620050ee83398151915262000240565b6200015f7f457e247f120c4ea58b8a1485f14140c4ec67416bdecdd6e021d43b5f4f1b27e0600080516020620050ce83398151915262000240565b505062000453565b600080546001600160a01b038381166001600160a01b0319831681178455604051919092169283917f8be0079c531659141344cd1fd0a4f28419497f9722a3daafe3b4186f6b6457e09190a35050565b60008281526001602090815260408083206001600160a01b038516845290915290205460ff166200023c5760008281526001602081815260408084206001600160a01b0386168086529252808420805460ff19169093179092559051339285917f2f8788117e7eff1d82e926ec794901d17c78024a50270940304540a733656f0d9190a45b5050565b6000828152600160208190526040808320909101805490849055905190918391839186917fbd79b86ffe0ab8e8776151514217cd7cacd52c909f66475c3af44e129f0b00ff9190a4505050565b634e487b7160e01b600052604160045260246000fd5b600181811c90821680620002b857607f821691505b602082108103620002d957634e487b7160e01b600052602260045260246000fd5b50919050565b601f8211156200032d57600081815260208120601f850160051c81016020861015620003085750805b601f850160051c820191505b81811015620003295782815560010162000314565b5050505b505050565b81516001600160401b038111156200034e576200034e6200028d565b62000366816200035f8454620002a3565b84620002df565b602080601f8311600181146200039e5760008415620003855750858301515b600019600386901b1c1916600185901b17855562000329565b600085815260208120601f198616915b82811015620003cf57888601518255948401946001909101908401620003ae565b5085821015620003ee5787850151600019600388901b60f8161c191681555b5050505050600190811b01905550565b80516001600160a01b03811681146200041657600080fd5b919050565b600080604083850312156200042f57600080fd5b6200043a83620003fe565b91506200044a60208401620003fe565b90509250929050565b614c6b80620004636000396000f3fe608060405260043610620001075760003560e01c806391d148541162000095578063d07c77e31162000060578063d07c77e314620002f1578063d547741f1462000308578063f2fde38b146200032d578063f46901ed146200035257600080fd5b806391d14854146200026e578063a217fddf1462000293578063a5f5775114620002aa578063b1d00df014620002cf57600080fd5b806336568abe11620000d657806336568abe14620001ec578063715018a61462000211578063788bc78c14620002295780638da5cb5b146200024e57600080fd5b8063017e7e58146200010c57806301ffc9a7146200014b578063248a9ca314620001815780632f2ff15d14620001c5575b600080fd5b3480156200011957600080fd5b506002546200012e906001600160a01b031681565b6040516001600160a01b0390911681526020015b60405180910390f35b3480156200015857600080fd5b50620001706200016a36600462000f36565b62000377565b604051901515815260200162000142565b3480156200018e57600080fd5b50620001b6620001a036600462000f62565b6000908152600160208190526040909120015490565b60405190815260200162000142565b348015620001d257600080fd5b50620001ea620001e436600462000f99565b620003af565b005b348015620001f957600080fd5b50620001ea6200020b36600462000f99565b620003de565b3480156200021e57600080fd5b50620001ea62000464565b3480156200023657600080fd5b50620001ea620002483660046200100b565b6200047c565b3480156200025b57600080fd5b506000546001600160a01b03166200012e565b3480156200027b57600080fd5b50620001706200028d36600462000f99565b62000494565b348015620002a057600080fd5b50620001b6600081565b348015620002b757600080fd5b50620001ea620002c9366004620010c6565b620004bf565b348015620002dc57600080fd5b506003546200012e906001600160a01b031681565b6200012e62000302366004620010f8565b6200050e565b3480156200031557600080fd5b50620001ea6200032736600462000f99565b620009d6565b3480156200033a57600080fd5b50620001ea6200034c366004620010c6565b62000a00565b3480156200035f57600080fd5b50620001ea62000371366004620010c6565b62000a7f565b60006001600160e01b03198216637965db0b60e01b1480620003a957506301ffc9a760e01b6001600160e01b03198316145b92915050565b60008281526001602081905260409091200154620003cd8162000ace565b620003d9838362000ada565b505050565b6001600160a01b0381163314620004545760405162461bcd60e51b815260206004820152602f60248201527f416363657373436f6e74726f6c3a2063616e206f6e6c792072656e6f756e636560448201526e103937b632b9903337b91039b2b63360891b60648201526084015b60405180910390fd5b62000460828262000b48565b5050565b6200046e62000bb0565b6200047a600062000c0c565b565b6200048662000bb0565b6005620004608282620012c7565b60009182526001602090815260408084206001600160a01b0393909316845291905290205460ff1690565b7fa49807205ce4d355092ef5a8a18f56e8913cf4a201fbe287825b095693c21775620004eb8162000ace565b50600380546001600160a01b0319166001600160a01b0392909216919091179055565b60006001600160a01b0384166200054e576040516367e8093f60e11b81526020600482015260026024820152615a4160f01b60448201526064016200044b565b81516200058f57815160408051632c4a292d60e21b8152600481019190915260016044820152600560fc1b606482015260248101919091526084016200044b565b60008260a0015111620005da5760a082015160408051632c4a292d60e21b815260048101919091526002604482015261484360f01b606482015260248101919091526084016200044b565b6200060a7f457e247f120c4ea58b8a1485f14140c4ec67416bdecdd6e021d43b5f4f1b27e08360c0015162000494565b6200062857604051639159d4ff60e01b815260040160405180910390fd5b836001600160a01b038416620006465760126101a0840152620006bb565b6000849050806001600160a01b031663313ce5676040518163ffffffff1660e01b8152600401602060405180830381865afa1580156200068a573d6000803e3d6000fd5b505050506040513d601f19601f82011682018060405250810190620006b0919062001394565b60ff166101a0850152505b6000620006ee846101a00151600a620006d59190620014cc565b855160a0870151620006e79162000c5c565b9062000c71565b90506200074e8162000747866101a00151600a6200070d9190620014cc565b620006e7620f4240620006e78a6020015162ffffff16620007408c60e001518d60a0015162000c5c90919063ffffffff16565b9062000c5c565b9062000c7f565b9050806001600160a01b03831663dd62ed3e336040516001600160e01b031960e084901b1681526001600160a01b039091166004820152306024820152604401602060405180830381865afa158015620007ac573d6000803e3d6000fd5b505050506040513d601f19601f82011682018060405250810190620007d29190620014df565b1015620007f157604051627edb6760e61b815260040160405180910390fd5b6004600533898989868a604051620008099062000f28565b6200081c9897969594939291906200163a565b604051809103906000f08015801562000839573d6000803e3d6000fd5b5092506001600160a01b0382166323b872dd336040516001600160e01b031960e084901b1681526001600160a01b039091166004820152306024820152604481018490526064016020604051808303816000875af1158015620008a0573d6000803e3d6000fd5b505050506040513d601f19601f82011682018060405250810190620008c69190620016b4565b620008e457604051637c47db0960e11b815260040160405180910390fd5b60405163a9059cbb60e01b81526001600160a01b0384811660048301526024820183905283169063a9059cbb906044016020604051808303816000875af115801562000934573d6000803e3d6000fd5b505050506040513d601f19601f820116820180604052508101906200095a9190620016b4565b50620009877f0907ab3e712eb316d58c01879e4d3a992cc259486b511cec448788f83098fcd68462000ada565b7f6da76bb3ef1660a81013f42372d2bc1027f79194fcd5adda5745bb237bcf36b7338488888b868a604051620009c49796959493929190620016d8565b60405180910390a15050949350505050565b60008281526001602081905260409091200154620009f48162000ace565b620003d9838362000b48565b62000a0a62000bb0565b6001600160a01b03811662000a715760405162461bcd60e51b815260206004820152602660248201527f4f776e61626c653a206e6577206f776e657220697320746865207a65726f206160448201526564647265737360d01b60648201526084016200044b565b62000a7c8162000c0c565b50565b7fa49807205ce4d355092ef5a8a18f56e8913cf4a201fbe287825b095693c2177562000aab8162000ace565b50600280546001600160a01b0319166001600160a01b0392909216919091179055565b62000a7c813362000c8d565b62000ae6828262000494565b620004605760008281526001602081815260408084206001600160a01b0386168086529252808420805460ff19169093179092559051339285917f2f8788117e7eff1d82e926ec794901d17c78024a50270940304540a733656f0d9190a45050565b7fa49807205ce4d355092ef5a8a18f56e8913cf4a201fbe287825b095693c217758214801562000b8557506000546001600160a01b038281169116145b1562000ba457604051631d5d2c9960e01b815260040160405180910390fd5b62000460828262000cf1565b6000546001600160a01b031633146200047a5760405162461bcd60e51b815260206004820181905260248201527f4f776e61626c653a2063616c6c6572206973206e6f7420746865206f776e657260448201526064016200044b565b600080546001600160a01b038381166001600160a01b0319831681178455604051919092169283917f8be0079c531659141344cd1fd0a4f28419497f9722a3daafe3b4186f6b6457e09190a35050565b600062000c6a82846200172b565b9392505050565b600062000c6a828462001745565b600062000c6a828462001768565b62000c99828262000494565b620004605762000ca98162000d5b565b62000cb683602062000d6e565b60405160200162000cc9929190620017a4565b60408051601f198184030181529082905262461bcd60e51b82526200044b916004016200181d565b62000cfd828262000494565b15620004605760008281526001602090815260408083206001600160a01b0385168085529252808320805460ff1916905551339285917ff6391f5c32d9c69d2a47ea670b442974b53935d1edc7fd64eb21e047a839171b9190a45050565b6060620003a96001600160a01b03831660145b6060600062000d7f8360026200172b565b62000d8c90600262001768565b67ffffffffffffffff81111562000da75762000da762000fc8565b6040519080825280601f01601f19166020018201604052801562000dd2576020820181803683370190505b509050600360fc1b8160008151811062000df05762000df062001852565b60200101906001600160f81b031916908160001a905350600f60fb1b8160018151811062000e225762000e2262001852565b60200101906001600160f81b031916908160001a905350600062000e488460026200172b565b62000e5590600162001768565b90505b600181111562000ed7576f181899199a1a9b1b9c1cb0b131b232b360811b85600f166010811062000e8d5762000e8d62001852565b1a60f81b82828151811062000ea65762000ea662001852565b60200101906001600160f81b031916908160001a90535060049490941c9362000ecf8162001868565b905062000e58565b50831562000c6a5760405162461bcd60e51b815260206004820181905260248201527f537472696e67733a20686578206c656e67746820696e73756666696369656e7460448201526064016200044b565b6133b3806200188383390190565b60006020828403121562000f4957600080fd5b81356001600160e01b03198116811462000c6a57600080fd5b60006020828403121562000f7557600080fd5b5035919050565b80356001600160a01b038116811462000f9457600080fd5b919050565b6000806040838503121562000fad57600080fd5b8235915062000fbf6020840162000f7c565b90509250929050565b634e487b7160e01b600052604160045260246000fd5b6040516101c0810167ffffffffffffffff8111828210171562001005576200100562000fc8565b60405290565b6000602082840312156200101e57600080fd5b813567ffffffffffffffff808211156200103757600080fd5b818401915084601f8301126200104c57600080fd5b81358181111562001061576200106162000fc8565b604051601f8201601f19908116603f011681019083821181831017156200108c576200108c62000fc8565b81604052828152876020848701011115620010a657600080fd5b826020860160208301376000928101602001929092525095945050505050565b600060208284031215620010d957600080fd5b62000c6a8262000f7c565b803562ffffff8116811462000f9457600080fd5b6000806000808486036102208112156200111157600080fd5b6200111c8662000f7c565b94506200112c6020870162000f7c565b93506200113c6040870162000f7c565b92506101c080605f19830112156200115357600080fd5b6200115d62000fde565b9150606087013582526200117460808801620010e4565b602083015260a0870135604083015260c0870135606083015260e087013560808301526101008088013560a0840152610120620011b3818a0162000f7c565b60c0850152610140808a013560e0860152610160808b0135848701526101809350838b0135838701526101a09250620011ee838c01620010e4565b82870152620011ff858c01620010e4565b9086015250620012136101e08a01620010e4565b82850152620012266102008a01620010e4565b9084015250949793965091945090925050565b600181811c908216806200124e57607f821691505b6020821081036200126f57634e487b7160e01b600052602260045260246000fd5b50919050565b601f821115620003d957600081815260208120601f850160051c810160208610156200129e5750805b601f850160051c820191505b81811015620012bf57828155600101620012aa565b505050505050565b815167ffffffffffffffff811115620012e457620012e462000fc8565b620012fc81620012f5845462001239565b8462001275565b602080601f8311600181146200133457600084156200131b5750858301515b600019600386901b1c1916600185901b178555620012bf565b600085815260208120601f198616915b82811015620013655788860151825594840194600190910190840162001344565b5085821015620013845787850151600019600388901b60f8161c191681555b5050505050600190811b01905550565b600060208284031215620013a757600080fd5b815160ff8116811462000c6a57600080fd5b634e487b7160e01b600052601160045260246000fd5b600181815b8085111562001410578160001904821115620013f457620013f4620013b9565b808516156200140257918102915b93841c9390800290620013d4565b509250929050565b6000826200142957506001620003a9565b816200143857506000620003a9565b81600181146200145157600281146200145c576200147c565b6001915050620003a9565b60ff841115620014705762001470620013b9565b50506001821b620003a9565b5060208310610133831016604e8410600b8410161715620014a1575081810a620003a9565b620014ad8383620013cf565b8060001904821115620014c457620014c4620013b9565b029392505050565b600062000c6a62ffffff84168362001418565b600060208284031215620014f257600080fd5b5051919050565b60008154620015088162001239565b808552602060018381168015620015285760018114620015435762001573565b60ff1985168884015283151560051b88018301955062001573565b866000528260002060005b858110156200156b5781548a82018601529083019084016200154e565b890184019650505b505050505092915050565b80518252602081015162001599602084018262ffffff169052565b5060408101516040830152606081015160608301526080810151608083015260a081015160a083015260c0810151620015dd60c08401826001600160a01b03169052565b5060e08181015190830152610100808201519083015261012080820151908301526101408082015162ffffff9081169184019190915261016080830151821690840152610180808301518216908401526101a09182015116910152565b60006102a0808352620016508184018c620014f9565b9050828103602084015262001666818b620014f9565b6001600160a01b038a8116604086015289811660608601528881166080860152871660a085015260c084018690529150620016a7905060e08301846200157e565b9998505050505050505050565b600060208284031215620016c757600080fd5b8151801515811462000c6a57600080fd5b6001600160a01b0388811682528781166020830152868116604083015285811660608301528416608082015260a0810183905261028081016200171f60c08301846200157e565b98975050505050505050565b8082028115828204841417620003a957620003a9620013b9565b6000826200176357634e487b7160e01b600052601260045260246000fd5b500490565b80820180821115620003a957620003a9620013b9565b60005b838110156200179b57818101518382015260200162001781565b50506000910152565b7f416363657373436f6e74726f6c3a206163636f756e7420000000000000000000815260008351620017de8160178501602088016200177e565b7001034b99036b4b9b9b4b733903937b6329607d1b6017918401918201528351620018118160288401602088016200177e565b01602801949350505050565b60208152600082518060208401526200183e8160408501602087016200177e565b601f01601f19169190910160400192915050565b634e487b7160e01b600052603260045260246000fd5b6000816200187a576200187a620013b9565b50600019019056fe6101e06040526006805460ff1916905560006014553480156200002157600080fd5b50604051620033b3380380620033b3833981016040819052620000449162000469565b8787620000513362000250565b6200006c600183620002a060201b620019e11790919060201c565b6101205262000089816002620002a0602090811b620019e117901c565b61014052815160208084019190912060e052815190820120610100524660a0526200011760e05161010051604080517f8b73c3c69bb8fe3d512ecc4cf759cc79239f7b179b0ffacaa9a75d522b39400f60208201529081019290925260608201524660808201523060a082015260009060c00160405160208183030381529060405280519060200120905090565b60805250503060c0526200012b8662000250565b336001600160a01b039081166101609081529581166101c0529384166101809081529284166101a0908152600592909255805160075560208101516008805462ffffff92831662ffffff1990911617905560408201516009556060820151600a556080820151600b5560a0820151600c5560c0820151600d8054919096166001600160a01b03199091161790945560e0810151600e55610100810151600f556101208101516010556101408101516011805496830151948301519290930151851669010000000000000000000262ffffff60481b199286166601000000000000029290921665ffffffffffff60301b1994861663010000000265ffffffffffff19909716919095161794909417919091169190911791909117905550620007d5915050565b600080546001600160a01b038381166001600160a01b0319831681178455604051919092169283917f8be0079c531659141344cd1fd0a4f28419497f9722a3daafe3b4186f6b6457e09190a35050565b6000602083511015620002c057620002b883620002f0565b9050620002ea565b82620002d7836200033c60201b62001a141760201c565b90620002e49082620006af565b5060ff90505b92915050565b600080829050601f8151111562000327578260405163305a27a960e01b81526004016200031e91906200077b565b60405180910390fd5b80516200033482620007b0565b179392505050565b90565b634e487b7160e01b600052604160045260246000fd5b6040516101c081016001600160401b03811182821017156200037b576200037b6200033f565b60405290565b60005b838110156200039e57818101518382015260200162000384565b50506000910152565b600082601f830112620003b957600080fd5b81516001600160401b0380821115620003d657620003d66200033f565b604051601f8301601f19908116603f011681019082821181831017156200040157620004016200033f565b816040528381528660208588010111156200041b57600080fd5b6200042e84602083016020890162000381565b9695505050505050565b80516001600160a01b03811681146200045057600080fd5b919050565b805162ffffff811681146200045057600080fd5b600080600080600080600080888a036102a08112156200048857600080fd5b89516001600160401b0380821115620004a057600080fd5b620004ae8d838e01620003a7565b9a5060208c0151915080821115620004c557600080fd5b50620004d48c828d01620003a7565b985050620004e560408b0162000438565b9650620004f560608b0162000438565b95506200050560808b0162000438565b94506200051560a08b0162000438565b935060c08a015192506101c060df19820112156200053257600080fd5b506200053d62000355565b60e08a01518152620005536101008b0162000455565b60208201526101208a01516040820152610140808b01516060830152610160808c01516080840152610180808d015160a08501526101a062000597818f0162000438565b60c08601526101c08e015160e08601526101e08e01516101008601526102008e0151610120860152620005ce6102208f0162000455565b84860152620005e16102408f0162000455565b83860152620005f46102608f0162000455565b82860152620006076102808f0162000455565b8186015250505050809150509295985092959890939650565b600181811c908216806200063557607f821691505b6020821081036200065657634e487b7160e01b600052602260045260246000fd5b50919050565b601f821115620006aa57600081815260208120601f850160051c81016020861015620006855750805b601f850160051c820191505b81811015620006a65782815560010162000691565b5050505b505050565b81516001600160401b03811115620006cb57620006cb6200033f565b620006e381620006dc845462000620565b846200065c565b602080601f8311600181146200071b5760008415620007025750858301515b600019600386901b1c1916600185901b178555620006a6565b600085815260208120601f198616915b828110156200074c578886015182559484019460019091019084016200072b565b50858210156200076b5787850151600019600388901b60f8161c191681555b5050505050600190811b01905550565b60208152600082518060208401526200079c81604085016020870162000381565b601f01601f19169190910160400192915050565b80516020808301519190811015620006565760001960209190910360031b1b16919050565b60805160a05160c05160e05161010051610120516101405161016051610180516101a0516101c051612afc620008b7600039600081816103ac01528181611389015281816113e10152818161195101526119a70152600081816105c901528181610a3201528181610d89015281816110910152611f700152600081816102d8015281816110b301528181611a3d0152611ccc01526000818161061201528181610f47015261187b01526000610dee01526000610dc3015260006121af01526000612187015260006120e20152600061210c015260006121360152612afc6000f3fe6080604052600436106101f85760003560e01c8063890357301161010d578063d27ee421116100a0578063ea8a1af01161006f578063ea8a1af0146106af578063eb6715b8146106c4578063eb8addc2146106e6578063f2fde38b146106fb578063fc2612c91461071b57600080fd5b8063d27ee4211461064a578063d40754401461065f578063d4974fe914610677578063e23145411461068f57600080fd5b8063badf822b116100dc578063badf822b146105b7578063c3015b52146105eb578063c45a015514610600578063c57981b51461063457600080fd5b806389035730146104615780638cb1e9c1146105635780638da5cb5b14610579578063a1b356d41461059757600080fd5b80634b14c0ef11610190578063616b40e31161015f578063616b40e3146103e35780636bd3d406146103f9578063715018a61461040f5780637c07a7101461042457806384b0196e1461043957600080fd5b80634b14c0ef146103505780634ca9899714610365578063599270441461039a5780635eaa1729146103ce57600080fd5b806316fbe6b4116101cc57806316fbe6b41461029657806324ffea1a146102c65780632afcf48014610312578063367e4caf1461032557600080fd5b806240c766146101fd5780630390c55e14610226578063046ef9a51461026a578063058aace114610281575b600080fd5b34801561020957600080fd5b50600f544210155b60405190151581526020015b60405180910390f35b34801561023257600080fd5b5061025c61024136600461248d565b6001600160a01b031660009081526012602052604090205490565b60405190815260200161021d565b34801561027657600080fd5b5061027f610730565b005b34801561028d57600080fd5b5061027f6107d1565b3480156102a257600080fd5b506102ab610852565b6040805193845260208401929092529082015260600161021d565b3480156102d257600080fd5b506102fa7f000000000000000000000000000000000000000000000000000000000000000081565b6040516001600160a01b03909116815260200161021d565b61027f6103203660046124aa565b6108cc565b34801561033157600080fd5b5061033c620186a081565b60405162ffffff909116815260200161021d565b34801561035c57600080fd5b5061025c610bf0565b34801561037157600080fd5b506103856103803660046124c3565b610cb5565b6040805192835260208301919091520161021d565b3480156103a657600080fd5b506102fa7f000000000000000000000000000000000000000000000000000000000000000081565b3480156103da57600080fd5b5061027f610d2e565b3480156103ef57600080fd5b5061025c60045481565b34801561040557600080fd5b5061025c60055481565b34801561041b57600080fd5b5061027f610d73565b34801561043057600080fd5b50610211610d87565b34801561044557600080fd5b5061044e610db5565b60405161021d979695949392919061252b565b34801561046d57600080fd5b50600754600854600954600a54600b54600c54600d54600e54600f546010546011546104d49a9962ffffff90811699989796956001600160a01b031694939291808216916301000000820481169166010000000000008104821691600160481b909104168e565b60405161021d9e9d9c9b9a999897969594939291909d8e5262ffffff9c8d1660208f015260408e019b909b5260608d019990995260808c019790975260a08b01959095526001600160a01b039390931660c08a015260e0890191909152610100880152610120870152841661014086015283166101608501528216610180840152166101a08201526101c00190565b34801561056f57600080fd5b5061025c60035481565b34801561058557600080fd5b506000546001600160a01b03166102fa565b3480156105a357600080fd5b5061027f6105b2366004612603565b610e3e565b3480156105c357600080fd5b506102fa7f000000000000000000000000000000000000000000000000000000000000000081565b3480156105f757600080fd5b506102116114c7565b34801561060c57600080fd5b506102fa7f000000000000000000000000000000000000000000000000000000000000000081565b34801561064057600080fd5b5061033c61753081565b34801561065657600080fd5b506103856114e9565b34801561066b57600080fd5b5060065460ff16610211565b34801561068357600080fd5b50601054421015610211565b34801561069b57600080fd5b5061025c6106aa36600461267d565b6115a9565b3480156106bb57600080fd5b5061027f61160b565b3480156106d057600080fd5b503360009081526013602052604090205461025c565b3480156106f257600080fd5b5061021161170e565b34801561070757600080fd5b5061027f61071636600461248d565b61172c565b34801561072757600080fd5b5061027f6117a5565b601454600103610753576040516303cb96db60e21b815260040160405180910390fd5b60016014556000806107636114e9565b909250905081156107c85733600081815260136020526040902082905561078b905b83611a17565b7f3b9ed2e2036d893039f3fc012eb65deeed17b8ff45cc2f5ba416296910c94e15335b83426040516107bf939291906126d9565b60405180910390a15b50506000601455565b6014546001036107f4576040516303cb96db60e21b815260040160405180910390fd5b60016014556108016114c7565b8061080e575060065460ff165b156108205761081b611ad5565b61084b565b6010544210156108325761081b611b6f565b604051638b160bd360e01b815260040160405180910390fd5b6000601455565b6000806000610880620f424061087a61753062ffffff16600454611c2690919063ffffffff16565b90611c32565b9050600061089982600454611c3e90919063ffffffff16565b6008549091506108b890620f42409061087a90849062ffffff16611c26565b93506108c48185611c3e565b925050909192565b6014546001036108ef576040516303cb96db60e21b815260040160405180910390fd5b6001601455600454600c54036109185760405163319420eb60e01b815260040160405180910390fd5b60095481101561093b576040516351594acf60e11b815260040160405180910390fd5b600061096682601283335b6001600160a01b0316815260208101919091526040016000205490611c4a565b600a5490915081111561098c576040516304334aa360e51b815260040160405180910390fd5b60045461099a908390611c4a565b600c5410156109e05760408051632c4a292d60e21b81526004810191909152600360448201526241494160e81b6064820152602481018390526084015b60405180910390fd5b6109e8610d87565b15610a3057348214610a2b5760408051632c4a292d60e21b8152600481019190915260036044820152624e494160e81b60648201523460248201526084016109d7565b610b9b565b7f000000000000000000000000000000000000000000000000000000000000000030836001600160a01b03831663dd62ed3e336040516001600160e01b031960e084901b1681526001600160a01b0391821660048201529085166024820152604401602060405180830381865afa158015610aaf573d6000803e3d6000fd5b505050506040513d601f19601f82011682018060405250810190610ad391906126fa565b1015610af25760405163259dbadf60e01b815260040160405180910390fd5b6001600160a01b0382166323b872dd336040516001600160e01b031960e084901b1681526001600160a01b0391821660048201529084166024820152604481018790526064016020604051808303816000875af1158015610b57573d6000803e3d6000fd5b505050506040513d601f19601f82011682018060405250810190610b7b9190612713565b610b9857604051634daee0a960e11b815260040160405180910390fd5b50505b610ba9826012600033610946565b33600090815260126020526040902055600454610bc69083611c4a565b6004557f4ae4bd7655e0d350876a23cd90c4227b13db560e34435c6a488150a9c844bf5f336107ae565b600060035460001480610c04575060035442105b15610c0f5750600090565b600080610c2760035442611c3e90919063ffffffff16565b6011549091506301000000900462ffffff16811115610c5d57601154610c5a9082906301000000900462ffffff16611c32565b91505b60115462ffffff168215610c9757601154610c94908290610c8e9086906601000000000000900462ffffff16611c26565b90611c4a565b90505b620f4240811115610cae57620f4240935050505090565b9392505050565b6000808315610cf257600754601154610ceb919061087a90610ce490600160481b900462ffffff16600a61282f565b8790611c26565b9250610d21565b601154610d1e90610d1090600160481b900462ffffff16600a61282f565b60075461087a908690611c26565b93505b50829050815b9250929050565b601454600103610d51576040516303cb96db60e21b815260040160405180910390fd5b6001601455610d5e611c56565b610d666114c7565b156108325761081b611cb0565b610d7b611c56565b610d856000611d8f565b565b7f00000000000000000000000000000000000000000000000000000000000000006001600160a01b03161590565b600060608082808083610de97f00000000000000000000000000000000000000000000000000000000000000006001611ddf565b610e147f00000000000000000000000000000000000000000000000000000000000000006002611ddf565b60408051600080825260208201909252600f60f81b9b939a50919850469750309650945092509050565b601454600103610e61576040516303cb96db60e21b815260040160405180910390fd5b6001601455610e6e611c56565b600d546001600160a01b0316610e97576040516314a6598960e21b815260040160405180910390fd5b60035415610eb8576040516372d2dd0b60e01b815260040160405180910390fd5b601054421080610ed857506010544210158015610ed85750600b54600454105b15610ef65760405163cebeeca360e01b815260040160405180910390fd5b600854600554600091610f1791620f42409161087a919062ffffff16611c26565b905085811080610f25575085155b15610f4357604051631d5d2c9960e01b815260040160405180910390fd5b60007f00000000000000000000000000000000000000000000000000000000000000009050610fec816001600160a01b031663b1d00df06040518163ffffffff1660e01b8152600401602060405180830381865afa158015610fa9573d6000803e3d6000fd5b505050506040513d601f19601f82011682018060405250810190610fcd9190612856565b600d54610fe5906001600160a01b03168a8a8a6115a9565b8686611e83565b1561100a5760405163247d106d60e11b815260040160405180910390fd5b6000806000611017610852565b9250925092506000846001600160a01b031663017e7e586040518163ffffffff1660e01b8152600401602060405180830381865afa15801561105d573d6000803e3d6000fd5b505050506040513d601f19601f820116820180604052508101906110819190612856565b6011549091508b9085908c908c907f0000000000000000000000000000000000000000000000000000000000000000907f000000000000000000000000000000000000000000000000000000000000000090600090611100906110f190600160481b900462ffffff16600a61282f565b60075460045461087a91611c26565b905060006111238261111d8a600554611c3e90919063ffffffff16565b90611c3e565b6005839055600d5460405163095ea7b360e01b81526001600160a01b039182166004820152602481018b90529192506000919085169063095ea7b3906044016020604051808303816000875af1158015611181573d6000803e3d6000fd5b505050506040513d601f19601f820116820180604052508101906111a59190612713565b9050806111c5576040516306a92fdf60e01b815260040160405180910390fd5b6111cd610d87565b1561125e57600d546040516001600160a01b039091169089906111f3908a908a90612873565b60006040518083038185875af1925050503d8060008114611230576040519150601f19603f3d011682016040523d82523d6000602084013e611235565b606091505b5050809150508061125957604051631bfe902f60e11b815260040160405180910390fd5b61137a565b600d5460405163095ea7b360e01b81526001600160a01b039182166004820152602481018a90529086169063095ea7b3906044016020604051808303816000875af11580156112b1573d6000803e3d6000fd5b505050506040513d601f19601f820116820180604052508101906112d59190612713565b9050806112f5576040516385dda44d60e01b815260040160405180910390fd5b600d546040516001600160a01b03909116906113149089908990612873565b6000604051808303816000865af19150503d8060008114611351576040519150601f19603f3d011682016040523d82523d6000602084013e611356565b606091505b5050809150508061137a57604051631bfe902f60e11b815260040160405180910390fd5b6113848a8c611ee2565b6113ae7f00000000000000000000000000000000000000000000000000000000000000008d611ee2565b6113b733610785565b426003819055507f22a3f5b3c912571a13d0d6f19711381d887cb4dcb2f6f7aa57de664d42a09de07f00000000000000000000000000000000000000000000000000000000000000008d42604051611411939291906126d9565b60405180910390a17f3b9ed2e2036d893039f3fc012eb65deeed17b8ff45cc2f5ba416296910c94e1533834260405161144c939291906126d9565b60405180910390a1600d54604080513381526001600160a01b0390921660208301528181018b9052606082018a9052426080830152517f3579f62927f77888f0d41c632d9a2eff1914dc37b693733d1d7a70f92111ef989181900360a00190a150506000601455505050505050505050505050505050505050565b60006114d560105442101590565b80156114e45750600b54600454105b905090565b33600090815260126020526040812054819080820361151b57604051634daee0a960e11b815260040160405180910390fd5b6000611525610bf0565b9050806000036115485760405163cebeeca360e01b815260040160405180910390fd5b6000611576620f424061087a60045461087a8761157088600554611c2690919063ffffffff16565b90611c26565b90506000811561159e573360009081526013602052604090205461159a8382611c3e565b9150505b909590945092505050565b60006116027f08523daf28ee17754671f39f9958942c4717267760901eea3e6ffd35005a72ea858786866040516020016115e7959493929190612883565b60405160208183030381529060405280519060200120612007565b95945050505050565b60145460010361162e576040516303cb96db60e21b815260040160405180910390fd5b600160145560035415611654576040516372d2dd0b60e01b815260040160405180910390fd5b60065460ff161561167857604051630306ad4760e31b815260040160405180910390fd5b6006805460ff1916600117905561169761168f3390565b600554611a17565b7f46693e9d69e83400f28431bb5f4c82dbd15601770cb1e4ed7f0d805db9c5de7833600554426040516116cc939291906126d9565b60405180910390a16040514281527f8bf30e7ff26833413be5f69e1d373744864d600b664204b4a2f9844a8eedb9ed9060200160405180910390a16000601455565b600061171c600f5442101590565b80156114e4575050601054421090565b611734611c56565b6001600160a01b0381166117995760405162461bcd60e51b815260206004820152602660248201527f4f776e61626c653a206e6577206f776e657220697320746865207a65726f206160448201526564647265737360d01b60648201526084016109d7565b6117a281611d8f565b50565b6014546001036117c8576040516303cb96db60e21b815260040160405180910390fd5b60016014556117d5611c56565b600d546001600160a01b0316156117ff576040516327189df160e21b815260040160405180910390fd5b6118076114c7565b1561182557604051632901819f60e01b815260040160405180910390fd5b6010544210806118385750600b54600454105b156118565760405163562523c960e11b815260040160405180910390fd5b60035415611877576040516372d2dd0b60e01b815260040160405180910390fd5b60007f000000000000000000000000000000000000000000000000000000000000000090506000816001600160a01b031663017e7e586040518163ffffffff1660e01b8152600401602060405180830381865afa1580156118dc573d6000803e3d6000fd5b505050506040513d601f19601f820116820180604052508101906119009190612856565b90506000611927620f424061087a61753062ffffff16600454611c2690919063ffffffff16565b9050600061194082600454611c3e90919063ffffffff16565b905061194c8383611ee2565b6119767f000000000000000000000000000000000000000000000000000000000000000082611ee2565b4260038190556040517f22a3f5b3c912571a13d0d6f19711381d887cb4dcb2f6f7aa57de664d42a09de0916119ce917f00000000000000000000000000000000000000000000000000000000000000009185916126d9565b60405180910390a1505060006014555050565b60006020835110156119fd576119f683612034565b9050611a0e565b81611a08848261295a565b5060ff90505b92915050565b90565b60405163a9059cbb60e01b81526001600160a01b038381166004830152602482018390527f00000000000000000000000000000000000000000000000000000000000000009160009183169063a9059cbb906044016020604051808303816000875af1158015611a8b573d6000803e3d6000fd5b505050506040513d601f19601f82011682018060405250810190611aaf9190612713565b905080611acf57604051633b0ef58f60e21b815260040160405180910390fd5b50505050565b3360009081526012602052604081205490819003611b0657604051634daee0a960e11b815260040160405180910390fd5b33600090815260126020526040812055600454611b239082611c3e565b600455611b31335b82611ee2565b7fa173b89e07e2dbd444e1ed177984a84d46231b8dda39ca48c731d081b853057c338242604051611b64939291906126d9565b60405180910390a150565b3360009081526012602052604081205490819003611ba057604051634daee0a960e11b815260040160405180910390fd5b611bb4620f424061087a83620186a0611c26565b33600090815260126020526040812081905560045491925090611bd79083611c3e565b60048390559050611be733611b2b565b7fa173b89e07e2dbd444e1ed177984a84d46231b8dda39ca48c731d081b853057c338242604051611c1a939291906126d9565b60405180910390a15050565b6000610cae8284612a1a565b6000610cae8284612a31565b6000610cae8284612a53565b6000610cae8284612a66565b6000546001600160a01b03163314610d855760405162461bcd60e51b815260206004820181905260248201527f4f776e61626c653a2063616c6c6572206973206e6f7420746865206f776e657260448201526064016109d7565b600060058190556040516370a0823160e01b81523060048201527f000000000000000000000000000000000000000000000000000000000000000091906001600160a01b038316906370a0823190602401602060405180830381865afa158015611d1e573d6000803e3d6000fd5b505050506040513d601f19601f82011682018060405250810190611d4291906126fa565b905080600003611d50575050565b611d5a3382611a17565b7f6e009f616e8c14332574b9402c3b56141f9648e275161c6b65823921e6bc8a323360055442604051611c1a939291906126d9565b600080546001600160a01b038381166001600160a01b0319831681178455604051919092169283917f8be0079c531659141344cd1fd0a4f28419497f9722a3daafe3b4186f6b6457e09190a35050565b606060ff8314611df2576119f683612072565b818054611dfe906128d2565b80601f0160208091040260200160405190810160405280929190818152602001828054611e2a906128d2565b8015611e775780601f10611e4c57610100808354040283529160200191611e77565b820191906000526020600020905b815481529060010190602001808311611e5a57829003601f168201915b50505050509050611a0e565b6000846001600160a01b0316611ecf8585858080601f0160208091040260200160405190810160405280939291908181526020018383808284376000920191909152506120b192505050565b6001600160a01b03161495945050505050565b6000611eec610d87565b15611f4a576040516001600160a01b038416908390600081818185875af1925050503d8060008114611f3a576040519150601f19603f3d011682016040523d82523d6000602084013e611f3f565b606091505b505080915050611fe4565b60405163a9059cbb60e01b81526001600160a01b038481166004830152602482018490527f0000000000000000000000000000000000000000000000000000000000000000919082169063a9059cbb906044016020604051808303816000875af1158015611fbc573d6000803e3d6000fd5b505050506040513d601f19601f82011682018060405250810190611fe09190612713565b9150505b8061200257604051632901819f60e01b815260040160405180910390fd5b505050565b6000611a0e6120146120d5565b8360405161190160f01b8152600281019290925260228201526042902090565b600080829050601f8151111561205f578260405163305a27a960e01b81526004016109d79190612a79565b805161206a82612a8c565b179392505050565b6060600061207f83612200565b604080516020808252818301909252919250600091906020820181803683375050509182525060208101929092525090565b60008060006120c08585612228565b915091506120cd8161226a565b509392505050565b6000306001600160a01b037f00000000000000000000000000000000000000000000000000000000000000001614801561212e57507f000000000000000000000000000000000000000000000000000000000000000046145b1561215857507f000000000000000000000000000000000000000000000000000000000000000090565b6114e4604080517f8b73c3c69bb8fe3d512ecc4cf759cc79239f7b179b0ffacaa9a75d522b39400f60208201527f0000000000000000000000000000000000000000000000000000000000000000918101919091527f000000000000000000000000000000000000000000000000000000000000000060608201524660808201523060a082015260009060c00160405160208183030381529060405280519060200120905090565b600060ff8216601f811115611a0e57604051632cd44ac360e21b815260040160405180910390fd5b600080825160410361225e5760208301516040840151606085015160001a612252878285856123b4565b94509450505050610d27565b50600090506002610d27565b600081600481111561227e5761227e612ab0565b036122865750565b600181600481111561229a5761229a612ab0565b036122e75760405162461bcd60e51b815260206004820152601860248201527f45434453413a20696e76616c6964207369676e6174757265000000000000000060448201526064016109d7565b60028160048111156122fb576122fb612ab0565b036123485760405162461bcd60e51b815260206004820152601f60248201527f45434453413a20696e76616c6964207369676e6174757265206c656e6774680060448201526064016109d7565b600381600481111561235c5761235c612ab0565b036117a25760405162461bcd60e51b815260206004820152602260248201527f45434453413a20696e76616c6964207369676e6174757265202773272076616c604482015261756560f01b60648201526084016109d7565b6000807f7fffffffffffffffffffffffffffffff5d576e7357a4501ddfe92f46681b20a08311156123eb575060009050600361246f565b6040805160008082526020820180845289905260ff881692820192909252606081018690526080810185905260019060a0016020604051602081039080840390855afa15801561243f573d6000803e3d6000fd5b5050604051601f1901519150506001600160a01b0381166124685760006001925092505061246f565b9150600090505b94509492505050565b6001600160a01b03811681146117a257600080fd5b60006020828403121561249f57600080fd5b8135610cae81612478565b6000602082840312156124bc57600080fd5b5035919050565b600080604083850312156124d657600080fd5b50508035926020909101359150565b6000815180845260005b8181101561250b576020818501810151868301820152016124ef565b506000602082860101526020601f19601f83011685010191505092915050565b60ff60f81b881681526000602060e08184015261254b60e084018a6124e5565b838103604085015261255d818a6124e5565b606085018990526001600160a01b038816608086015260a0850187905284810360c0860152855180825283870192509083019060005b818110156125af57835183529284019291840191600101612593565b50909c9b505050505050505050505050565b60008083601f8401126125d357600080fd5b50813567ffffffffffffffff8111156125eb57600080fd5b602083019150836020828501011115610d2757600080fd5b60008060008060006060868803121561261b57600080fd5b85359450602086013567ffffffffffffffff8082111561263a57600080fd5b61264689838a016125c1565b9096509450604088013591508082111561265f57600080fd5b5061266c888289016125c1565b969995985093965092949392505050565b6000806000806060858703121561269357600080fd5b843561269e81612478565b935060208501359250604085013567ffffffffffffffff8111156126c157600080fd5b6126cd878288016125c1565b95989497509550505050565b6001600160a01b039390931683526020830191909152604082015260600190565b60006020828403121561270c57600080fd5b5051919050565b60006020828403121561272557600080fd5b81518015158114610cae57600080fd5b634e487b7160e01b600052601160045260246000fd5b600181815b8085111561278657816000190482111561276c5761276c612735565b8085161561277957918102915b93841c9390800290612750565b509250929050565b60008261279d57506001611a0e565b816127aa57506000611a0e565b81600181146127c057600281146127ca576127e6565b6001915050611a0e565b60ff8411156127db576127db612735565b50506001821b611a0e565b5060208310610133831016604e8410600b8410161715612809575081810a611a0e565b612813838361274b565b806000190482111561282757612827612735565b029392505050565b6000610cae62ffffff84168361278e565b634e487b7160e01b600052604160045260246000fd5b60006020828403121561286857600080fd5b8151610cae81612478565b8183823760009101908152919050565b858152602081018590526001600160a01b03841660408201526080606082018190528101829052818360a0830137600081830160a090810191909152601f909201601f19160101949350505050565b600181811c908216806128e657607f821691505b60208210810361290657634e487b7160e01b600052602260045260246000fd5b50919050565b601f82111561200257600081815260208120601f850160051c810160208610156129335750805b601f850160051c820191505b818110156129525782815560010161293f565b505050505050565b815167ffffffffffffffff81111561297457612974612840565b6129888161298284546128d2565b8461290c565b602080601f8311600181146129bd57600084156129a55750858301515b600019600386901b1c1916600185901b178555612952565b600085815260208120601f198616915b828110156129ec578886015182559484019460019091019084016129cd565b5085821015612a0a5787850151600019600388901b60f8161c191681555b5050505050600190811b01905550565b8082028115828204841417611a0e57611a0e612735565b600082612a4e57634e487b7160e01b600052601260045260246000fd5b500490565b81810381811115611a0e57611a0e612735565b80820180821115611a0e57611a0e612735565b602081526000610cae60208301846124e5565b805160208083015191908110156129065760001960209190910360031b1b16919050565b634e487b7160e01b600052602160045260246000fdfea2646970667358221220833728d72ce742a2b2d55f92f10140169b0676ead80ad3211322fee12f15d5e664736f6c63430008120033a264697066735822122005bf05eb5069d58076e039a98b5377270a02d4ee2cfd7ffd11a841822acdaf2964736f6c634300081200337b120365759431de99628beb16817e2e20765eab24871028041e6f30218ac77da49807205ce4d355092ef5a8a18f56e8913cf4a201fbe287825b095693c21775",
  "linkReferences": {},
  "deployedLinkReferences": {}
}