{
  "_format": "hh-sol-artifact-1",
  "contractName": "WESale",
  "sourceName": "contracts/WESale.sol",
  "abi": [
    {
      "inputs": [
        {
          "internalType": "string",
          "name": "_name",
          "type": "string"
        },
        {
          "internalType": "string",
          "name": "_version",
          "type": "string"
        },
        {
          "internalType": "address",
          "name": "_owner",
          "type": "address"
        },
        {
          "internalType": "address",
          "name": "_teamWallet",
          "type": "address"
        },
        {
          "internalType": "address",
          "name": "_presaleToken",
          "type": "address"
        },
        {
          "internalType": "address",
          "name": "_investToken",
          "type": "address"
        },
        {
          "internalType": "uint256",
          "name": "_deposit",
          "type": "uint256"
        },
        {
          "components": [
            {
              "internalType": "uint256",
              "name": "price",
              "type": "uint256"
            },
            {
              "internalType": "uint24",
              "name": "liquidityRate",
              "type": "uint24"
            },
            {
              "internalType": "uint256",
              "name": "minInvest",
              "type": "uint256"
            },
            {
              "internalType": "uint256",
              "name": "maxInvest",
              "type": "uint256"
            },
            {
              "internalType": "uint256",
              "name": "softCap",
              "type": "uint256"
            },
            {
              "internalType": "uint256",
              "name": "hardCap",
              "type": "uint256"
            },
            {
              "internalType": "address",
              "name": "router",
              "type": "address"
            },
            {
              "internalType": "uint256",
              "name": "dexInitPrice",
              "type": "uint256"
            },
            {
              "internalType": "uint256",
              "name": "startedAt",
              "type": "uint256"
            },
            {
              "internalType": "uint256",
              "name": "endedAt",
              "type": "uint256"
            },
            {
              "internalType": "uint24",
              "name": "firstRelease",
              "type": "uint24"
            },
            {
              "internalType": "uint24",
              "name": "cycle",
              "type": "uint24"
            },
            {
              "internalType": "uint24",
              "name": "cycleRelease",
              "type": "uint24"
            },
            {
              "internalType": "uint24",
              "name": "investTokenDecimals",
              "type": "uint24"
            }
          ],
          "internalType": "struct Parameters",
          "name": "_parameters",
          "type": "tuple"
        }
      ],
      "stateMutability": "nonpayable",
      "type": "constructor"
    },
    {
      "inputs": [],
      "name": "ClaimInvestError",
      "type": "error"
    },
    {
      "inputs": [],
      "name": "ClaimPresaleError",
      "type": "error"
    },
    {
      "inputs": [],
      "name": "DidNotMeetDivestmentRequirements",
      "type": "error"
    },
    {
      "inputs": [],
      "name": "GTMaximumInvestment",
      "type": "error"
    },
    {
      "inputs": [],
      "name": "HasBeenCanceled",
      "type": "error"
    },
    {
      "inputs": [],
      "name": "IllegalOperation",
      "type": "error"
    },
    {
      "inputs": [],
      "name": "InsufficientAllowedInvestAmount",
      "type": "error"
    },
    {
      "inputs": [],
      "name": "InsufficientInvestBalance",
      "type": "error"
    },
    {
      "inputs": [
        {
          "internalType": "string",
          "name": "_origin",
          "type": "string"
        },
        {
          "internalType": "uint256",
          "name": "_num",
          "type": "uint256"
        }
      ],
      "name": "InvalidNumber",
      "type": "error"
    },
    {
      "inputs": [],
      "name": "InvalidShortString",
      "type": "error"
    },
    {
      "inputs": [],
      "name": "InvestmentClosed",
      "type": "error"
    },
    {
      "inputs": [],
      "name": "InvestmentIsNotClosed",
      "type": "error"
    },
    {
      "inputs": [],
      "name": "IsAnAutoListingLaunchPad",
      "type": "error"
    },
    {
      "inputs": [],
      "name": "LTMinimumInvestment",
      "type": "error"
    },
    {
      "inputs": [],
      "name": "Locked",
      "type": "error"
    },
    {
      "inputs": [],
      "name": "NotAnAutoListingLaunchPad",
      "type": "error"
    },
    {
      "inputs": [],
      "name": "PresaleNotCompleted",
      "type": "error"
    },
    {
      "inputs": [],
      "name": "SaleCompleted",
      "type": "error"
    },
    {
      "inputs": [
        {
          "internalType": "string",
          "name": "str",
          "type": "string"
        }
      ],
      "name": "StringTooLong",
      "type": "error"
    },
    {
      "inputs": [],
      "name": "TransferAllowedInvestAmount",
      "type": "error"
    },
    {
      "inputs": [],
      "name": "TransferAllowedPresaleAmount",
      "type": "error"
    },
    {
      "inputs": [],
      "name": "TransferLiquidityFailed",
      "type": "error"
    },
    {
      "inputs": [],
      "name": "TransferLiquiditySignatureVerificationFailed",
      "type": "error"
    },
    {
      "anonymous": false,
      "inputs": [
        {
          "indexed": false,
          "internalType": "uint256",
          "name": "_timestamp",
          "type": "uint256"
        }
      ],
      "name": "Cancel",
      "type": "event"
    },
    {
      "anonymous": false,
      "inputs": [
        {
          "indexed": false,
          "internalType": "address",
          "name": "_sender",
          "type": "address"
        },
        {
          "indexed": false,
          "internalType": "uint256",
          "name": "_amount",
          "type": "uint256"
        },
        {
          "indexed": false,
          "internalType": "uint256",
          "name": "_timestamp",
          "type": "uint256"
        }
      ],
      "name": "CancelFounderReturn",
      "type": "event"
    },
    {
      "anonymous": false,
      "inputs": [
        {
          "indexed": false,
          "internalType": "address",
          "name": "_sender",
          "type": "address"
        },
        {
          "indexed": false,
          "internalType": "uint256",
          "name": "_amount",
          "type": "uint256"
        },
        {
          "indexed": false,
          "internalType": "uint256",
          "name": "_timestamp",
          "type": "uint256"
        }
      ],
      "name": "CancelReturn",
      "type": "event"
    },
    {
      "anonymous": false,
      "inputs": [
        {
          "indexed": false,
          "internalType": "address",
          "name": "_sender",
          "type": "address"
        },
        {
          "indexed": false,
          "internalType": "uint256",
          "name": "_amount",
          "type": "uint256"
        },
        {
          "indexed": false,
          "internalType": "uint256",
          "name": "_timestamp",
          "type": "uint256"
        }
      ],
      "name": "ClaimInvest",
      "type": "event"
    },
    {
      "anonymous": false,
      "inputs": [
        {
          "indexed": false,
          "internalType": "address",
          "name": "_sender",
          "type": "address"
        },
        {
          "indexed": false,
          "internalType": "uint256",
          "name": "_amount",
          "type": "uint256"
        },
        {
          "indexed": false,
          "internalType": "uint256",
          "name": "_timestamp",
          "type": "uint256"
        }
      ],
      "name": "ClaimPresale",
      "type": "event"
    },
    {
      "anonymous": false,
      "inputs": [],
      "name": "EIP712DomainChanged",
      "type": "event"
    },
    {
      "anonymous": false,
      "inputs": [
        {
          "indexed": false,
          "internalType": "address",
          "name": "_sender",
          "type": "address"
        },
        {
          "indexed": false,
          "internalType": "uint256",
          "name": "_amount",
          "type": "uint256"
        },
        {
          "indexed": false,
          "internalType": "uint256",
          "name": "_timestamp",
          "type": "uint256"
        }
      ],
      "name": "FounderDivest",
      "type": "event"
    },
    {
      "anonymous": false,
      "inputs": [
        {
          "indexed": false,
          "internalType": "address",
          "name": "_sender",
          "type": "address"
        },
        {
          "indexed": false,
          "internalType": "uint256",
          "name": "_amount",
          "type": "uint256"
        },
        {
          "indexed": false,
          "internalType": "uint256",
          "name": "_timestamp",
          "type": "uint256"
        }
      ],
      "name": "Invest",
      "type": "event"
    },
    {
      "anonymous": false,
      "inputs": [
        {
          "indexed": true,
          "internalType": "address",
          "name": "previousOwner",
          "type": "address"
        },
        {
          "indexed": true,
          "internalType": "address",
          "name": "newOwner",
          "type": "address"
        }
      ],
      "name": "OwnershipTransferred",
      "type": "event"
    },
    {
      "anonymous": false,
      "inputs": [
        {
          "indexed": false,
          "internalType": "address",
          "name": "_sender",
          "type": "address"
        },
        {
          "indexed": false,
          "internalType": "uint256",
          "name": "_amount",
          "type": "uint256"
        },
        {
          "indexed": false,
          "internalType": "uint256",
          "name": "_timestamp",
          "type": "uint256"
        }
      ],
      "name": "ParticipantDivest",
      "type": "event"
    },
    {
      "anonymous": false,
      "inputs": [
        {
          "indexed": false,
          "internalType": "address",
          "name": "_sender",
          "type": "address"
        },
        {
          "indexed": false,
          "internalType": "address",
          "name": "_router",
          "type": "address"
        },
        {
          "indexed": false,
          "internalType": "uint256",
          "name": "_amountA",
          "type": "uint256"
        },
        {
          "indexed": false,
          "internalType": "uint256",
          "name": "_amountB",
          "type": "uint256"
        },
        {
          "indexed": false,
          "internalType": "uint256",
          "name": "_timestamp",
          "type": "uint256"
        }
      ],
      "name": "TransferLP",
      "type": "event"
    },
    {
      "inputs": [],
      "name": "FEE",
      "outputs": [
        {
          "internalType": "uint24",
          "name": "",
          "type": "uint24"
        }
      ],
      "stateMutability": "view",
      "type": "function"
    },
    {
      "inputs": [],
      "name": "URGENT_DIVEST_FEE",
      "outputs": [
        {
          "internalType": "uint24",
          "name": "",
          "type": "uint24"
        }
      ],
      "stateMutability": "view",
      "type": "function"
    },
    {
      "inputs": [],
      "name": "_isCancel",
      "outputs": [
        {
          "internalType": "bool",
          "name": "",
          "type": "bool"
        }
      ],
      "stateMutability": "view",
      "type": "function"
    },
    {
      "inputs": [],
      "name": "_isEnded",
      "outputs": [
        {
          "internalType": "bool",
          "name": "",
          "type": "bool"
        }
      ],
      "stateMutability": "view",
      "type": "function"
    },
    {
      "inputs": [],
      "name": "_isFailed",
      "outputs": [
        {
          "internalType": "bool",
          "name": "",
          "type": "bool"
        }
      ],
      "stateMutability": "view",
      "type": "function"
    },
    {
      "inputs": [],
      "name": "_isLive",
      "outputs": [
        {
          "internalType": "bool",
          "name": "",
          "type": "bool"
        }
      ],
      "stateMutability": "view",
      "type": "function"
    },
    {
      "inputs": [],
      "name": "_isNative",
      "outputs": [
        {
          "internalType": "bool",
          "name": "",
          "type": "bool"
        }
      ],
      "stateMutability": "view",
      "type": "function"
    },
    {
      "inputs": [],
      "name": "_isStarted",
      "outputs": [
        {
          "internalType": "bool",
          "name": "",
          "type": "bool"
        }
      ],
      "stateMutability": "view",
      "type": "function"
    },
    {
      "inputs": [],
      "name": "cancel",
      "outputs": [],
      "stateMutability": "nonpayable",
      "type": "function"
    },
    {
      "inputs": [],
      "name": "claimInvest",
      "outputs": [],
      "stateMutability": "nonpayable",
      "type": "function"
    },
    {
      "inputs": [],
      "name": "claimPresale",
      "outputs": [],
      "stateMutability": "nonpayable",
      "type": "function"
    },
    {
      "inputs": [],
      "name": "divest",
      "outputs": [],
      "stateMutability": "nonpayable",
      "type": "function"
    },
    {
      "inputs": [],
      "name": "eip712Domain",
      "outputs": [
        {
          "internalType": "bytes1",
          "name": "fields",
          "type": "bytes1"
        },
        {
          "internalType": "string",
          "name": "name",
          "type": "string"
        },
        {
          "internalType": "string",
          "name": "version",
          "type": "string"
        },
        {
          "internalType": "uint256",
          "name": "chainId",
          "type": "uint256"
        },
        {
          "internalType": "address",
          "name": "verifyingContract",
          "type": "address"
        },
        {
          "internalType": "bytes32",
          "name": "salt",
          "type": "bytes32"
        },
        {
          "internalType": "uint256[]",
          "name": "extensions",
          "type": "uint256[]"
        }
      ],
      "stateMutability": "view",
      "type": "function"
    },
    {
      "inputs": [],
      "name": "factory",
      "outputs": [
        {
          "internalType": "address",
          "name": "",
          "type": "address"
        }
      ],
      "stateMutability": "view",
      "type": "function"
    },
    {
      "inputs": [],
      "name": "founderDivest",
      "outputs": [],
      "stateMutability": "nonpayable",
      "type": "function"
    },
    {
      "inputs": [
        {
          "internalType": "uint256",
          "name": "presaleAmount",
          "type": "uint256"
        },
        {
          "internalType": "uint256",
          "name": "investAmount",
          "type": "uint256"
        }
      ],
      "name": "getAmount",
      "outputs": [
        {
          "internalType": "uint256",
          "name": "_presaleAmount",
          "type": "uint256"
        },
        {
          "internalType": "uint256",
          "name": "_investAmount",
          "type": "uint256"
        }
      ],
      "stateMutability": "view",
      "type": "function"
    },
    {
      "inputs": [
        {
          "internalType": "address",
          "name": "_router",
          "type": "address"
        },
        {
          "internalType": "uint256",
          "name": "_amountA",
          "type": "uint256"
        },
        {
          "internalType": "bytes",
          "name": "_data",
          "type": "bytes"
        }
      ],
      "name": "getHash",
      "outputs": [
        {
          "internalType": "bytes32",
          "name": "",
          "type": "bytes32"
        }
      ],
      "stateMutability": "view",
      "type": "function"
    },
    {
      "inputs": [
        {
          "internalType": "address",
          "name": "investor",
          "type": "address"
        }
      ],
      "name": "getInvestOf",
      "outputs": [
        {
          "internalType": "uint256",
          "name": "",
          "type": "uint256"
        }
      ],
      "stateMutability": "view",
      "type": "function"
    },
    {
      "inputs": [],
      "name": "getTotalReleased",
      "outputs": [
        {
          "internalType": "uint256",
          "name": "",
          "type": "uint256"
        }
      ],
      "stateMutability": "view",
      "type": "function"
    },
    {
      "inputs": [],
      "name": "getTransferLiquidityInvestAmount",
      "outputs": [
        {
          "internalType": "uint256",
          "name": "_investTransferLPAmount",
          "type": "uint256"
        },
        {
          "internalType": "uint256",
          "name": "_investTransferTeamAmount",
          "type": "uint256"
        },
        {
          "internalType": "uint256",
          "name": "_fee",
          "type": "uint256"
        }
      ],
      "stateMutability": "view",
      "type": "function"
    },
    {
      "inputs": [
        {
          "internalType": "uint256",
          "name": "investAmount",
          "type": "uint256"
        }
      ],
      "name": "invest",
      "outputs": [],
      "stateMutability": "payable",
      "type": "function"
    },
    {
      "inputs": [],
      "name": "investToken",
      "outputs": [
        {
          "internalType": "address",
          "name": "",
          "type": "address"
        }
      ],
      "stateMutability": "view",
      "type": "function"
    },
    {
      "inputs": [],
      "name": "owner",
      "outputs": [
        {
          "internalType": "address",
          "name": "",
          "type": "address"
        }
      ],
      "stateMutability": "view",
      "type": "function"
    },
    {
      "inputs": [],
      "name": "parameters",
      "outputs": [
        {
          "internalType": "uint256",
          "name": "price",
          "type": "uint256"
        },
        {
          "internalType": "uint24",
          "name": "liquidityRate",
          "type": "uint24"
        },
        {
          "internalType": "uint256",
          "name": "minInvest",
          "type": "uint256"
        },
        {
          "internalType": "uint256",
          "name": "maxInvest",
          "type": "uint256"
        },
        {
          "internalType": "uint256",
          "name": "softCap",
          "type": "uint256"
        },
        {
          "internalType": "uint256",
          "name": "hardCap",
          "type": "uint256"
        },
        {
          "internalType": "address",
          "name": "router",
          "type": "address"
        },
        {
          "internalType": "uint256",
          "name": "dexInitPrice",
          "type": "uint256"
        },
        {
          "internalType": "uint256",
          "name": "startedAt",
          "type": "uint256"
        },
        {
          "internalType": "uint256",
          "name": "endedAt",
          "type": "uint256"
        },
        {
          "internalType": "uint24",
          "name": "firstRelease",
          "type": "uint24"
        },
        {
          "internalType": "uint24",
          "name": "cycle",
          "type": "uint24"
        },
        {
          "internalType": "uint24",
          "name": "cycleRelease",
          "type": "uint24"
        },
        {
          "internalType": "uint24",
          "name": "investTokenDecimals",
          "type": "uint24"
        }
      ],
      "stateMutability": "view",
      "type": "function"
    },
    {
      "inputs": [],
      "name": "presaleToken",
      "outputs": [
        {
          "internalType": "address",
          "name": "",
          "type": "address"
        }
      ],
      "stateMutability": "view",
      "type": "function"
    },
    {
      "inputs": [],
      "name": "renounceOwnership",
      "outputs": [],
      "stateMutability": "nonpayable",
      "type": "function"
    },
    {
      "inputs": [],
      "name": "teamWallet",
      "outputs": [
        {
          "internalType": "address",
          "name": "",
          "type": "address"
        }
      ],
      "stateMutability": "view",
      "type": "function"
    },
    {
      "inputs": [],
      "name": "totalInvest",
      "outputs": [
        {
          "internalType": "uint256",
          "name": "",
          "type": "uint256"
        }
      ],
      "stateMutability": "view",
      "type": "function"
    },
    {
      "inputs": [],
      "name": "totalPresale",
      "outputs": [
        {
          "internalType": "uint256",
          "name": "",
          "type": "uint256"
        }
      ],
      "stateMutability": "view",
      "type": "function"
    },
    {
      "inputs": [
        {
          "internalType": "uint256",
          "name": "_amountA",
          "type": "uint256"
        },
        {
          "internalType": "bytes",
          "name": "_data",
          "type": "bytes"
        },
        {
          "internalType": "bytes",
          "name": "_signature",
          "type": "bytes"
        }
      ],
      "name": "transferLiquidity",
      "outputs": [],
      "stateMutability": "nonpayable",
      "type": "function"
    },
    {
      "inputs": [
        {
          "internalType": "address",
          "name": "newOwner",
          "type": "address"
        }
      ],
      "name": "transferOwnership",
      "outputs": [],
      "stateMutability": "nonpayable",
      "type": "function"
    },
    {
      "inputs": [],
      "name": "unlockedAt",
      "outputs": [
        {
          "internalType": "uint256",
          "name": "",
          "type": "uint256"
        }
      ],
      "stateMutability": "view",
      "type": "function"
    }
  ],
  "bytecode": "0x6101e06040526006805460ff1916905560006014553480156200002157600080fd5b50604051620032a5380380620032a5833981016040819052620000449162000469565b8787620000513362000250565b6200006c600183620002a060201b6200191d1790919060201c565b6101205262000089816002620002a0602090811b6200191d17901c565b61014052815160208084019190912060e052815190820120610100524660a0526200011760e05161010051604080517f8b73c3c69bb8fe3d512ecc4cf759cc79239f7b179b0ffacaa9a75d522b39400f60208201529081019290925260608201524660808201523060a082015260009060c00160405160208183030381529060405280519060200120905090565b60805250503060c0526200012b8662000250565b336001600160a01b039081166101609081529581166101c0529384166101809081529284166101a0908152600592909255805160075560208101516008805462ffffff92831662ffffff1990911617905560408201516009556060820151600a556080820151600b5560a0820151600c5560c0820151600d8054919096166001600160a01b03199091161790945560e0810151600e55610100810151600f556101208101516010556101408101516011805496830151948301519290930151851669010000000000000000000262ffffff60481b199286166601000000000000029290921665ffffffffffff60301b1994861663010000000265ffffffffffff19909716919095161794909417919091169190911791909117905550620007d5915050565b600080546001600160a01b038381166001600160a01b0319831681178455604051919092169283917f8be0079c531659141344cd1fd0a4f28419497f9722a3daafe3b4186f6b6457e09190a35050565b6000602083511015620002c057620002b883620002f0565b9050620002ea565b82620002d7836200033c60201b620019501760201c565b90620002e49082620006af565b5060ff90505b92915050565b600080829050601f8151111562000327578260405163305a27a960e01b81526004016200031e91906200077b565b60405180910390fd5b80516200033482620007b0565b179392505050565b90565b634e487b7160e01b600052604160045260246000fd5b6040516101c081016001600160401b03811182821017156200037b576200037b6200033f565b60405290565b60005b838110156200039e57818101518382015260200162000384565b50506000910152565b600082601f830112620003b957600080fd5b81516001600160401b0380821115620003d657620003d66200033f565b604051601f8301601f19908116603f011681019082821181831017156200040157620004016200033f565b816040528381528660208588010111156200041b57600080fd5b6200042e84602083016020890162000381565b9695505050505050565b80516001600160a01b03811681146200045057600080fd5b919050565b805162ffffff811681146200045057600080fd5b600080600080600080600080888a036102a08112156200048857600080fd5b89516001600160401b0380821115620004a057600080fd5b620004ae8d838e01620003a7565b9a5060208c0151915080821115620004c557600080fd5b50620004d48c828d01620003a7565b985050620004e560408b0162000438565b9650620004f560608b0162000438565b95506200050560808b0162000438565b94506200051560a08b0162000438565b935060c08a015192506101c060df19820112156200053257600080fd5b506200053d62000355565b60e08a01518152620005536101008b0162000455565b60208201526101208a01516040820152610140808b01516060830152610160808c01516080840152610180808d015160a08501526101a062000597818f0162000438565b60c08601526101c08e015160e08601526101e08e01516101008601526102008e0151610120860152620005ce6102208f0162000455565b84860152620005e16102408f0162000455565b83860152620005f46102608f0162000455565b82860152620006076102808f0162000455565b8186015250505050809150509295985092959890939650565b600181811c908216806200063557607f821691505b6020821081036200065657634e487b7160e01b600052602260045260246000fd5b50919050565b601f821115620006aa57600081815260208120601f850160051c81016020861015620006855750805b601f850160051c820191505b81811015620006a65782815560010162000691565b5050505b505050565b81516001600160401b03811115620006cb57620006cb6200033f565b620006e381620006dc845462000620565b846200065c565b602080601f8311600181146200071b5760008415620007025750858301515b600019600386901b1c1916600185901b178555620006a6565b600085815260208120601f198616915b828110156200074c578886015182559484019460019091019084016200072b565b50858210156200076b5787850151600019600388901b60f8161c191681555b5050505050600190811b01905550565b60208152600082518060208401526200079c81604085016020870162000381565b601f01601f19169190910160400192915050565b80516020808301519190811015620006565760001960209190910360031b1b16919050565b60805160a05160c05160e05161010051610120516101405161016051610180516101a0516101c0516129ee620008b760003960008181610396015281816113dc015281816114350152818161189201526118da0152600081816105b301528181610a8901528181610dfd015281816110e40152611e620152600081816102c2015281816111060152818161199d0152611bb30152600081816105fc01528181610f9a01526117bc01526000610e6201526000610e37015260006120a10152600061207901526000611fd401526000611ffe0152600061202801526129ee6000f3fe6080604052600436106101e25760003560e01c806384b0196e11610102578063c57981b511610095578063ea8a1af011610064578063ea8a1af014610684578063eb8addc214610699578063f2fde38b146106ae578063fc2612c9146106ce57600080fd5b8063c57981b51461061e578063d407544014610634578063d4974fe91461064c578063e23145411461066457600080fd5b8063a1b356d4116100d1578063a1b356d414610581578063badf822b146105a1578063c3015b52146105d5578063c45a0155146105ea57600080fd5b806384b0196e14610423578063890357301461044b5780638cb1e9c11461054d5780638da5cb5b1461056357600080fd5b80634b14c0ef1161017a578063616b40e311610149578063616b40e3146103cd5780636bd3d406146103e3578063715018a6146103f95780637c07a7101461040e57600080fd5b80634b14c0ef1461033a5780634ca989971461034f57806359927044146103845780635eaa1729146103b857600080fd5b806316fbe6b4116101b657806316fbe6b41461028057806324ffea1a146102b05780632afcf480146102fc578063367e4caf1461030f57600080fd5b806240c766146101e75780630390c55e14610210578063046ef9a514610254578063058aace11461026b575b600080fd5b3480156101f357600080fd5b50600f544210155b60405190151581526020015b60405180910390f35b34801561021c57600080fd5b5061024661022b36600461237f565b6001600160a01b031660009081526012602052604090205490565b604051908152602001610207565b34801561026057600080fd5b506102696106e3565b005b34801561027757600080fd5b5061026961082e565b34801561028c57600080fd5b506102956108af565b60408051938452602084019290925290820152606001610207565b3480156102bc57600080fd5b506102e47f000000000000000000000000000000000000000000000000000000000000000081565b6040516001600160a01b039091168152602001610207565b61026961030a36600461239c565b610923565b34801561031b57600080fd5b50610326620186a081565b60405162ffffff9091168152602001610207565b34801561034657600080fd5b50610246610c64565b34801561035b57600080fd5b5061036f61036a3660046123b5565b610d29565b60408051928352602083019190915201610207565b34801561039057600080fd5b506102e47f000000000000000000000000000000000000000000000000000000000000000081565b3480156103c457600080fd5b50610269610da2565b3480156103d957600080fd5b5061024660045481565b3480156103ef57600080fd5b5061024660055481565b34801561040557600080fd5b50610269610de7565b34801561041a57600080fd5b506101fb610dfb565b34801561042f57600080fd5b50610438610e29565b604051610207979695949392919061241d565b34801561045757600080fd5b50600754600854600954600a54600b54600c54600d54600e54600f546010546011546104be9a9962ffffff90811699989796956001600160a01b031694939291808216916301000000820481169166010000000000008104821691600160481b909104168e565b6040516102079e9d9c9b9a999897969594939291909d8e5262ffffff9c8d1660208f015260408e019b909b5260608d019990995260808c019790975260a08b01959095526001600160a01b039390931660c08a015260e0890191909152610100880152610120870152841661014086015283166101608501528216610180840152166101a08201526101c00190565b34801561055957600080fd5b5061024660035481565b34801561056f57600080fd5b506000546001600160a01b03166102e4565b34801561058d57600080fd5b5061026961059c3660046124f5565b610eb2565b3480156105ad57600080fd5b506102e47f000000000000000000000000000000000000000000000000000000000000000081565b3480156105e157600080fd5b506101fb61151b565b3480156105f657600080fd5b506102e47f000000000000000000000000000000000000000000000000000000000000000081565b34801561062a57600080fd5b5061032661753081565b34801561064057600080fd5b5060065460ff166101fb565b34801561065857600080fd5b506010544210156101fb565b34801561067057600080fd5b5061024661067f36600461256f565b61153d565b34801561069057600080fd5b5061026961159f565b3480156106a557600080fd5b506101fb61166f565b3480156106ba57600080fd5b506102696106c936600461237f565b61168d565b3480156106da57600080fd5b50610269611706565b601454600103610706576040516303cb96db60e21b815260040160405180910390fd5b6001601455336000908152601260205260408120549081900361073c57604051634daee0a960e11b815260040160405180910390fd5b6000610746610c64565b9050806000036107695760405163cebeeca360e01b815260040160405180910390fd5b600061079d620f4240610797600454610797876107918860055461195390919063ffffffff16565b90611953565b9061195f565b905080156108245733600090815260136020526040812054906107c0838361196b565b90508015610821573360008181526013602052604090208490556107e5905b82611977565b7f3b9ed2e2036d893039f3fc012eb65deeed17b8ff45cc2f5ba416296910c94e15338242604051610818939291906125cb565b60405180910390a15b50505b5050600060145550565b601454600103610851576040516303cb96db60e21b815260040160405180910390fd5b600160145561085e61151b565b8061086b575060065460ff165b1561087d57610878611a35565b6108a8565b60105442101561088f57610878611adf565b604051638b160bd360e01b815260040160405180910390fd5b6000601455565b60008060006108d7620f424061079761753062ffffff1660045461195390919063ffffffff16565b905060006108f08260045461196b90919063ffffffff16565b60085490915061090f90620f42409061079790849062ffffff16611953565b935061091b818561196b565b925050909192565b601454600103610946576040516303cb96db60e21b815260040160405180910390fd5b6001601455600454600c540361096f5760405163319420eb60e01b815260040160405180910390fd5b600954811015610992576040516351594acf60e11b815260040160405180910390fd5b60006109bd82601283335b6001600160a01b0316815260208101919091526040016000205490611b31565b600a549091508111156109e3576040516304334aa360e51b815260040160405180910390fd5b6004546109f1908390611b31565b600c541015610a375760408051632c4a292d60e21b81526004810191909152600360448201526241494160e81b6064820152602481018390526084015b60405180910390fd5b610a3f610dfb565b15610a8757348214610a825760408051632c4a292d60e21b8152600481019190915260036044820152624e494160e81b6064820152346024820152608401610a2e565b610bf2565b7f000000000000000000000000000000000000000000000000000000000000000030836001600160a01b03831663dd62ed3e336040516001600160e01b031960e084901b1681526001600160a01b0391821660048201529085166024820152604401602060405180830381865afa158015610b06573d6000803e3d6000fd5b505050506040513d601f19601f82011682018060405250810190610b2a91906125ec565b1015610b495760405163259dbadf60e01b815260040160405180910390fd5b6001600160a01b0382166323b872dd336040516001600160e01b031960e084901b1681526001600160a01b0391821660048201529084166024820152604481018790526064016020604051808303816000875af1158015610bae573d6000803e3d6000fd5b505050506040513d601f19601f82011682018060405250810190610bd29190612605565b610bef57604051634daee0a960e11b815260040160405180910390fd5b50505b610c0082601260003361099d565b33600090815260126020526040902055600454610c1d9083611b31565b6004557f4ae4bd7655e0d350876a23cd90c4227b13db560e34435c6a488150a9c844bf5f338342604051610c53939291906125cb565b60405180910390a150506000601455565b600060035460001480610c78575060035442105b15610c835750600090565b600080610c9b6003544261196b90919063ffffffff16565b6011549091506301000000900462ffffff16811115610cd157601154610cce9082906301000000900462ffffff1661195f565b91505b60115462ffffff168215610d0b57601154610d08908290610d029086906601000000000000900462ffffff16611953565b90611b31565b90505b620f4240811115610d2257620f4240935050505090565b9392505050565b6000808315610d6657600754601154610d5f919061079790610d5890600160481b900462ffffff16600a612721565b8790611953565b9250610d95565b601154610d9290610d8490600160481b900462ffffff16600a612721565b600754610797908690611953565b93505b50829050815b9250929050565b601454600103610dc5576040516303cb96db60e21b815260040160405180910390fd5b6001601455610dd2611b3d565b610dda61151b565b1561088f57610878611b97565b610def611b3d565b610df96000611c81565b565b7f00000000000000000000000000000000000000000000000000000000000000006001600160a01b03161590565b600060608082808083610e5d7f00000000000000000000000000000000000000000000000000000000000000006001611cd1565b610e887f00000000000000000000000000000000000000000000000000000000000000006002611cd1565b60408051600080825260208201909252600f60f81b9b939a50919850469750309650945092509050565b601454600103610ed5576040516303cb96db60e21b815260040160405180910390fd5b6001601455610ee2611b3d565b600d546001600160a01b0316610f0b576040516314a6598960e21b815260040160405180910390fd5b601054421080610f2b57506010544210158015610f2b5750600b54600454105b15610f495760405163cebeeca360e01b815260040160405180910390fd5b600854600554600091610f6a91620f424091610797919062ffffff16611953565b905085811080610f78575085155b15610f9657604051631d5d2c9960e01b815260040160405180910390fd5b60007f0000000000000000000000000000000000000000000000000000000000000000905061103f816001600160a01b031663b1d00df06040518163ffffffff1660e01b8152600401602060405180830381865afa158015610ffc573d6000803e3d6000fd5b505050506040513d601f19601f820116820180604052508101906110209190612748565b600d54611038906001600160a01b03168a8a8a61153d565b8686611d75565b1561105d5760405163247d106d60e11b815260040160405180910390fd5b600080600061106a6108af565b9250925092506000846001600160a01b031663017e7e586040518163ffffffff1660e01b8152600401602060405180830381865afa1580156110b0573d6000803e3d6000fd5b505050506040513d601f19601f820116820180604052508101906110d49190612748565b6011549091508b9085908c908c907f0000000000000000000000000000000000000000000000000000000000000000907f0000000000000000000000000000000000000000000000000000000000000000906000906111539061114490600160481b900462ffffff16600a612721565b60075460045461079791611953565b90506000611176826111708a60055461196b90919063ffffffff16565b9061196b565b6005839055600d5460405163095ea7b360e01b81526001600160a01b039182166004820152602481018b90529192506000919085169063095ea7b3906044016020604051808303816000875af11580156111d4573d6000803e3d6000fd5b505050506040513d601f19601f820116820180604052508101906111f89190612605565b905080611218576040516306a92fdf60e01b815260040160405180910390fd5b611220610dfb565b156112b157600d546040516001600160a01b03909116908990611246908a908a90612765565b60006040518083038185875af1925050503d8060008114611283576040519150601f19603f3d011682016040523d82523d6000602084013e611288565b606091505b505080915050806112ac57604051631bfe902f60e11b815260040160405180910390fd5b6113cd565b600d5460405163095ea7b360e01b81526001600160a01b039182166004820152602481018a90529086169063095ea7b3906044016020604051808303816000875af1158015611304573d6000803e3d6000fd5b505050506040513d601f19601f820116820180604052508101906113289190612605565b905080611348576040516385dda44d60e01b815260040160405180910390fd5b600d546040516001600160a01b03909116906113679089908990612765565b6000604051808303816000865af19150503d80600081146113a4576040519150601f19603f3d011682016040523d82523d6000602084013e6113a9565b606091505b505080915050806113cd57604051631bfe902f60e11b815260040160405180910390fd5b6113d78a8c611dd4565b6114017f00000000000000000000000000000000000000000000000000000000000000008d611dd4565b61140b3383611977565b426003819055507f22a3f5b3c912571a13d0d6f19711381d887cb4dcb2f6f7aa57de664d42a09de07f00000000000000000000000000000000000000000000000000000000000000008d42604051611465939291906125cb565b60405180910390a17f3b9ed2e2036d893039f3fc012eb65deeed17b8ff45cc2f5ba416296910c94e153383426040516114a0939291906125cb565b60405180910390a1600d54604080513381526001600160a01b0390921660208301528181018b9052606082018a9052426080830152517f3579f62927f77888f0d41c632d9a2eff1914dc37b693733d1d7a70f92111ef989181900360a00190a150506000601455505050505050505050505050505050505050565b600061152960105442101590565b80156115385750600b54600454105b905090565b60006115967f08523daf28ee17754671f39f9958942c4717267760901eea3e6ffd35005a72ea8587868660405160200161157b959493929190612775565b60405160208183030381529060405280519060200120611ef9565b95945050505050565b6014546001036115c2576040516303cb96db60e21b815260040160405180910390fd5b6001601455600354156115e8576040516372d2dd0b60e01b815260040160405180910390fd5b60065460ff161561160c57604051630306ad4760e31b815260040160405180910390fd5b6006805460ff1916600117905561162b6116233390565b600554611977565b7f46693e9d69e83400f28431bb5f4c82dbd15601770cb1e4ed7f0d805db9c5de783360055442604051611660939291906125cb565b60405180910390a16000601455565b600061167d600f5442101590565b8015611538575050601054421090565b611695611b3d565b6001600160a01b0381166116fa5760405162461bcd60e51b815260206004820152602660248201527f4f776e61626c653a206e6577206f776e657220697320746865207a65726f206160448201526564647265737360d01b6064820152608401610a2e565b61170381611c81565b50565b601454600103611729576040516303cb96db60e21b815260040160405180910390fd5b6001601455611736611b3d565b600d546001600160a01b031615611760576040516327189df160e21b815260040160405180910390fd5b61176861151b565b1561178657604051632901819f60e01b815260040160405180910390fd5b60105442108061179a5750600c5460045414155b156117b85760405163562523c960e11b815260040160405180910390fd5b60007f000000000000000000000000000000000000000000000000000000000000000090506000816001600160a01b031663017e7e586040518163ffffffff1660e01b8152600401602060405180830381865afa15801561181d573d6000803e3d6000fd5b505050506040513d601f19601f820116820180604052508101906118419190612748565b90506000611868620f424061079761753062ffffff1660045461195390919063ffffffff16565b905060006118818260045461196b90919063ffffffff16565b905061188d8383611dd4565b6118b77f000000000000000000000000000000000000000000000000000000000000000082611dd4565b7f22a3f5b3c912571a13d0d6f19711381d887cb4dcb2f6f7aa57de664d42a09de07f0000000000000000000000000000000000000000000000000000000000000000824260405161190a939291906125cb565b60405180910390a1505060006014555050565b60006020835110156119395761193283611f26565b905061194a565b81611944848261284c565b5060ff90505b92915050565b90565b6000610d22828461290c565b6000610d228284612923565b6000610d228284612945565b60405163a9059cbb60e01b81526001600160a01b038381166004830152602482018390527f00000000000000000000000000000000000000000000000000000000000000009160009183169063a9059cbb906044016020604051808303816000875af11580156119eb573d6000803e3d6000fd5b505050506040513d601f19601f82011682018060405250810190611a0f9190612605565b905080611a2f57604051633b0ef58f60e21b815260040160405180910390fd5b50505050565b3360009081526012602052604081205490819003611a6657604051634daee0a960e11b815260040160405180910390fd5b6000601281335b6001600160a01b03168152602081019190915260400160002055600454611a94908261196b565b600455611aa13382611dd4565b7fa173b89e07e2dbd444e1ed177984a84d46231b8dda39ca48c731d081b853057c338242604051611ad4939291906125cb565b60405180910390a150565b3360009081526012602052604081205490819003611b1057604051634daee0a960e11b815260040160405180910390fd5b611b24620f424061079783620186a0611953565b9050600060128133611a6d565b6000610d228284612958565b6000546001600160a01b03163314610df95760405162461bcd60e51b815260206004820181905260248201527f4f776e61626c653a2063616c6c6572206973206e6f7420746865206f776e65726044820152606401610a2e565b600060058190556040516370a0823160e01b81523060048201527f000000000000000000000000000000000000000000000000000000000000000091906001600160a01b038316906370a0823190602401602060405180830381865afa158015611c05573d6000803e3d6000fd5b505050506040513d601f19601f82011682018060405250810190611c2991906125ec565b905080600003611c37575050565b611c40336107df565b7f6e009f616e8c14332574b9402c3b56141f9648e275161c6b65823921e6bc8a323360055442604051611c75939291906125cb565b60405180910390a15050565b600080546001600160a01b038381166001600160a01b0319831681178455604051919092169283917f8be0079c531659141344cd1fd0a4f28419497f9722a3daafe3b4186f6b6457e09190a35050565b606060ff8314611ce45761193283611f64565b818054611cf0906127c4565b80601f0160208091040260200160405190810160405280929190818152602001828054611d1c906127c4565b8015611d695780601f10611d3e57610100808354040283529160200191611d69565b820191906000526020600020905b815481529060010190602001808311611d4c57829003601f168201915b5050505050905061194a565b6000846001600160a01b0316611dc18585858080601f016020809104026020016040519081016040528093929190818152602001838380828437600092019190915250611fa392505050565b6001600160a01b03161495945050505050565b6000611dde610dfb565b15611e3c576040516001600160a01b038416908390600081818185875af1925050503d8060008114611e2c576040519150601f19603f3d011682016040523d82523d6000602084013e611e31565b606091505b505080915050611ed6565b60405163a9059cbb60e01b81526001600160a01b038481166004830152602482018490527f0000000000000000000000000000000000000000000000000000000000000000919082169063a9059cbb906044016020604051808303816000875af1158015611eae573d6000803e3d6000fd5b505050506040513d601f19601f82011682018060405250810190611ed29190612605565b9150505b80611ef457604051632901819f60e01b815260040160405180910390fd5b505050565b600061194a611f06611fc7565b8360405161190160f01b8152600281019290925260228201526042902090565b600080829050601f81511115611f51578260405163305a27a960e01b8152600401610a2e919061296b565b8051611f5c8261297e565b179392505050565b60606000611f71836120f2565b604080516020808252818301909252919250600091906020820181803683375050509182525060208101929092525090565b6000806000611fb2858561211a565b91509150611fbf8161215c565b509392505050565b6000306001600160a01b037f00000000000000000000000000000000000000000000000000000000000000001614801561202057507f000000000000000000000000000000000000000000000000000000000000000046145b1561204a57507f000000000000000000000000000000000000000000000000000000000000000090565b611538604080517f8b73c3c69bb8fe3d512ecc4cf759cc79239f7b179b0ffacaa9a75d522b39400f60208201527f0000000000000000000000000000000000000000000000000000000000000000918101919091527f000000000000000000000000000000000000000000000000000000000000000060608201524660808201523060a082015260009060c00160405160208183030381529060405280519060200120905090565b600060ff8216601f81111561194a57604051632cd44ac360e21b815260040160405180910390fd5b60008082516041036121505760208301516040840151606085015160001a612144878285856122a6565b94509450505050610d9b565b50600090506002610d9b565b6000816004811115612170576121706129a2565b036121785750565b600181600481111561218c5761218c6129a2565b036121d95760405162461bcd60e51b815260206004820152601860248201527f45434453413a20696e76616c6964207369676e617475726500000000000000006044820152606401610a2e565b60028160048111156121ed576121ed6129a2565b0361223a5760405162461bcd60e51b815260206004820152601f60248201527f45434453413a20696e76616c6964207369676e6174757265206c656e677468006044820152606401610a2e565b600381600481111561224e5761224e6129a2565b036117035760405162461bcd60e51b815260206004820152602260248201527f45434453413a20696e76616c6964207369676e6174757265202773272076616c604482015261756560f01b6064820152608401610a2e565b6000807f7fffffffffffffffffffffffffffffff5d576e7357a4501ddfe92f46681b20a08311156122dd5750600090506003612361565b6040805160008082526020820180845289905260ff881692820192909252606081018690526080810185905260019060a0016020604051602081039080840390855afa158015612331573d6000803e3d6000fd5b5050604051601f1901519150506001600160a01b03811661235a57600060019250925050612361565b9150600090505b94509492505050565b6001600160a01b038116811461170357600080fd5b60006020828403121561239157600080fd5b8135610d228161236a565b6000602082840312156123ae57600080fd5b5035919050565b600080604083850312156123c857600080fd5b50508035926020909101359150565b6000815180845260005b818110156123fd576020818501810151868301820152016123e1565b506000602082860101526020601f19601f83011685010191505092915050565b60ff60f81b881681526000602060e08184015261243d60e084018a6123d7565b838103604085015261244f818a6123d7565b606085018990526001600160a01b038816608086015260a0850187905284810360c0860152855180825283870192509083019060005b818110156124a157835183529284019291840191600101612485565b50909c9b505050505050505050505050565b60008083601f8401126124c557600080fd5b50813567ffffffffffffffff8111156124dd57600080fd5b602083019150836020828501011115610d9b57600080fd5b60008060008060006060868803121561250d57600080fd5b85359450602086013567ffffffffffffffff8082111561252c57600080fd5b61253889838a016124b3565b9096509450604088013591508082111561255157600080fd5b5061255e888289016124b3565b969995985093965092949392505050565b6000806000806060858703121561258557600080fd5b84356125908161236a565b935060208501359250604085013567ffffffffffffffff8111156125b357600080fd5b6125bf878288016124b3565b95989497509550505050565b6001600160a01b039390931683526020830191909152604082015260600190565b6000602082840312156125fe57600080fd5b5051919050565b60006020828403121561261757600080fd5b81518015158114610d2257600080fd5b634e487b7160e01b600052601160045260246000fd5b600181815b8085111561267857816000190482111561265e5761265e612627565b8085161561266b57918102915b93841c9390800290612642565b509250929050565b60008261268f5750600161194a565b8161269c5750600061194a565b81600181146126b257600281146126bc576126d8565b600191505061194a565b60ff8411156126cd576126cd612627565b50506001821b61194a565b5060208310610133831016604e8410600b84101617156126fb575081810a61194a565b612705838361263d565b806000190482111561271957612719612627565b029392505050565b6000610d2262ffffff841683612680565b634e487b7160e01b600052604160045260246000fd5b60006020828403121561275a57600080fd5b8151610d228161236a565b8183823760009101908152919050565b858152602081018590526001600160a01b03841660408201526080606082018190528101829052818360a0830137600081830160a090810191909152601f909201601f19160101949350505050565b600181811c908216806127d857607f821691505b6020821081036127f857634e487b7160e01b600052602260045260246000fd5b50919050565b601f821115611ef457600081815260208120601f850160051c810160208610156128255750805b601f850160051c820191505b8181101561284457828155600101612831565b505050505050565b815167ffffffffffffffff81111561286657612866612732565b61287a8161287484546127c4565b846127fe565b602080601f8311600181146128af57600084156128975750858301515b600019600386901b1c1916600185901b178555612844565b600085815260208120601f198616915b828110156128de578886015182559484019460019091019084016128bf565b50858210156128fc5787850151600019600388901b60f8161c191681555b5050505050600190811b01905550565b808202811582820484141761194a5761194a612627565b60008261294057634e487b7160e01b600052601260045260246000fd5b500490565b8181038181111561194a5761194a612627565b8082018082111561194a5761194a612627565b602081526000610d2260208301846123d7565b805160208083015191908110156127f85760001960209190910360031b1b16919050565b634e487b7160e01b600052602160045260246000fdfea26469706673582212202c4790600c85b64a6104affc4d862606b931ffdb1d8e3572797a317386e8b7d264736f6c63430008120033",
  "linkReferences": {},
  "deployedLinkReferences": {}
}