{
  "_format": "hh-sol-artifact-1",
  "contractName": "WESale",
  "sourceName": "contracts/WESale.sol",
  "abi": [
    {
      "inputs": [
        {
          "internalType": "string",
          "name": "_name",
          "type": "string"
        },
        {
          "internalType": "string",
          "name": "_version",
          "type": "string"
        },
        {
          "internalType": "address",
          "name": "_owner",
          "type": "address"
        },
        {
          "internalType": "address",
          "name": "_teamWallet",
          "type": "address"
        },
        {
          "internalType": "address",
          "name": "_presaleToken",
          "type": "address"
        },
        {
          "internalType": "address",
          "name": "_investToken",
          "type": "address"
        },
        {
          "internalType": "uint256",
          "name": "_deposit",
          "type": "uint256"
        },
        {
          "components": [
            {
              "internalType": "uint256",
              "name": "price",
              "type": "uint256"
            },
            {
              "internalType": "uint24",
              "name": "liquidityRate",
              "type": "uint24"
            },
            {
              "internalType": "uint256",
              "name": "minInvest",
              "type": "uint256"
            },
            {
              "internalType": "uint256",
              "name": "maxInvest",
              "type": "uint256"
            },
            {
              "internalType": "uint256",
              "name": "softCap",
              "type": "uint256"
            },
            {
              "internalType": "uint256",
              "name": "hardCap",
              "type": "uint256"
            },
            {
              "internalType": "address",
              "name": "router",
              "type": "address"
            },
            {
              "internalType": "uint256",
              "name": "dexInitPrice",
              "type": "uint256"
            },
            {
              "internalType": "uint256",
              "name": "startedAt",
              "type": "uint256"
            },
            {
              "internalType": "uint256",
              "name": "endedAt",
              "type": "uint256"
            },
            {
              "internalType": "uint24",
              "name": "firstRelease",
              "type": "uint24"
            },
            {
              "internalType": "uint24",
              "name": "cycle",
              "type": "uint24"
            },
            {
              "internalType": "uint24",
              "name": "cycleRelease",
              "type": "uint24"
            },
            {
              "internalType": "uint24",
              "name": "investTokenDecimals",
              "type": "uint24"
            }
          ],
          "internalType": "struct Parameters",
          "name": "_parameters",
          "type": "tuple"
        }
      ],
      "stateMutability": "nonpayable",
      "type": "constructor"
    },
    {
      "inputs": [],
      "name": "ClaimInvestError",
      "type": "error"
    },
    {
      "inputs": [],
      "name": "ClaimPresaleError",
      "type": "error"
    },
    {
      "inputs": [],
      "name": "DidNotMeetDivestmentRequirements",
      "type": "error"
    },
    {
      "inputs": [],
      "name": "EditingIsCurrentlyNotAllowed",
      "type": "error"
    },
    {
      "inputs": [],
      "name": "GTMaximumInvestment",
      "type": "error"
    },
    {
      "inputs": [],
      "name": "HasBeenCanceled",
      "type": "error"
    },
    {
      "inputs": [],
      "name": "IllegalOperation",
      "type": "error"
    },
    {
      "inputs": [],
      "name": "InsufficientAllowedInvestAmount",
      "type": "error"
    },
    {
      "inputs": [],
      "name": "InsufficientInvestBalance",
      "type": "error"
    },
    {
      "inputs": [
        {
          "internalType": "string",
          "name": "_origin",
          "type": "string"
        },
        {
          "internalType": "uint256",
          "name": "_num",
          "type": "uint256"
        }
      ],
      "name": "InvalidNumber",
      "type": "error"
    },
    {
      "inputs": [],
      "name": "InvalidShortString",
      "type": "error"
    },
    {
      "inputs": [],
      "name": "InvestmentClosed",
      "type": "error"
    },
    {
      "inputs": [],
      "name": "InvestmentIsNotClosed",
      "type": "error"
    },
    {
      "inputs": [],
      "name": "IsAnAutoListingLaunchPad",
      "type": "error"
    },
    {
      "inputs": [],
      "name": "LTMinimumInvestment",
      "type": "error"
    },
    {
      "inputs": [],
      "name": "Locked",
      "type": "error"
    },
    {
      "inputs": [],
      "name": "MustAfterOld",
      "type": "error"
    },
    {
      "inputs": [],
      "name": "NotAnAutoListingLaunchPad",
      "type": "error"
    },
    {
      "inputs": [],
      "name": "PresaleNotCompleted",
      "type": "error"
    },
    {
      "inputs": [],
      "name": "SaleCompleted",
      "type": "error"
    },
    {
      "inputs": [
        {
          "internalType": "string",
          "name": "str",
          "type": "string"
        }
      ],
      "name": "StringTooLong",
      "type": "error"
    },
    {
      "inputs": [],
      "name": "TransferAllowedInvestAmount",
      "type": "error"
    },
    {
      "inputs": [],
      "name": "TransferAllowedPresaleAmount",
      "type": "error"
    },
    {
      "inputs": [],
      "name": "TransferLiquidityFailed",
      "type": "error"
    },
    {
      "inputs": [],
      "name": "TransferLiquiditySignatureVerificationFailed",
      "type": "error"
    },
    {
      "anonymous": false,
      "inputs": [
        {
          "indexed": false,
          "internalType": "uint256",
          "name": "_timestamp",
          "type": "uint256"
        }
      ],
      "name": "Cancel",
      "type": "event"
    },
    {
      "anonymous": false,
      "inputs": [
        {
          "indexed": false,
          "internalType": "address",
          "name": "_sender",
          "type": "address"
        },
        {
          "indexed": false,
          "internalType": "uint256",
          "name": "_amount",
          "type": "uint256"
        },
        {
          "indexed": false,
          "internalType": "uint256",
          "name": "_timestamp",
          "type": "uint256"
        }
      ],
      "name": "CancelFounderReturn",
      "type": "event"
    },
    {
      "anonymous": false,
      "inputs": [
        {
          "indexed": false,
          "internalType": "address",
          "name": "_sender",
          "type": "address"
        },
        {
          "indexed": false,
          "internalType": "uint256",
          "name": "_amount",
          "type": "uint256"
        },
        {
          "indexed": false,
          "internalType": "uint256",
          "name": "_timestamp",
          "type": "uint256"
        }
      ],
      "name": "CancelReturn",
      "type": "event"
    },
    {
      "anonymous": false,
      "inputs": [
        {
          "indexed": false,
          "internalType": "address",
          "name": "_sender",
          "type": "address"
        },
        {
          "indexed": false,
          "internalType": "uint256",
          "name": "_amount",
          "type": "uint256"
        },
        {
          "indexed": false,
          "internalType": "uint256",
          "name": "_timestamp",
          "type": "uint256"
        }
      ],
      "name": "ClaimPresale",
      "type": "event"
    },
    {
      "anonymous": false,
      "inputs": [],
      "name": "EIP712DomainChanged",
      "type": "event"
    },
    {
      "anonymous": false,
      "inputs": [
        {
          "indexed": false,
          "internalType": "address",
          "name": "_sender",
          "type": "address"
        },
        {
          "indexed": false,
          "internalType": "uint256",
          "name": "_amount",
          "type": "uint256"
        },
        {
          "indexed": false,
          "internalType": "uint256",
          "name": "_timestamp",
          "type": "uint256"
        }
      ],
      "name": "FounderDivest",
      "type": "event"
    },
    {
      "anonymous": false,
      "inputs": [
        {
          "indexed": false,
          "internalType": "address",
          "name": "_sender",
          "type": "address"
        },
        {
          "indexed": false,
          "internalType": "uint256",
          "name": "_amount",
          "type": "uint256"
        },
        {
          "indexed": false,
          "internalType": "uint256",
          "name": "_timestamp",
          "type": "uint256"
        }
      ],
      "name": "Invest",
      "type": "event"
    },
    {
      "anonymous": false,
      "inputs": [
        {
          "indexed": true,
          "internalType": "address",
          "name": "previousOwner",
          "type": "address"
        },
        {
          "indexed": true,
          "internalType": "address",
          "name": "newOwner",
          "type": "address"
        }
      ],
      "name": "OwnershipTransferred",
      "type": "event"
    },
    {
      "anonymous": false,
      "inputs": [
        {
          "indexed": false,
          "internalType": "address",
          "name": "_sender",
          "type": "address"
        },
        {
          "indexed": false,
          "internalType": "uint256",
          "name": "_amount",
          "type": "uint256"
        },
        {
          "indexed": false,
          "internalType": "uint256",
          "name": "_timestamp",
          "type": "uint256"
        }
      ],
      "name": "ParticipantDivest",
      "type": "event"
    },
    {
      "anonymous": false,
      "inputs": [
        {
          "indexed": false,
          "internalType": "address",
          "name": "_sender",
          "type": "address"
        },
        {
          "indexed": false,
          "internalType": "address",
          "name": "_router",
          "type": "address"
        },
        {
          "indexed": false,
          "internalType": "uint256",
          "name": "_amountA",
          "type": "uint256"
        },
        {
          "indexed": false,
          "internalType": "uint256",
          "name": "_amountB",
          "type": "uint256"
        },
        {
          "indexed": false,
          "internalType": "uint256",
          "name": "_timestamp",
          "type": "uint256"
        }
      ],
      "name": "TransferLP",
      "type": "event"
    },
    {
      "anonymous": false,
      "inputs": [
        {
          "indexed": false,
          "internalType": "uint256",
          "name": "_timestamp",
          "type": "uint256"
        }
      ],
      "name": "UpdateEndedAt",
      "type": "event"
    },
    {
      "inputs": [],
      "name": "FEE",
      "outputs": [
        {
          "internalType": "uint24",
          "name": "",
          "type": "uint24"
        }
      ],
      "stateMutability": "view",
      "type": "function"
    },
    {
      "inputs": [],
      "name": "URGENT_DIVEST_FEE",
      "outputs": [
        {
          "internalType": "uint24",
          "name": "",
          "type": "uint24"
        }
      ],
      "stateMutability": "view",
      "type": "function"
    },
    {
      "inputs": [],
      "name": "_canUpdate",
      "outputs": [
        {
          "internalType": "bool",
          "name": "",
          "type": "bool"
        }
      ],
      "stateMutability": "view",
      "type": "function"
    },
    {
      "inputs": [],
      "name": "_isCancel",
      "outputs": [
        {
          "internalType": "bool",
          "name": "",
          "type": "bool"
        }
      ],
      "stateMutability": "view",
      "type": "function"
    },
    {
      "inputs": [],
      "name": "_isEnded",
      "outputs": [
        {
          "internalType": "bool",
          "name": "",
          "type": "bool"
        }
      ],
      "stateMutability": "view",
      "type": "function"
    },
    {
      "inputs": [],
      "name": "_isFailed",
      "outputs": [
        {
          "internalType": "bool",
          "name": "",
          "type": "bool"
        }
      ],
      "stateMutability": "view",
      "type": "function"
    },
    {
      "inputs": [],
      "name": "_isLive",
      "outputs": [
        {
          "internalType": "bool",
          "name": "",
          "type": "bool"
        }
      ],
      "stateMutability": "view",
      "type": "function"
    },
    {
      "inputs": [],
      "name": "_isNative",
      "outputs": [
        {
          "internalType": "bool",
          "name": "",
          "type": "bool"
        }
      ],
      "stateMutability": "view",
      "type": "function"
    },
    {
      "inputs": [],
      "name": "_isStarted",
      "outputs": [
        {
          "internalType": "bool",
          "name": "",
          "type": "bool"
        }
      ],
      "stateMutability": "view",
      "type": "function"
    },
    {
      "inputs": [],
      "name": "cancel",
      "outputs": [],
      "stateMutability": "nonpayable",
      "type": "function"
    },
    {
      "inputs": [],
      "name": "claimInvest",
      "outputs": [],
      "stateMutability": "nonpayable",
      "type": "function"
    },
    {
      "inputs": [],
      "name": "claimPresale",
      "outputs": [],
      "stateMutability": "nonpayable",
      "type": "function"
    },
    {
      "inputs": [],
      "name": "divest",
      "outputs": [],
      "stateMutability": "nonpayable",
      "type": "function"
    },
    {
      "inputs": [],
      "name": "eip712Domain",
      "outputs": [
        {
          "internalType": "bytes1",
          "name": "fields",
          "type": "bytes1"
        },
        {
          "internalType": "string",
          "name": "name",
          "type": "string"
        },
        {
          "internalType": "string",
          "name": "version",
          "type": "string"
        },
        {
          "internalType": "uint256",
          "name": "chainId",
          "type": "uint256"
        },
        {
          "internalType": "address",
          "name": "verifyingContract",
          "type": "address"
        },
        {
          "internalType": "bytes32",
          "name": "salt",
          "type": "bytes32"
        },
        {
          "internalType": "uint256[]",
          "name": "extensions",
          "type": "uint256[]"
        }
      ],
      "stateMutability": "view",
      "type": "function"
    },
    {
      "inputs": [],
      "name": "factory",
      "outputs": [
        {
          "internalType": "address",
          "name": "",
          "type": "address"
        }
      ],
      "stateMutability": "view",
      "type": "function"
    },
    {
      "inputs": [],
      "name": "founderDivest",
      "outputs": [],
      "stateMutability": "nonpayable",
      "type": "function"
    },
    {
      "inputs": [
        {
          "internalType": "uint256",
          "name": "presaleAmount",
          "type": "uint256"
        },
        {
          "internalType": "uint256",
          "name": "investAmount",
          "type": "uint256"
        }
      ],
      "name": "getAmount",
      "outputs": [
        {
          "internalType": "uint256",
          "name": "_presaleAmount",
          "type": "uint256"
        },
        {
          "internalType": "uint256",
          "name": "_investAmount",
          "type": "uint256"
        }
      ],
      "stateMutability": "view",
      "type": "function"
    },
    {
      "inputs": [],
      "name": "getCanClaimTotal",
      "outputs": [
        {
          "internalType": "uint256",
          "name": "",
          "type": "uint256"
        },
        {
          "internalType": "uint256",
          "name": "",
          "type": "uint256"
        }
      ],
      "stateMutability": "view",
      "type": "function"
    },
    {
      "inputs": [],
      "name": "getClaimedTotal",
      "outputs": [
        {
          "internalType": "uint256",
          "name": "",
          "type": "uint256"
        }
      ],
      "stateMutability": "view",
      "type": "function"
    },
    {
      "inputs": [
        {
          "internalType": "address",
          "name": "_router",
          "type": "address"
        },
        {
          "internalType": "uint256",
          "name": "_amountA",
          "type": "uint256"
        },
        {
          "internalType": "bytes",
          "name": "_data",
          "type": "bytes"
        }
      ],
      "name": "getHash",
      "outputs": [
        {
          "internalType": "bytes32",
          "name": "",
          "type": "bytes32"
        }
      ],
      "stateMutability": "view",
      "type": "function"
    },
    {
      "inputs": [
        {
          "internalType": "address",
          "name": "investor",
          "type": "address"
        }
      ],
      "name": "getInvestOf",
      "outputs": [
        {
          "internalType": "uint256",
          "name": "",
          "type": "uint256"
        }
      ],
      "stateMutability": "view",
      "type": "function"
    },
    {
      "inputs": [],
      "name": "getTotalReleased",
      "outputs": [
        {
          "internalType": "uint256",
          "name": "",
          "type": "uint256"
        }
      ],
      "stateMutability": "view",
      "type": "function"
    },
    {
      "inputs": [],
      "name": "getTransferLiquidityInvestAmount",
      "outputs": [
        {
          "internalType": "uint256",
          "name": "_investTransferLPAmount",
          "type": "uint256"
        },
        {
          "internalType": "uint256",
          "name": "_investTransferTeamAmount",
          "type": "uint256"
        },
        {
          "internalType": "uint256",
          "name": "_fee",
          "type": "uint256"
        }
      ],
      "stateMutability": "view",
      "type": "function"
    },
    {
      "inputs": [
        {
          "internalType": "uint256",
          "name": "investAmount",
          "type": "uint256"
        }
      ],
      "name": "invest",
      "outputs": [],
      "stateMutability": "payable",
      "type": "function"
    },
    {
      "inputs": [],
      "name": "investToken",
      "outputs": [
        {
          "internalType": "address",
          "name": "",
          "type": "address"
        }
      ],
      "stateMutability": "view",
      "type": "function"
    },
    {
      "inputs": [],
      "name": "owner",
      "outputs": [
        {
          "internalType": "address",
          "name": "",
          "type": "address"
        }
      ],
      "stateMutability": "view",
      "type": "function"
    },
    {
      "inputs": [],
      "name": "parameters",
      "outputs": [
        {
          "internalType": "uint256",
          "name": "price",
          "type": "uint256"
        },
        {
          "internalType": "uint24",
          "name": "liquidityRate",
          "type": "uint24"
        },
        {
          "internalType": "uint256",
          "name": "minInvest",
          "type": "uint256"
        },
        {
          "internalType": "uint256",
          "name": "maxInvest",
          "type": "uint256"
        },
        {
          "internalType": "uint256",
          "name": "softCap",
          "type": "uint256"
        },
        {
          "internalType": "uint256",
          "name": "hardCap",
          "type": "uint256"
        },
        {
          "internalType": "address",
          "name": "router",
          "type": "address"
        },
        {
          "internalType": "uint256",
          "name": "dexInitPrice",
          "type": "uint256"
        },
        {
          "internalType": "uint256",
          "name": "startedAt",
          "type": "uint256"
        },
        {
          "internalType": "uint256",
          "name": "endedAt",
          "type": "uint256"
        },
        {
          "internalType": "uint24",
          "name": "firstRelease",
          "type": "uint24"
        },
        {
          "internalType": "uint24",
          "name": "cycle",
          "type": "uint24"
        },
        {
          "internalType": "uint24",
          "name": "cycleRelease",
          "type": "uint24"
        },
        {
          "internalType": "uint24",
          "name": "investTokenDecimals",
          "type": "uint24"
        }
      ],
      "stateMutability": "view",
      "type": "function"
    },
    {
      "inputs": [],
      "name": "presaleToken",
      "outputs": [
        {
          "internalType": "address",
          "name": "",
          "type": "address"
        }
      ],
      "stateMutability": "view",
      "type": "function"
    },
    {
      "inputs": [],
      "name": "renounceOwnership",
      "outputs": [],
      "stateMutability": "nonpayable",
      "type": "function"
    },
    {
      "inputs": [],
      "name": "teamWallet",
      "outputs": [
        {
          "internalType": "address",
          "name": "",
          "type": "address"
        }
      ],
      "stateMutability": "view",
      "type": "function"
    },
    {
      "inputs": [],
      "name": "totalInvest",
      "outputs": [
        {
          "internalType": "uint256",
          "name": "",
          "type": "uint256"
        }
      ],
      "stateMutability": "view",
      "type": "function"
    },
    {
      "inputs": [],
      "name": "totalPresale",
      "outputs": [
        {
          "internalType": "uint256",
          "name": "",
          "type": "uint256"
        }
      ],
      "stateMutability": "view",
      "type": "function"
    },
    {
      "inputs": [
        {
          "internalType": "uint256",
          "name": "_amountA",
          "type": "uint256"
        },
        {
          "internalType": "bytes",
          "name": "_data",
          "type": "bytes"
        },
        {
          "internalType": "bytes",
          "name": "_signature",
          "type": "bytes"
        }
      ],
      "name": "transferLiquidity",
      "outputs": [],
      "stateMutability": "nonpayable",
      "type": "function"
    },
    {
      "inputs": [
        {
          "internalType": "address",
          "name": "newOwner",
          "type": "address"
        }
      ],
      "name": "transferOwnership",
      "outputs": [],
      "stateMutability": "nonpayable",
      "type": "function"
    },
    {
      "inputs": [],
      "name": "unlockedAt",
      "outputs": [
        {
          "internalType": "uint256",
          "name": "",
          "type": "uint256"
        }
      ],
      "stateMutability": "view",
      "type": "function"
    },
    {
      "inputs": [
        {
          "internalType": "uint256",
          "name": "_endedAt",
          "type": "uint256"
        }
      ],
      "name": "updateEndedAt",
      "outputs": [],
      "stateMutability": "nonpayable",
      "type": "function"
    }
  ],
  "bytecode": "0x6101e06040526006805461ffff191661010017905560006014553480156200002657600080fd5b50604051620035583803806200355883398101604081905262000049916200046e565b8787620000563362000255565b62000071600183620002a560201b62001ad91790919060201c565b610120526200008e816002620002a5602090811b62001ad917901c565b61014052815160208084019190912060e052815190820120610100524660a0526200011c60e05161010051604080517f8b73c3c69bb8fe3d512ecc4cf759cc79239f7b179b0ffacaa9a75d522b39400f60208201529081019290925260608201524660808201523060a082015260009060c00160405160208183030381529060405280519060200120905090565b60805250503060c052620001308662000255565b336001600160a01b039081166101609081529581166101c0529384166101809081529284166101a0908152600592909255805160075560208101516008805462ffffff92831662ffffff1990911617905560408201516009556060820151600a556080820151600b5560a0820151600c5560c0820151600d8054919096166001600160a01b03199091161790945560e0810151600e55610100810151600f556101208101516010556101408101516011805496830151948301519290930151851669010000000000000000000262ffffff60481b199286166601000000000000029290921665ffffffffffff60301b1994861663010000000265ffffffffffff19909716919095161794909417919091169190911791909117905550620007da915050565b600080546001600160a01b038381166001600160a01b0319831681178455604051919092169283917f8be0079c531659141344cd1fd0a4f28419497f9722a3daafe3b4186f6b6457e09190a35050565b6000602083511015620002c557620002bd83620002f5565b9050620002ef565b82620002dc836200034160201b62001b0c1760201c565b90620002e99082620006b4565b5060ff90505b92915050565b600080829050601f815111156200032c578260405163305a27a960e01b815260040162000323919062000780565b60405180910390fd5b80516200033982620007b5565b179392505050565b90565b634e487b7160e01b600052604160045260246000fd5b6040516101c081016001600160401b038111828210171562000380576200038062000344565b60405290565b60005b83811015620003a357818101518382015260200162000389565b50506000910152565b600082601f830112620003be57600080fd5b81516001600160401b0380821115620003db57620003db62000344565b604051601f8301601f19908116603f0116810190828211818310171562000406576200040662000344565b816040528381528660208588010111156200042057600080fd5b6200043384602083016020890162000386565b9695505050505050565b80516001600160a01b03811681146200045557600080fd5b919050565b805162ffffff811681146200045557600080fd5b600080600080600080600080888a036102a08112156200048d57600080fd5b89516001600160401b0380821115620004a557600080fd5b620004b38d838e01620003ac565b9a5060208c0151915080821115620004ca57600080fd5b50620004d98c828d01620003ac565b985050620004ea60408b016200043d565b9650620004fa60608b016200043d565b95506200050a60808b016200043d565b94506200051a60a08b016200043d565b935060c08a015192506101c060df19820112156200053757600080fd5b50620005426200035a565b60e08a01518152620005586101008b016200045a565b60208201526101208a01516040820152610140808b01516060830152610160808c01516080840152610180808d015160a08501526101a06200059c818f016200043d565b60c08601526101c08e015160e08601526101e08e01516101008601526102008e0151610120860152620005d36102208f016200045a565b84860152620005e66102408f016200045a565b83860152620005f96102608f016200045a565b828601526200060c6102808f016200045a565b8186015250505050809150509295985092959890939650565b600181811c908216806200063a57607f821691505b6020821081036200065b57634e487b7160e01b600052602260045260246000fd5b50919050565b601f821115620006af57600081815260208120601f850160051c810160208610156200068a5750805b601f850160051c820191505b81811015620006ab5782815560010162000696565b5050505b505050565b81516001600160401b03811115620006d057620006d062000344565b620006e881620006e1845462000625565b8462000661565b602080601f831160018114620007205760008415620007075750858301515b600019600386901b1c1916600185901b178555620006ab565b600085815260208120601f198616915b82811015620007515788860151825594840194600190910190840162000730565b5085821015620007705787850151600019600388901b60f8161c191681555b5050505050600190811b01905550565b6020815260008251806020840152620007a181604085016020870162000386565b601f01601f19169190910160400192915050565b805160208083015191908110156200065b5760001960209190910360031b1b16919050565b60805160a05160c05160e05161010051610120516101405161016051610180516101a0516101c051612ca3620008b5600039600081816103df015281816115160152611aa501526000818161061c01528181610ad901528181610e3c0152818161121e015261211701526000818161030b0152818161124001528181611b350152611e68015260008181610665015281816110d4015281816119cf0152611ce501526000610ea101526000610e76015260006123560152600061232e01526000612289015260006122b3015260006122dd0152612ca36000f3fe60806040526004361061020e5760003560e01c80638903573011610118578063d27ee421116100a0578063ea8a1af01161006f578063ea8a1af014610702578063eb6715b814610717578063eb8addc214610739578063f2fde38b1461074e578063fc2612c91461076e57600080fd5b8063d27ee4211461069d578063d4075440146106b2578063d4974fe9146106ca578063e2314541146106e257600080fd5b8063a1b356d4116100e7578063a1b356d4146105ea578063badf822b1461060a578063c3015b521461063e578063c45a015514610653578063c57981b51461068757600080fd5b806389035730146104945780638cb1e9c1146105965780638da5cb5b146105ac5780639ac2abe2146105ca57600080fd5b80634b14c0ef1161019b578063616b40e31161016a578063616b40e3146104165780636bd3d4061461042c578063715018a6146104425780637c07a7101461045757806384b0196e1461046c57600080fd5b80634b14c0ef146103835780634ca989971461039857806359927044146103cd5780635eaa17291461040157600080fd5b80631654879e116101e25780631654879e146102ac57806316fbe6b4146102c957806324ffea1a146102f95780632afcf48014610345578063367e4caf1461035857600080fd5b806240c766146102135780630390c55e1461023c578063046ef9a514610280578063058aace114610297575b600080fd5b34801561021f57600080fd5b50600f544210155b60405190151581526020015b60405180910390f35b34801561024857600080fd5b50610272610257366004612634565b6001600160a01b031660009081526012602052604090205490565b604051908152602001610233565b34801561028c57600080fd5b50610295610783565b005b3480156102a357600080fd5b50610295610854565b3480156102b857600080fd5b50600654610100900460ff16610227565b3480156102d557600080fd5b506102de6108d5565b60408051938452602084019290925290820152606001610233565b34801561030557600080fd5b5061032d7f000000000000000000000000000000000000000000000000000000000000000081565b6040516001600160a01b039091168152602001610233565b610295610353366004612651565b61094f565b34801561036457600080fd5b5061036f620186a081565b60405162ffffff9091168152602001610233565b34801561038f57600080fd5b50610272610ca3565b3480156103a457600080fd5b506103b86103b336600461266a565b610d68565b60408051928352602083019190915201610233565b3480156103d957600080fd5b5061032d7f000000000000000000000000000000000000000000000000000000000000000081565b34801561040d57600080fd5b50610295610de1565b34801561042257600080fd5b5061027260045481565b34801561043857600080fd5b5061027260055481565b34801561044e57600080fd5b50610295610e26565b34801561046357600080fd5b50610227610e3a565b34801561047857600080fd5b50610481610e68565b60405161023397969594939291906126d2565b3480156104a057600080fd5b50600754600854600954600a54600b54600c54600d54600e54600f546010546011546105079a9962ffffff90811699989796956001600160a01b031694939291808216916301000000820481169166010000000000008104821691600160481b909104168e565b6040516102339e9d9c9b9a999897969594939291909d8e5262ffffff9c8d1660208f015260408e019b909b5260608d019990995260808c019790975260a08b01959095526001600160a01b039390931660c08a015260e0890191909152610100880152610120870152841661014086015283166101608501528216610180840152166101a08201526101c00190565b3480156105a257600080fd5b5061027260035481565b3480156105b857600080fd5b506000546001600160a01b031661032d565b3480156105d657600080fd5b506102956105e5366004612651565b610ef1565b3480156105f657600080fd5b506102956106053660046127aa565b610fa7565b34801561061657600080fd5b5061032d7f000000000000000000000000000000000000000000000000000000000000000081565b34801561064a57600080fd5b506102276115f7565b34801561065f57600080fd5b5061032d7f000000000000000000000000000000000000000000000000000000000000000081565b34801561069357600080fd5b5061036f61753081565b3480156106a957600080fd5b506103b8611619565b3480156106be57600080fd5b5060065460ff16610227565b3480156106d657600080fd5b50601054421015610227565b3480156106ee57600080fd5b506102726106fd366004612824565b6116d9565b34801561070e57600080fd5b5061029561173b565b34801561072357600080fd5b5033600090815260136020526040902054610272565b34801561074557600080fd5b5061022761183e565b34801561075a57600080fd5b50610295610769366004612634565b61185c565b34801561077a57600080fd5b506102956118d5565b6014546001036107a6576040516303cb96db60e21b815260040160405180910390fd5b60016014556107b36115f7565b806107be5750600354155b156107dc5760405163cebeeca360e01b815260040160405180910390fd5b6000806107e7611619565b9092509050801561084b5733600081815260136020526040902083905561080f905b82611b0f565b7f3b9ed2e2036d893039f3fc012eb65deeed17b8ff45cc2f5ba416296910c94e1533824260405161084293929190612880565b60405180910390a15b50506000601455565b601454600103610877576040516303cb96db60e21b815260040160405180910390fd5b60016014556108846115f7565b80610891575060065460ff165b156108a35761089e611bcd565b6108ce565b6010544210156108b55761089e611c65565b604051638b160bd360e01b815260040160405180910390fd5b6000601455565b6000806000610903620f42406108fd61753062ffffff16600454611dc290919063ffffffff16565b90611dce565b9050600061091c82600454611dda90919063ffffffff16565b60085490915061093b90620f4240906108fd90849062ffffff16611dc2565b93506109478185611dda565b925050909192565b601454600103610972576040516303cb96db60e21b815260040160405180910390fd5b600160145560065460ff161561099b57604051630306ad4760e31b815260040160405180910390fd5b600454600c54036109bf5760405163319420eb60e01b815260040160405180910390fd5b6009548110156109e2576040516351594acf60e11b815260040160405180910390fd5b6000610a0d82601283335b6001600160a01b0316815260208101919091526040016000205490611de6565b600a54909150811115610a33576040516304334aa360e51b815260040160405180910390fd5b600454610a41908390611de6565b600c541015610a875760408051632c4a292d60e21b81526004810191909152600360448201526241494160e81b6064820152602481018390526084015b60405180910390fd5b610a8f610e3a565b15610ad757348214610ad25760408051632c4a292d60e21b8152600481019190915260036044820152624e494160e81b6064820152346024820152608401610a7e565b610c42565b7f000000000000000000000000000000000000000000000000000000000000000030836001600160a01b03831663dd62ed3e336040516001600160e01b031960e084901b1681526001600160a01b0391821660048201529085166024820152604401602060405180830381865afa158015610b56573d6000803e3d6000fd5b505050506040513d601f19601f82011682018060405250810190610b7a91906128a1565b1015610b995760405163259dbadf60e01b815260040160405180910390fd5b6001600160a01b0382166323b872dd336040516001600160e01b031960e084901b1681526001600160a01b0391821660048201529084166024820152604481018790526064016020604051808303816000875af1158015610bfe573d6000803e3d6000fd5b505050506040513d601f19601f82011682018060405250810190610c2291906128ba565b610c3f57604051634daee0a960e11b815260040160405180910390fd5b50505b610c508260126000336109ed565b33600090815260126020526040902055600454610c6d9083611de6565b6004557f4ae4bd7655e0d350876a23cd90c4227b13db560e34435c6a488150a9c844bf5f33834260405161084293929190612880565b600060035460001480610cb7575060035442105b15610cc25750600090565b600080610cda60035442611dda90919063ffffffff16565b6011549091506301000000900462ffffff16811115610d1057601154610d0d9082906301000000900462ffffff16611dce565b91505b60115462ffffff168215610d4a57601154610d47908290610d419086906601000000000000900462ffffff16611dc2565b90611de6565b90505b620f4240811115610d6157620f4240935050505090565b9392505050565b6000808315610da557600754601154610d9e91906108fd90610d9790600160481b900462ffffff16600a6129d6565b8790611dc2565b9250610dd4565b601154610dd190610dc390600160481b900462ffffff16600a6129d6565b6007546108fd908690611dc2565b93505b50829050815b9250929050565b601454600103610e04576040516303cb96db60e21b815260040160405180910390fd5b6001601455610e11611df2565b610e196115f7565b156108b55761089e611e4c565b610e2e611df2565b610e386000611f36565b565b7f00000000000000000000000000000000000000000000000000000000000000006001600160a01b03161590565b600060608082808083610e9c7f00000000000000000000000000000000000000000000000000000000000000006001611f86565b610ec77f00000000000000000000000000000000000000000000000000000000000000006002611f86565b60408051600080825260208201909252600f60f81b9b939a50919850469750309650945092509050565b610ef9611df2565b60105442101580610f125750600654610100900460ff16155b80610f1f575060065460ff165b15610f3d57604051637d26363b60e01b815260040160405180910390fd5b601054811015610f60576040516337462f3b60e11b815260040160405180910390fd5b60108190556006805461ff00191690556040518181527f7e9c09c1a583628741a9d9e67311f00c993bab376d57ce1e655cd77064407424906020015b60405180910390a150565b601454600103610fca576040516303cb96db60e21b815260040160405180910390fd5b6001601455610fd7611df2565b60065460ff1615610ffb57604051630306ad4760e31b815260040160405180910390fd5b600d546001600160a01b0316611024576040516314a6598960e21b815260040160405180910390fd5b60035415611045576040516372d2dd0b60e01b815260040160405180910390fd5b601054421080611065575060105442101580156110655750600b54600454105b156110835760405163cebeeca360e01b815260040160405180910390fd5b6008546005546000916110a491620f4240916108fd919062ffffff16611dc2565b9050858110806110b2575085155b156110d057604051631d5d2c9960e01b815260040160405180910390fd5b60007f00000000000000000000000000000000000000000000000000000000000000009050611179816001600160a01b031663b1d00df06040518163ffffffff1660e01b8152600401602060405180830381865afa158015611136573d6000803e3d6000fd5b505050506040513d601f19601f8201168201806040525081019061115a91906129fd565b600d54611172906001600160a01b03168a8a8a6116d9565b868661202a565b156111975760405163247d106d60e11b815260040160405180910390fd5b60008060006111a46108d5565b9250925092506000846001600160a01b031663017e7e586040518163ffffffff1660e01b8152600401602060405180830381865afa1580156111ea573d6000803e3d6000fd5b505050506040513d601f19601f8201168201806040525081019061120e91906129fd565b6011549091508b9085908c908c907f0000000000000000000000000000000000000000000000000000000000000000907f00000000000000000000000000000000000000000000000000000000000000009060009061128d9061127e90600160481b900462ffffff16600a6129d6565b6007546004546108fd91611dc2565b905060006112b0826112aa8a600554611dda90919063ffffffff16565b90611dda565b6005839055600d5460405163095ea7b360e01b81526001600160a01b039182166004820152602481018b90529192506000919085169063095ea7b3906044016020604051808303816000875af115801561130e573d6000803e3d6000fd5b505050506040513d601f19601f8201168201806040525081019061133291906128ba565b905080611352576040516306a92fdf60e01b815260040160405180910390fd5b61135a610e3a565b156113eb57600d546040516001600160a01b03909116908990611380908a908a90612a1a565b60006040518083038185875af1925050503d80600081146113bd576040519150601f19603f3d011682016040523d82523d6000602084013e6113c2565b606091505b505080915050806113e657604051631bfe902f60e11b815260040160405180910390fd5b611507565b600d5460405163095ea7b360e01b81526001600160a01b039182166004820152602481018a90529086169063095ea7b3906044016020604051808303816000875af115801561143e573d6000803e3d6000fd5b505050506040513d601f19601f8201168201806040525081019061146291906128ba565b905080611482576040516385dda44d60e01b815260040160405180910390fd5b600d546040516001600160a01b03909116906114a19089908990612a1a565b6000604051808303816000865af19150503d80600081146114de576040519150601f19603f3d011682016040523d82523d6000602084013e6114e3565b606091505b5050809150508061150757604051631bfe902f60e11b815260040160405180910390fd5b6115118a8c612089565b61153b7f00000000000000000000000000000000000000000000000000000000000000008d612089565b6115453383611b0f565b426003557f3b9ed2e2036d893039f3fc012eb65deeed17b8ff45cc2f5ba416296910c94e1533834260405161157c93929190612880565b60405180910390a1600d54604080513381526001600160a01b0390921660208301528181018b9052606082018a9052426080830152517f3579f62927f77888f0d41c632d9a2eff1914dc37b693733d1d7a70f92111ef989181900360a00190a150506000601455505050505050505050505050505050505050565b600061160560105442101590565b80156116145750600b54600454105b905090565b33600090815260126020526040812054819080820361164b57604051634daee0a960e11b815260040160405180910390fd5b6000611655610ca3565b9050806000036116785760405163cebeeca360e01b815260040160405180910390fd5b60006116a6620f42406108fd6004546108fd876116a088600554611dc290919063ffffffff16565b90611dc2565b9050600081156116ce57336000908152601360205260409020546116ca8382611dda565b9150505b909590945092505050565b60006117327f08523daf28ee17754671f39f9958942c4717267760901eea3e6ffd35005a72ea85878686604051602001611717959493929190612a2a565b604051602081830303815290604052805190602001206121ae565b95945050505050565b60145460010361175e576040516303cb96db60e21b815260040160405180910390fd5b600160145560035415611784576040516372d2dd0b60e01b815260040160405180910390fd5b60065460ff16156117a857604051630306ad4760e31b815260040160405180910390fd5b6006805460ff191660011790556117c76117bf3390565b600554611b0f565b6040514281527f8bf30e7ff26833413be5f69e1d373744864d600b664204b4a2f9844a8eedb9ed9060200160405180910390a17f46693e9d69e83400f28431bb5f4c82dbd15601770cb1e4ed7f0d805db9c5de78336005544260405161182f93929190612880565b60405180910390a16000601455565b600061184c600f5442101590565b8015611614575050601054421090565b611864611df2565b6001600160a01b0381166118c95760405162461bcd60e51b815260206004820152602660248201527f4f776e61626c653a206e6577206f776e657220697320746865207a65726f206160448201526564647265737360d01b6064820152608401610a7e565b6118d281611f36565b50565b6014546001036118f8576040516303cb96db60e21b815260040160405180910390fd5b6001601455611905611df2565b60065460ff161561192957604051630306ad4760e31b815260040160405180910390fd5b600d546001600160a01b031615611953576040516327189df160e21b815260040160405180910390fd5b61195b6115f7565b1561197957604051632901819f60e01b815260040160405180910390fd5b60105442108061198c5750600b54600454105b156119aa5760405163562523c960e11b815260040160405180910390fd5b600354156119cb576040516372d2dd0b60e01b815260040160405180910390fd5b60007f000000000000000000000000000000000000000000000000000000000000000090506000816001600160a01b031663017e7e586040518163ffffffff1660e01b8152600401602060405180830381865afa158015611a30573d6000803e3d6000fd5b505050506040513d601f19601f82011682018060405250810190611a5491906129fd565b90506000611a7b620f42406108fd61753062ffffff16600454611dc290919063ffffffff16565b90506000611a9482600454611dda90919063ffffffff16565b9050611aa08383612089565b611aca7f000000000000000000000000000000000000000000000000000000000000000082612089565b50504260035550506000601455565b6000602083511015611af557611aee836121db565b9050611b06565b81611b008482612b01565b5060ff90505b92915050565b90565b60405163a9059cbb60e01b81526001600160a01b038381166004830152602482018390527f00000000000000000000000000000000000000000000000000000000000000009160009183169063a9059cbb906044016020604051808303816000875af1158015611b83573d6000803e3d6000fd5b505050506040513d601f19601f82011682018060405250810190611ba791906128ba565b905080611bc757604051633b0ef58f60e21b815260040160405180910390fd5b50505050565b3360009081526012602052604081205490819003611bfe57604051634daee0a960e11b815260040160405180910390fd5b33600081815260126020526040812055611c189082612089565b60065460ff166118d257600454611c2f9082611dda565b6004557fa173b89e07e2dbd444e1ed177984a84d46231b8dda39ca48c731d081b853057c338242604051610f9c93929190612880565b3360009081526012602052604081205490819003611c9657604051634daee0a960e11b815260040160405180910390fd5b6000611cac620f42406108fd84620186a0611dc2565b336000908152601260205260408120819055909150611ccb8383611dda565b600454909150611cdb9084611dda565b60048190555060007f000000000000000000000000000000000000000000000000000000000000000090506000816001600160a01b031663017e7e586040518163ffffffff1660e01b8152600401602060405180830381865afa158015611d46573d6000803e3d6000fd5b505050506040513d601f19601f82011682018060405250810190611d6a91906129fd565b9050611d768185612089565b611d803384612089565b7fa173b89e07e2dbd444e1ed177984a84d46231b8dda39ca48c731d081b853057c338442604051611db393929190612880565b60405180910390a15050505050565b6000610d618284612bc1565b6000610d618284612bd8565b6000610d618284612bfa565b6000610d618284612c0d565b6000546001600160a01b03163314610e385760405162461bcd60e51b815260206004820181905260248201527f4f776e61626c653a2063616c6c6572206973206e6f7420746865206f776e65726044820152606401610a7e565b600060058190556040516370a0823160e01b81523060048201527f000000000000000000000000000000000000000000000000000000000000000091906001600160a01b038316906370a0823190602401602060405180830381865afa158015611eba573d6000803e3d6000fd5b505050506040513d601f19601f82011682018060405250810190611ede91906128a1565b905080600003611eec575050565b611ef533610809565b7f6e009f616e8c14332574b9402c3b56141f9648e275161c6b65823921e6bc8a323360055442604051611f2a93929190612880565b60405180910390a15050565b600080546001600160a01b038381166001600160a01b0319831681178455604051919092169283917f8be0079c531659141344cd1fd0a4f28419497f9722a3daafe3b4186f6b6457e09190a35050565b606060ff8314611f9957611aee83612219565b818054611fa590612a79565b80601f0160208091040260200160405190810160405280929190818152602001828054611fd190612a79565b801561201e5780601f10611ff35761010080835404028352916020019161201e565b820191906000526020600020905b81548152906001019060200180831161200157829003601f168201915b50505050509050611b06565b6000846001600160a01b03166120768585858080601f01602080910402602001604051908101604052809392919081815260200183838082843760009201919091525061225892505050565b6001600160a01b03161495945050505050565b6000612093610e3a565b156120f1576040516001600160a01b038416908390600081818185875af1925050503d80600081146120e1576040519150601f19603f3d011682016040523d82523d6000602084013e6120e6565b606091505b50508091505061218b565b60405163a9059cbb60e01b81526001600160a01b038481166004830152602482018490527f0000000000000000000000000000000000000000000000000000000000000000919082169063a9059cbb906044016020604051808303816000875af1158015612163573d6000803e3d6000fd5b505050506040513d601f19601f8201168201806040525081019061218791906128ba565b9150505b806121a957604051632901819f60e01b815260040160405180910390fd5b505050565b6000611b066121bb61227c565b8360405161190160f01b8152600281019290925260228201526042902090565b600080829050601f81511115612206578260405163305a27a960e01b8152600401610a7e9190612c20565b805161221182612c33565b179392505050565b60606000612226836123a7565b604080516020808252818301909252919250600091906020820181803683375050509182525060208101929092525090565b600080600061226785856123cf565b9150915061227481612411565b509392505050565b6000306001600160a01b037f0000000000000000000000000000000000000000000000000000000000000000161480156122d557507f000000000000000000000000000000000000000000000000000000000000000046145b156122ff57507f000000000000000000000000000000000000000000000000000000000000000090565b611614604080517f8b73c3c69bb8fe3d512ecc4cf759cc79239f7b179b0ffacaa9a75d522b39400f60208201527f0000000000000000000000000000000000000000000000000000000000000000918101919091527f000000000000000000000000000000000000000000000000000000000000000060608201524660808201523060a082015260009060c00160405160208183030381529060405280519060200120905090565b600060ff8216601f811115611b0657604051632cd44ac360e21b815260040160405180910390fd5b60008082516041036124055760208301516040840151606085015160001a6123f98782858561255b565b94509450505050610dda565b50600090506002610dda565b600081600481111561242557612425612c57565b0361242d5750565b600181600481111561244157612441612c57565b0361248e5760405162461bcd60e51b815260206004820152601860248201527f45434453413a20696e76616c6964207369676e617475726500000000000000006044820152606401610a7e565b60028160048111156124a2576124a2612c57565b036124ef5760405162461bcd60e51b815260206004820152601f60248201527f45434453413a20696e76616c6964207369676e6174757265206c656e677468006044820152606401610a7e565b600381600481111561250357612503612c57565b036118d25760405162461bcd60e51b815260206004820152602260248201527f45434453413a20696e76616c6964207369676e6174757265202773272076616c604482015261756560f01b6064820152608401610a7e565b6000807f7fffffffffffffffffffffffffffffff5d576e7357a4501ddfe92f46681b20a08311156125925750600090506003612616565b6040805160008082526020820180845289905260ff881692820192909252606081018690526080810185905260019060a0016020604051602081039080840390855afa1580156125e6573d6000803e3d6000fd5b5050604051601f1901519150506001600160a01b03811661260f57600060019250925050612616565b9150600090505b94509492505050565b6001600160a01b03811681146118d257600080fd5b60006020828403121561264657600080fd5b8135610d618161261f565b60006020828403121561266357600080fd5b5035919050565b6000806040838503121561267d57600080fd5b50508035926020909101359150565b6000815180845260005b818110156126b257602081850181015186830182015201612696565b506000602082860101526020601f19601f83011685010191505092915050565b60ff60f81b881681526000602060e0818401526126f260e084018a61268c565b8381036040850152612704818a61268c565b606085018990526001600160a01b038816608086015260a0850187905284810360c0860152855180825283870192509083019060005b818110156127565783518352928401929184019160010161273a565b50909c9b505050505050505050505050565b60008083601f84011261277a57600080fd5b50813567ffffffffffffffff81111561279257600080fd5b602083019150836020828501011115610dda57600080fd5b6000806000806000606086880312156127c257600080fd5b85359450602086013567ffffffffffffffff808211156127e157600080fd5b6127ed89838a01612768565b9096509450604088013591508082111561280657600080fd5b5061281388828901612768565b969995985093965092949392505050565b6000806000806060858703121561283a57600080fd5b84356128458161261f565b935060208501359250604085013567ffffffffffffffff81111561286857600080fd5b61287487828801612768565b95989497509550505050565b6001600160a01b039390931683526020830191909152604082015260600190565b6000602082840312156128b357600080fd5b5051919050565b6000602082840312156128cc57600080fd5b81518015158114610d6157600080fd5b634e487b7160e01b600052601160045260246000fd5b600181815b8085111561292d578160001904821115612913576129136128dc565b8085161561292057918102915b93841c93908002906128f7565b509250929050565b60008261294457506001611b06565b8161295157506000611b06565b816001811461296757600281146129715761298d565b6001915050611b06565b60ff841115612982576129826128dc565b50506001821b611b06565b5060208310610133831016604e8410600b84101617156129b0575081810a611b06565b6129ba83836128f2565b80600019048211156129ce576129ce6128dc565b029392505050565b6000610d6162ffffff841683612935565b634e487b7160e01b600052604160045260246000fd5b600060208284031215612a0f57600080fd5b8151610d618161261f565b8183823760009101908152919050565b858152602081018590526001600160a01b03841660408201526080606082018190528101829052818360a0830137600081830160a090810191909152601f909201601f19160101949350505050565b600181811c90821680612a8d57607f821691505b602082108103612aad57634e487b7160e01b600052602260045260246000fd5b50919050565b601f8211156121a957600081815260208120601f850160051c81016020861015612ada5750805b601f850160051c820191505b81811015612af957828155600101612ae6565b505050505050565b815167ffffffffffffffff811115612b1b57612b1b6129e7565b612b2f81612b298454612a79565b84612ab3565b602080601f831160018114612b645760008415612b4c5750858301515b600019600386901b1c1916600185901b178555612af9565b600085815260208120601f198616915b82811015612b9357888601518255948401946001909101908401612b74565b5085821015612bb15787850151600019600388901b60f8161c191681555b5050505050600190811b01905550565b8082028115828204841417611b0657611b066128dc565b600082612bf557634e487b7160e01b600052601260045260246000fd5b500490565b81810381811115611b0657611b066128dc565b80820180821115611b0657611b066128dc565b602081526000610d61602083018461268c565b80516020808301519190811015612aad5760001960209190910360031b1b16919050565b634e487b7160e01b600052602160045260246000fdfea264697066735822122040f8a207a2b4da2a3a4e7be9c07c7e223dd8320bd197de7a7d9cc7f0f45e656564736f6c63430008120033",
  "linkReferences": {},
  "deployedLinkReferences": {}
}