{
  "_format": "hh-sol-artifact-1",
  "contractName": "WESale",
  "sourceName": "contracts/WESale.sol",
  "abi": [
    {
      "inputs": [
        {
          "internalType": "string",
          "name": "_name",
          "type": "string"
        },
        {
          "internalType": "string",
          "name": "_version",
          "type": "string"
        },
        {
          "internalType": "address",
          "name": "_owner",
          "type": "address"
        },
        {
          "internalType": "address",
          "name": "_teamWallet",
          "type": "address"
        },
        {
          "internalType": "address",
          "name": "_presaleToken",
          "type": "address"
        },
        {
          "internalType": "address",
          "name": "_investToken",
          "type": "address"
        },
        {
          "internalType": "uint256",
          "name": "_deposit",
          "type": "uint256"
        },
        {
          "components": [
            {
              "internalType": "uint256",
              "name": "price",
              "type": "uint256"
            },
            {
              "internalType": "uint24",
              "name": "liquidityRate",
              "type": "uint24"
            },
            {
              "internalType": "uint256",
              "name": "minInvest",
              "type": "uint256"
            },
            {
              "internalType": "uint256",
              "name": "maxInvest",
              "type": "uint256"
            },
            {
              "internalType": "uint256",
              "name": "softCap",
              "type": "uint256"
            },
            {
              "internalType": "uint256",
              "name": "hardCap",
              "type": "uint256"
            },
            {
              "internalType": "address",
              "name": "router",
              "type": "address"
            },
            {
              "internalType": "uint256",
              "name": "dexInitPrice",
              "type": "uint256"
            },
            {
              "internalType": "uint256",
              "name": "startedAt",
              "type": "uint256"
            },
            {
              "internalType": "uint256",
              "name": "endedAt",
              "type": "uint256"
            },
            {
              "internalType": "uint24",
              "name": "firstRelease",
              "type": "uint24"
            },
            {
              "internalType": "uint24",
              "name": "cycle",
              "type": "uint24"
            },
            {
              "internalType": "uint24",
              "name": "cycleRelease",
              "type": "uint24"
            },
            {
              "internalType": "uint24",
              "name": "investTokenDecimals",
              "type": "uint24"
            }
          ],
          "internalType": "struct Parameters",
          "name": "_parameters",
          "type": "tuple"
        }
      ],
      "stateMutability": "nonpayable",
      "type": "constructor"
    },
    {
      "inputs": [],
      "name": "ClaimInvestError",
      "type": "error"
    },
    {
      "inputs": [],
      "name": "ClaimPresaleError",
      "type": "error"
    },
    {
      "inputs": [],
      "name": "DidNotMeetDivestmentRequirements",
      "type": "error"
    },
    {
      "inputs": [],
      "name": "GTMaximumInvestment",
      "type": "error"
    },
    {
      "inputs": [],
      "name": "IllegalOperation",
      "type": "error"
    },
    {
      "inputs": [],
      "name": "InsufficientAllowedInvestAmount",
      "type": "error"
    },
    {
      "inputs": [],
      "name": "InsufficientInvestBalance",
      "type": "error"
    },
    {
      "inputs": [
        {
          "internalType": "string",
          "name": "_origin",
          "type": "string"
        },
        {
          "internalType": "uint256",
          "name": "_num",
          "type": "uint256"
        }
      ],
      "name": "InvalidNumber",
      "type": "error"
    },
    {
      "inputs": [],
      "name": "InvalidShortString",
      "type": "error"
    },
    {
      "inputs": [],
      "name": "InvestmentClosed",
      "type": "error"
    },
    {
      "inputs": [],
      "name": "InvestmentIsNotClosed",
      "type": "error"
    },
    {
      "inputs": [],
      "name": "IsAnAutoListingLaunchPad",
      "type": "error"
    },
    {
      "inputs": [],
      "name": "LTMinimumInvestment",
      "type": "error"
    },
    {
      "inputs": [],
      "name": "Locked",
      "type": "error"
    },
    {
      "inputs": [],
      "name": "NotAnAutoListingLaunchPad",
      "type": "error"
    },
    {
      "inputs": [],
      "name": "PresaleNotCompleted",
      "type": "error"
    },
    {
      "inputs": [
        {
          "internalType": "string",
          "name": "str",
          "type": "string"
        }
      ],
      "name": "StringTooLong",
      "type": "error"
    },
    {
      "inputs": [],
      "name": "TransferAllowedInvestAmount",
      "type": "error"
    },
    {
      "inputs": [],
      "name": "TransferAllowedPresaleAmount",
      "type": "error"
    },
    {
      "inputs": [],
      "name": "TransferLiquidityFailed",
      "type": "error"
    },
    {
      "inputs": [],
      "name": "TransferLiquiditySignatureVerificationFailed",
      "type": "error"
    },
    {
      "anonymous": false,
      "inputs": [
        {
          "indexed": false,
          "internalType": "uint256",
          "name": "_timestamp",
          "type": "uint256"
        }
      ],
      "name": "Cancel",
      "type": "event"
    },
    {
      "anonymous": false,
      "inputs": [
        {
          "indexed": false,
          "internalType": "address",
          "name": "_sender",
          "type": "address"
        },
        {
          "indexed": false,
          "internalType": "uint256",
          "name": "_amount",
          "type": "uint256"
        },
        {
          "indexed": false,
          "internalType": "uint256",
          "name": "_timestamp",
          "type": "uint256"
        }
      ],
      "name": "CancelFounderReturn",
      "type": "event"
    },
    {
      "anonymous": false,
      "inputs": [
        {
          "indexed": false,
          "internalType": "address",
          "name": "_sender",
          "type": "address"
        },
        {
          "indexed": false,
          "internalType": "uint256",
          "name": "_amount",
          "type": "uint256"
        },
        {
          "indexed": false,
          "internalType": "uint256",
          "name": "_timestamp",
          "type": "uint256"
        }
      ],
      "name": "CancelReturn",
      "type": "event"
    },
    {
      "anonymous": false,
      "inputs": [
        {
          "indexed": false,
          "internalType": "address",
          "name": "_sender",
          "type": "address"
        },
        {
          "indexed": false,
          "internalType": "uint256",
          "name": "_amount",
          "type": "uint256"
        },
        {
          "indexed": false,
          "internalType": "uint256",
          "name": "_timestamp",
          "type": "uint256"
        }
      ],
      "name": "ClaimInvest",
      "type": "event"
    },
    {
      "anonymous": false,
      "inputs": [
        {
          "indexed": false,
          "internalType": "address",
          "name": "_sender",
          "type": "address"
        },
        {
          "indexed": false,
          "internalType": "uint256",
          "name": "_amount",
          "type": "uint256"
        },
        {
          "indexed": false,
          "internalType": "uint256",
          "name": "_timestamp",
          "type": "uint256"
        }
      ],
      "name": "ClaimPresale",
      "type": "event"
    },
    {
      "anonymous": false,
      "inputs": [],
      "name": "EIP712DomainChanged",
      "type": "event"
    },
    {
      "anonymous": false,
      "inputs": [
        {
          "indexed": false,
          "internalType": "address",
          "name": "_sender",
          "type": "address"
        },
        {
          "indexed": false,
          "internalType": "uint256",
          "name": "_amount",
          "type": "uint256"
        },
        {
          "indexed": false,
          "internalType": "uint256",
          "name": "_timestamp",
          "type": "uint256"
        }
      ],
      "name": "FounderDivest",
      "type": "event"
    },
    {
      "anonymous": false,
      "inputs": [
        {
          "indexed": false,
          "internalType": "address",
          "name": "_sender",
          "type": "address"
        },
        {
          "indexed": false,
          "internalType": "uint256",
          "name": "_amount",
          "type": "uint256"
        },
        {
          "indexed": false,
          "internalType": "uint256",
          "name": "_timestamp",
          "type": "uint256"
        }
      ],
      "name": "Invest",
      "type": "event"
    },
    {
      "anonymous": false,
      "inputs": [
        {
          "indexed": true,
          "internalType": "address",
          "name": "previousOwner",
          "type": "address"
        },
        {
          "indexed": true,
          "internalType": "address",
          "name": "newOwner",
          "type": "address"
        }
      ],
      "name": "OwnershipTransferred",
      "type": "event"
    },
    {
      "anonymous": false,
      "inputs": [
        {
          "indexed": false,
          "internalType": "address",
          "name": "_sender",
          "type": "address"
        },
        {
          "indexed": false,
          "internalType": "uint256",
          "name": "_amount",
          "type": "uint256"
        },
        {
          "indexed": false,
          "internalType": "uint256",
          "name": "_timestamp",
          "type": "uint256"
        }
      ],
      "name": "ParticipantDivest",
      "type": "event"
    },
    {
      "anonymous": false,
      "inputs": [
        {
          "indexed": false,
          "internalType": "address",
          "name": "_sender",
          "type": "address"
        },
        {
          "indexed": false,
          "internalType": "address",
          "name": "_router",
          "type": "address"
        },
        {
          "indexed": false,
          "internalType": "uint256",
          "name": "_amountA",
          "type": "uint256"
        },
        {
          "indexed": false,
          "internalType": "uint256",
          "name": "_amountB",
          "type": "uint256"
        },
        {
          "indexed": false,
          "internalType": "uint256",
          "name": "_timestamp",
          "type": "uint256"
        }
      ],
      "name": "TransferLP",
      "type": "event"
    },
    {
      "inputs": [],
      "name": "FEE",
      "outputs": [
        {
          "internalType": "uint24",
          "name": "",
          "type": "uint24"
        }
      ],
      "stateMutability": "view",
      "type": "function"
    },
    {
      "inputs": [],
      "name": "_isEnded",
      "outputs": [
        {
          "internalType": "bool",
          "name": "",
          "type": "bool"
        }
      ],
      "stateMutability": "view",
      "type": "function"
    },
    {
      "inputs": [],
      "name": "_isFailed",
      "outputs": [
        {
          "internalType": "bool",
          "name": "",
          "type": "bool"
        }
      ],
      "stateMutability": "view",
      "type": "function"
    },
    {
      "inputs": [],
      "name": "_isLive",
      "outputs": [
        {
          "internalType": "bool",
          "name": "",
          "type": "bool"
        }
      ],
      "stateMutability": "view",
      "type": "function"
    },
    {
      "inputs": [],
      "name": "_isNative",
      "outputs": [
        {
          "internalType": "bool",
          "name": "",
          "type": "bool"
        }
      ],
      "stateMutability": "view",
      "type": "function"
    },
    {
      "inputs": [],
      "name": "_isStarted",
      "outputs": [
        {
          "internalType": "bool",
          "name": "",
          "type": "bool"
        }
      ],
      "stateMutability": "view",
      "type": "function"
    },
    {
      "inputs": [],
      "name": "claimInvest",
      "outputs": [],
      "stateMutability": "nonpayable",
      "type": "function"
    },
    {
      "inputs": [],
      "name": "claimPresale",
      "outputs": [],
      "stateMutability": "nonpayable",
      "type": "function"
    },
    {
      "inputs": [],
      "name": "divest",
      "outputs": [],
      "stateMutability": "nonpayable",
      "type": "function"
    },
    {
      "inputs": [],
      "name": "eip712Domain",
      "outputs": [
        {
          "internalType": "bytes1",
          "name": "fields",
          "type": "bytes1"
        },
        {
          "internalType": "string",
          "name": "name",
          "type": "string"
        },
        {
          "internalType": "string",
          "name": "version",
          "type": "string"
        },
        {
          "internalType": "uint256",
          "name": "chainId",
          "type": "uint256"
        },
        {
          "internalType": "address",
          "name": "verifyingContract",
          "type": "address"
        },
        {
          "internalType": "bytes32",
          "name": "salt",
          "type": "bytes32"
        },
        {
          "internalType": "uint256[]",
          "name": "extensions",
          "type": "uint256[]"
        }
      ],
      "stateMutability": "view",
      "type": "function"
    },
    {
      "inputs": [],
      "name": "factory",
      "outputs": [
        {
          "internalType": "address",
          "name": "",
          "type": "address"
        }
      ],
      "stateMutability": "view",
      "type": "function"
    },
    {
      "inputs": [],
      "name": "founderDivest",
      "outputs": [],
      "stateMutability": "nonpayable",
      "type": "function"
    },
    {
      "inputs": [
        {
          "internalType": "uint256",
          "name": "presaleAmount",
          "type": "uint256"
        },
        {
          "internalType": "uint256",
          "name": "investAmount",
          "type": "uint256"
        }
      ],
      "name": "getAmount",
      "outputs": [
        {
          "internalType": "uint256",
          "name": "_presaleAmount",
          "type": "uint256"
        },
        {
          "internalType": "uint256",
          "name": "_investAmount",
          "type": "uint256"
        }
      ],
      "stateMutability": "view",
      "type": "function"
    },
    {
      "inputs": [
        {
          "internalType": "address",
          "name": "_router",
          "type": "address"
        },
        {
          "internalType": "uint256",
          "name": "_amountA",
          "type": "uint256"
        },
        {
          "internalType": "bytes",
          "name": "_data",
          "type": "bytes"
        }
      ],
      "name": "getHash",
      "outputs": [
        {
          "internalType": "bytes32",
          "name": "",
          "type": "bytes32"
        }
      ],
      "stateMutability": "view",
      "type": "function"
    },
    {
      "inputs": [
        {
          "internalType": "address",
          "name": "investor",
          "type": "address"
        }
      ],
      "name": "getInvestOf",
      "outputs": [
        {
          "internalType": "uint256",
          "name": "",
          "type": "uint256"
        }
      ],
      "stateMutability": "view",
      "type": "function"
    },
    {
      "inputs": [],
      "name": "getTotalReleased",
      "outputs": [
        {
          "internalType": "uint256",
          "name": "",
          "type": "uint256"
        }
      ],
      "stateMutability": "view",
      "type": "function"
    },
    {
      "inputs": [],
      "name": "getTransferLiquidityInvestAmount",
      "outputs": [
        {
          "internalType": "uint256",
          "name": "_investTransferLPAmount",
          "type": "uint256"
        },
        {
          "internalType": "uint256",
          "name": "_investTransferTeamAmount",
          "type": "uint256"
        },
        {
          "internalType": "uint256",
          "name": "_fee",
          "type": "uint256"
        }
      ],
      "stateMutability": "view",
      "type": "function"
    },
    {
      "inputs": [
        {
          "internalType": "uint256",
          "name": "investAmount",
          "type": "uint256"
        }
      ],
      "name": "invest",
      "outputs": [],
      "stateMutability": "payable",
      "type": "function"
    },
    {
      "inputs": [],
      "name": "investToken",
      "outputs": [
        {
          "internalType": "address",
          "name": "",
          "type": "address"
        }
      ],
      "stateMutability": "view",
      "type": "function"
    },
    {
      "inputs": [],
      "name": "owner",
      "outputs": [
        {
          "internalType": "address",
          "name": "",
          "type": "address"
        }
      ],
      "stateMutability": "view",
      "type": "function"
    },
    {
      "inputs": [],
      "name": "parameters",
      "outputs": [
        {
          "internalType": "uint256",
          "name": "price",
          "type": "uint256"
        },
        {
          "internalType": "uint24",
          "name": "liquidityRate",
          "type": "uint24"
        },
        {
          "internalType": "uint256",
          "name": "minInvest",
          "type": "uint256"
        },
        {
          "internalType": "uint256",
          "name": "maxInvest",
          "type": "uint256"
        },
        {
          "internalType": "uint256",
          "name": "softCap",
          "type": "uint256"
        },
        {
          "internalType": "uint256",
          "name": "hardCap",
          "type": "uint256"
        },
        {
          "internalType": "address",
          "name": "router",
          "type": "address"
        },
        {
          "internalType": "uint256",
          "name": "dexInitPrice",
          "type": "uint256"
        },
        {
          "internalType": "uint256",
          "name": "startedAt",
          "type": "uint256"
        },
        {
          "internalType": "uint256",
          "name": "endedAt",
          "type": "uint256"
        },
        {
          "internalType": "uint24",
          "name": "firstRelease",
          "type": "uint24"
        },
        {
          "internalType": "uint24",
          "name": "cycle",
          "type": "uint24"
        },
        {
          "internalType": "uint24",
          "name": "cycleRelease",
          "type": "uint24"
        },
        {
          "internalType": "uint24",
          "name": "investTokenDecimals",
          "type": "uint24"
        }
      ],
      "stateMutability": "view",
      "type": "function"
    },
    {
      "inputs": [],
      "name": "presaleToken",
      "outputs": [
        {
          "internalType": "address",
          "name": "",
          "type": "address"
        }
      ],
      "stateMutability": "view",
      "type": "function"
    },
    {
      "inputs": [],
      "name": "renounceOwnership",
      "outputs": [],
      "stateMutability": "nonpayable",
      "type": "function"
    },
    {
      "inputs": [],
      "name": "teamWallet",
      "outputs": [
        {
          "internalType": "address",
          "name": "",
          "type": "address"
        }
      ],
      "stateMutability": "view",
      "type": "function"
    },
    {
      "inputs": [],
      "name": "totalInvest",
      "outputs": [
        {
          "internalType": "uint256",
          "name": "",
          "type": "uint256"
        }
      ],
      "stateMutability": "view",
      "type": "function"
    },
    {
      "inputs": [],
      "name": "totalPresale",
      "outputs": [
        {
          "internalType": "uint256",
          "name": "",
          "type": "uint256"
        }
      ],
      "stateMutability": "view",
      "type": "function"
    },
    {
      "inputs": [
        {
          "internalType": "uint256",
          "name": "_amountA",
          "type": "uint256"
        },
        {
          "internalType": "bytes",
          "name": "_data",
          "type": "bytes"
        },
        {
          "internalType": "bytes",
          "name": "_signature",
          "type": "bytes"
        }
      ],
      "name": "transferLiquidity",
      "outputs": [],
      "stateMutability": "nonpayable",
      "type": "function"
    },
    {
      "inputs": [
        {
          "internalType": "address",
          "name": "newOwner",
          "type": "address"
        }
      ],
      "name": "transferOwnership",
      "outputs": [],
      "stateMutability": "nonpayable",
      "type": "function"
    },
    {
      "inputs": [],
      "name": "unlockedAt",
      "outputs": [
        {
          "internalType": "uint256",
          "name": "",
          "type": "uint256"
        }
      ],
      "stateMutability": "view",
      "type": "function"
    }
  ],
  "bytecode": "0x6101e060405260006013553480156200001757600080fd5b50604051620031b4380380620031b48339810160408190526200003a916200045f565b8787620000473362000246565b620000626001836200029660201b6200180d1790919060201c565b610120526200007f81600262000296602090811b6200180d17901c565b61014052815160208084019190912060e052815190820120610100524660a0526200010d60e05161010051604080517f8b73c3c69bb8fe3d512ecc4cf759cc79239f7b179b0ffacaa9a75d522b39400f60208201529081019290925260608201524660808201523060a082015260009060c00160405160208183030381529060405280519060200120905090565b60805250503060c052620001218662000246565b336001600160a01b039081166101609081529581166101c0529384166101809081529284166101a0908152600592909255805160065560208101516007805462ffffff92831662ffffff19909116179055604082015160085560608201516009556080820151600a5560a0820151600b5560c0820151600c8054919096166001600160a01b03199091161790945560e0810151600d55610100810151600e55610120810151600f556101408101516010805496830151948301519290930151851669010000000000000000000262ffffff60481b199286166601000000000000029290921665ffffffffffff60301b1994861663010000000265ffffffffffff19909716919095161794909417919091169190911791909117905550620007cb915050565b600080546001600160a01b038381166001600160a01b0319831681178455604051919092169283917f8be0079c531659141344cd1fd0a4f28419497f9722a3daafe3b4186f6b6457e09190a35050565b6000602083511015620002b657620002ae83620002e6565b9050620002e0565b82620002cd836200033260201b620018401760201c565b90620002da9082620006a5565b5060ff90505b92915050565b600080829050601f815111156200031d578260405163305a27a960e01b815260040162000314919062000771565b60405180910390fd5b80516200032a82620007a6565b179392505050565b90565b634e487b7160e01b600052604160045260246000fd5b6040516101c081016001600160401b038111828210171562000371576200037162000335565b60405290565b60005b83811015620003945781810151838201526020016200037a565b50506000910152565b600082601f830112620003af57600080fd5b81516001600160401b0380821115620003cc57620003cc62000335565b604051601f8301601f19908116603f01168101908282118183101715620003f757620003f762000335565b816040528381528660208588010111156200041157600080fd5b6200042484602083016020890162000377565b9695505050505050565b80516001600160a01b03811681146200044657600080fd5b919050565b805162ffffff811681146200044657600080fd5b600080600080600080600080888a036102a08112156200047e57600080fd5b89516001600160401b03808211156200049657600080fd5b620004a48d838e016200039d565b9a5060208c0151915080821115620004bb57600080fd5b50620004ca8c828d016200039d565b985050620004db60408b016200042e565b9650620004eb60608b016200042e565b9550620004fb60808b016200042e565b94506200050b60a08b016200042e565b935060c08a015192506101c060df19820112156200052857600080fd5b50620005336200034b565b60e08a01518152620005496101008b016200044b565b60208201526101208a01516040820152610140808b01516060830152610160808c01516080840152610180808d015160a08501526101a06200058d818f016200042e565b60c08601526101c08e015160e08601526101e08e01516101008601526102008e0151610120860152620005c46102208f016200044b565b84860152620005d76102408f016200044b565b83860152620005ea6102608f016200044b565b82860152620005fd6102808f016200044b565b8186015250505050809150509295985092959890939650565b600181811c908216806200062b57607f821691505b6020821081036200064c57634e487b7160e01b600052602260045260246000fd5b50919050565b601f821115620006a057600081815260208120601f850160051c810160208610156200067b5750805b601f850160051c820191505b818110156200069c5782815560010162000687565b5050505b505050565b81516001600160401b03811115620006c157620006c162000335565b620006d981620006d2845462000616565b8462000652565b602080601f831160018114620007115760008415620006f85750858301515b600019600386901b1c1916600185901b1785556200069c565b600085815260208120601f198616915b82811015620007425788860151825594840194600190910190840162000721565b5085821015620007615787850151600019600388901b60f8161c191681555b5050505050600190811b01905550565b60208152600082518060208401526200079281604085016020870162000377565b601f01601f19169190910160400192915050565b805160208083015191908110156200064c5760001960209190910360031b1b16919050565b60805160a05160c05160e05161010051610120516101405161016051610180516101a0516101c051612907620008ad6000396000818161034a0152818161139c015281816113f50152818161178201526117ca015260008181610567015281816109e401528181610d63015281816110a40152611d380152600081816102a1015281816110c60152818161188d0152611a400152600081816105b001528181610f5a01526116ac01526000610dc801526000610d9d01526000611f9801526000611f7001526000611ecb01526000611ef501526000611f1f01526129076000f3fe6080604052600436106101c15760003560e01c80637c07a710116100f7578063c3015b5211610095578063e231454111610064578063e231454114610614578063eb8addc214610634578063f2fde38b14610649578063fc2612c91461066957600080fd5b8063c3015b5214610589578063c45a01551461059e578063c57981b5146105d2578063d4974fe9146105fc57600080fd5b80638cb1e9c1116100d15780638cb1e9c1146105015780638da5cb5b14610517578063a1b356d414610535578063badf822b1461055557600080fd5b80637c07a710146103c257806384b0196e146103d757806389035730146103ff57600080fd5b80634b14c0ef116101645780635eaa17291161013e5780635eaa17291461036c578063616b40e3146103815780636bd3d40614610397578063715018a6146103ad57600080fd5b80634b14c0ef146102ee5780634ca9899714610303578063599270441461033857600080fd5b8063058aace1116101a0578063058aace11461024a57806316fbe6b41461025f57806324ffea1a1461028f5780632afcf480146102db57600080fd5b806240c766146101c65780630390c55e146101ef578063046ef9a514610233575b600080fd5b3480156101d257600080fd5b50600e544210155b60405190151581526020015b60405180910390f35b3480156101fb57600080fd5b5061022561020a366004612276565b6001600160a01b031660009081526011602052604090205490565b6040519081526020016101e6565b34801561023f57600080fd5b5061024861067e565b005b34801561025657600080fd5b506102486107bd565b34801561026b57600080fd5b50610274610838565b604080519384526020840192909252908201526060016101e6565b34801561029b57600080fd5b506102c37f000000000000000000000000000000000000000000000000000000000000000081565b6040516001600160a01b0390911681526020016101e6565b6102486102e9366004612293565b6108ac565b3480156102fa57600080fd5b50610225610bca565b34801561030f57600080fd5b5061032361031e3660046122ac565b610c8f565b604080519283526020830191909152016101e6565b34801561034457600080fd5b506102c37f000000000000000000000000000000000000000000000000000000000000000081565b34801561037857600080fd5b50610248610d08565b34801561038d57600080fd5b5061022560045481565b3480156103a357600080fd5b5061022560055481565b3480156103b957600080fd5b50610248610d4d565b3480156103ce57600080fd5b506101da610d61565b3480156103e357600080fd5b506103ec610d8f565b6040516101e69796959493929190612314565b34801561040b57600080fd5b50600654600754600854600954600a54600b54600c54600d54600e54600f546010546104729a9962ffffff90811699989796956001600160a01b031694939291808216916301000000820481169166010000000000008104821691600160481b909104168e565b6040516101e69e9d9c9b9a999897969594939291909d8e5262ffffff9c8d1660208f015260408e019b909b5260608d019990995260808c019790975260a08b01959095526001600160a01b039390931660c08a015260e0890191909152610100880152610120870152841661014086015283166101608501528216610180840152166101a08201526101c00190565b34801561050d57600080fd5b5061022560035481565b34801561052357600080fd5b506000546001600160a01b03166102c3565b34801561054157600080fd5b506102486105503660046123ec565b610e18565b34801561056157600080fd5b506102c37f000000000000000000000000000000000000000000000000000000000000000081565b34801561059557600080fd5b506101da6114db565b3480156105aa57600080fd5b506102c37f000000000000000000000000000000000000000000000000000000000000000081565b3480156105de57600080fd5b506105e861753081565b60405162ffffff90911681526020016101e6565b34801561060857600080fd5b50600f544210156101da565b34801561062057600080fd5b5061022561062f366004612466565b6114fd565b34801561064057600080fd5b506101da61155f565b34801561065557600080fd5b50610248610664366004612276565b61157d565b34801561067557600080fd5b506102486115f6565b6013546001036106a1576040516303cb96db60e21b815260040160405180910390fd5b600160135533600090815260116020526040812054908190036106d757604051634daee0a960e11b815260040160405180910390fd5b60006106e1610bca565b9050806000036107045760405163cebeeca360e01b815260040160405180910390fd5b600061072c620f4240610726600454610726878761184390919063ffffffff16565b9061184f565b905080156107b357336000908152601260205260408120549061074f838361185b565b905080156107b057336000818152601260205260409020849055610774905b82611867565b7f3b9ed2e2036d893039f3fc012eb65deeed17b8ff45cc2f5ba416296910c94e153382426040516107a7939291906124c2565b60405180910390a15b50505b5050600060135550565b6013546001036107e0576040516303cb96db60e21b815260040160405180910390fd5b6001601355600a5460045410806108065750600f54421080156108065750600b54600454105b1561081857610813611925565b610831565b604051638b160bd360e01b815260040160405180910390fd5b6000601355565b6000806000610860620f424061072661753062ffffff1660045461184390919063ffffffff16565b905060006108798260045461185b90919063ffffffff16565b60075490915061089890620f42409061072690849062ffffff16611843565b93506108a4818561185b565b925050909192565b6013546001036108cf576040516303cb96db60e21b815260040160405180910390fd5b6001601355600454600b54036108f85760405163319420eb60e01b815260040160405180910390fd5b60085481101561091b576040516351594acf60e11b815260040160405180910390fd5b60095481111561093e576040516304334aa360e51b815260040160405180910390fd5b60045461094c9082906119be565b600b5410156109925760408051632c4a292d60e21b81526004810191909152600360448201526241494160e81b6064820152602481018290526084015b60405180910390fd5b61099a610d61565b156109e2573481146109dd5760408051632c4a292d60e21b8152600481019190915260036044820152624e494160e81b6064820152346024820152608401610989565b610b4d565b7f000000000000000000000000000000000000000000000000000000000000000030826001600160a01b03831663dd62ed3e336040516001600160e01b031960e084901b1681526001600160a01b0391821660048201529085166024820152604401602060405180830381865afa158015610a61573d6000803e3d6000fd5b505050506040513d601f19601f82011682018060405250810190610a8591906124e3565b1015610aa45760405163259dbadf60e01b815260040160405180910390fd5b6001600160a01b0382166323b872dd336040516001600160e01b031960e084901b1681526001600160a01b0391821660048201529084166024820152604481018690526064016020604051808303816000875af1158015610b09573d6000803e3d6000fd5b505050506040513d601f19601f82011682018060405250810190610b2d91906124fc565b610b4a57604051634daee0a960e11b815260040160405180910390fd5b50505b33600090815260116020526040902054610b6790826119be565b33600090815260116020526040902055600454610b8490826119be565b6004557f4ae4bd7655e0d350876a23cd90c4227b13db560e34435c6a488150a9c844bf5f338242604051610bba939291906124c2565b60405180910390a1506000601355565b600060035460001480610bde575060035442105b15610be95750600090565b600080610c016003544261185b90919063ffffffff16565b6010549091506301000000900462ffffff16811115610c3757601054610c349082906301000000900462ffffff1661184f565b91505b60105462ffffff168215610c7157601054610c6e908290610c689086906601000000000000900462ffffff16611843565b906119be565b90505b620f4240811115610c8857620f4240935050505090565b9392505050565b6000808315610ccc57600654601054610cc5919061072690610cbe90600160481b900462ffffff16600a612618565b8790611843565b9250610cfb565b601054610cf890610cea90600160481b900462ffffff16600a612618565b600654610726908690611843565b93505b50829050815b9250929050565b601354600103610d2b576040516303cb96db60e21b815260040160405180910390fd5b6001601355610d386119ca565b610d406114db565b1561081857610813611a24565b610d556119ca565b610d5f6000611b0e565b565b7f00000000000000000000000000000000000000000000000000000000000000006001600160a01b03161590565b600060608082808083610dc37f00000000000000000000000000000000000000000000000000000000000000006001611b5e565b610dee7f00000000000000000000000000000000000000000000000000000000000000006002611b5e565b60408051600080825260208201909252600f60f81b9b939a50919850469750309650945092509050565b601354600103610e3b576040516303cb96db60e21b815260040160405180910390fd5b6001601355610e486119ca565b600c546001600160a01b0316610e71576040516314a6598960e21b815260040160405180910390fd5b600a546004541080610e925750600b54600454108015610e925750600f5442105b15610eb05760405163cebeeca360e01b815260040160405180910390fd5b600754600554600091610ed191620f424091610726919062ffffff16611843565b9050610f006040518060400160405280600b81526020016a036b0bc20b6b7bab73a1d160ad1b81525082611c02565b610f2c6040518060400160405280600a81526020016902fb0b6b7bab73a209d160b51b81525087611c02565b85811080610f38575085155b15610f5657604051631d5d2c9960e01b815260040160405180910390fd5b60007f00000000000000000000000000000000000000000000000000000000000000009050610fff816001600160a01b031663b1d00df06040518163ffffffff1660e01b8152600401602060405180830381865afa158015610fbc573d6000803e3d6000fd5b505050506040513d601f19601f82011682018060405250810190610fe0919061263f565b600c54610ff8906001600160a01b03168a8a8a6114fd565b8686611c4b565b1561101d5760405163247d106d60e11b815260040160405180910390fd5b600080600061102a610838565b9250925092506000846001600160a01b031663017e7e586040518163ffffffff1660e01b8152600401602060405180830381865afa158015611070573d6000803e3d6000fd5b505050506040513d601f19601f82011682018060405250810190611094919061263f565b6010549091508b9085908c908c907f0000000000000000000000000000000000000000000000000000000000000000907f0000000000000000000000000000000000000000000000000000000000000000906000906111139061110490600160481b900462ffffff16600a612618565b60065460045461072691611843565b90506000611136826111308a60055461185b90919063ffffffff16565b9061185b565b6005839055600c5460405163095ea7b360e01b81526001600160a01b039182166004820152602481018b90529192506000919085169063095ea7b3906044016020604051808303816000875af1158015611194573d6000803e3d6000fd5b505050506040513d601f19601f820116820180604052508101906111b891906124fc565b9050806111d8576040516306a92fdf60e01b815260040160405180910390fd5b6111e0610d61565b1561127157600c546040516001600160a01b03909116908990611206908a908a9061265c565b60006040518083038185875af1925050503d8060008114611243576040519150601f19603f3d011682016040523d82523d6000602084013e611248565b606091505b5050809150508061126c57604051631bfe902f60e11b815260040160405180910390fd5b61138d565b600c5460405163095ea7b360e01b81526001600160a01b039182166004820152602481018a90529086169063095ea7b3906044016020604051808303816000875af11580156112c4573d6000803e3d6000fd5b505050506040513d601f19601f820116820180604052508101906112e891906124fc565b905080611308576040516385dda44d60e01b815260040160405180910390fd5b600c546040516001600160a01b0390911690611327908990899061265c565b6000604051808303816000865af19150503d8060008114611364576040519150601f19603f3d011682016040523d82523d6000602084013e611369565b606091505b5050809150508061138d57604051631bfe902f60e11b815260040160405180910390fd5b6113978a8c611caa565b6113c17f00000000000000000000000000000000000000000000000000000000000000008d611caa565b6113cb3383611867565b426003819055507f22a3f5b3c912571a13d0d6f19711381d887cb4dcb2f6f7aa57de664d42a09de07f00000000000000000000000000000000000000000000000000000000000000008d42604051611425939291906124c2565b60405180910390a17f3b9ed2e2036d893039f3fc012eb65deeed17b8ff45cc2f5ba416296910c94e15338342604051611460939291906124c2565b60405180910390a1600c54604080513381526001600160a01b0390921660208301528181018b9052606082018a9052426080830152517f3579f62927f77888f0d41c632d9a2eff1914dc37b693733d1d7a70f92111ef989181900360a00190a150506000601355505050505050505050505050505050505050565b60006114e9600f5442101590565b80156114f85750600a54600454105b905090565b60006115567f08523daf28ee17754671f39f9958942c4717267760901eea3e6ffd35005a72ea8587868660405160200161153b95949392919061266c565b60405160208183030381529060405280519060200120611dcf565b95945050505050565b600061156d600e5442101590565b80156114f8575050600f54421090565b6115856119ca565b6001600160a01b0381166115ea5760405162461bcd60e51b815260206004820152602660248201527f4f776e61626c653a206e6577206f776e657220697320746865207a65726f206160448201526564647265737360d01b6064820152608401610989565b6115f381611b0e565b50565b601354600103611619576040516303cb96db60e21b815260040160405180910390fd5b60016013556116266119ca565b600c546001600160a01b031615611650576040516327189df160e21b815260040160405180910390fd5b6116586114db565b1561167657604051632901819f60e01b815260040160405180910390fd5b600f5442108061168a5750600b5460045414155b156116a85760405163562523c960e11b815260040160405180910390fd5b60007f000000000000000000000000000000000000000000000000000000000000000090506000816001600160a01b031663017e7e586040518163ffffffff1660e01b8152600401602060405180830381865afa15801561170d573d6000803e3d6000fd5b505050506040513d601f19601f82011682018060405250810190611731919061263f565b90506000611758620f424061072661753062ffffff1660045461184390919063ffffffff16565b905060006117718260045461185b90919063ffffffff16565b905061177d8383611caa565b6117a77f000000000000000000000000000000000000000000000000000000000000000082611caa565b7f22a3f5b3c912571a13d0d6f19711381d887cb4dcb2f6f7aa57de664d42a09de07f000000000000000000000000000000000000000000000000000000000000000082426040516117fa939291906124c2565b60405180910390a1505060006013555050565b60006020835110156118295761182283611dfc565b905061183a565b816118348482612743565b5060ff90505b92915050565b90565b6000610c888284612803565b6000610c88828461281a565b6000610c88828461283c565b60405163a9059cbb60e01b81526001600160a01b038381166004830152602482018390527f00000000000000000000000000000000000000000000000000000000000000009160009183169063a9059cbb906044016020604051808303816000875af11580156118db573d6000803e3d6000fd5b505050506040513d601f19601f820116820180604052508101906118ff91906124fc565b90508061191f57604051633b0ef58f60e21b815260040160405180910390fd5b50505050565b336000908152601160205260408120549081900361195657604051634daee0a960e11b815260040160405180910390fd5b33600090815260116020526040812055600454611973908261185b565b6004556119803382611caa565b7fa173b89e07e2dbd444e1ed177984a84d46231b8dda39ca48c731d081b853057c3382426040516119b3939291906124c2565b60405180910390a150565b6000610c88828461284f565b6000546001600160a01b03163314610d5f5760405162461bcd60e51b815260206004820181905260248201527f4f776e61626c653a2063616c6c6572206973206e6f7420746865206f776e65726044820152606401610989565b600060058190556040516370a0823160e01b81523060048201527f000000000000000000000000000000000000000000000000000000000000000091906001600160a01b038316906370a0823190602401602060405180830381865afa158015611a92573d6000803e3d6000fd5b505050506040513d601f19601f82011682018060405250810190611ab691906124e3565b905080600003611ac4575050565b611acd3361076e565b7f6e009f616e8c14332574b9402c3b56141f9648e275161c6b65823921e6bc8a323360055442604051611b02939291906124c2565b60405180910390a15050565b600080546001600160a01b038381166001600160a01b0319831681178455604051919092169283917f8be0079c531659141344cd1fd0a4f28419497f9722a3daafe3b4186f6b6457e09190a35050565b606060ff8314611b715761182283611e3a565b818054611b7d906126bb565b80601f0160208091040260200160405190810160405280929190818152602001828054611ba9906126bb565b8015611bf65780601f10611bcb57610100808354040283529160200191611bf6565b820191906000526020600020905b815481529060010190602001808311611bd957829003601f168201915b5050505050905061183a565b611c478282604051602401611c18929190612862565b60408051601f198184030181529190526020810180516001600160e01b0316632d839cb360e21b179052611e79565b5050565b6000846001600160a01b0316611c978585858080601f016020809104026020016040519081016040528093929190818152602001838380828437600092019190915250611e9a92505050565b6001600160a01b03161495945050505050565b6000611cb4610d61565b15611d12576040516001600160a01b038416908390600081818185875af1925050503d8060008114611d02576040519150601f19603f3d011682016040523d82523d6000602084013e611d07565b606091505b505080915050611dac565b60405163a9059cbb60e01b81526001600160a01b038481166004830152602482018490527f0000000000000000000000000000000000000000000000000000000000000000919082169063a9059cbb906044016020604051808303816000875af1158015611d84573d6000803e3d6000fd5b505050506040513d601f19601f82011682018060405250810190611da891906124fc565b9150505b80611dca57604051632901819f60e01b815260040160405180910390fd5b505050565b600061183a611ddc611ebe565b8360405161190160f01b8152600281019290925260228201526042902090565b600080829050601f81511115611e27578260405163305a27a960e01b81526004016109899190612884565b8051611e3282612897565b179392505050565b60606000611e4783611fe9565b604080516020808252818301909252919250600091906020820181803683375050509182525060208101929092525090565b80516a636f6e736f6c652e6c6f67602083016000808483855afa5050505050565b6000806000611ea98585612011565b91509150611eb681612053565b509392505050565b6000306001600160a01b037f000000000000000000000000000000000000000000000000000000000000000016148015611f1757507f000000000000000000000000000000000000000000000000000000000000000046145b15611f4157507f000000000000000000000000000000000000000000000000000000000000000090565b6114f8604080517f8b73c3c69bb8fe3d512ecc4cf759cc79239f7b179b0ffacaa9a75d522b39400f60208201527f0000000000000000000000000000000000000000000000000000000000000000918101919091527f000000000000000000000000000000000000000000000000000000000000000060608201524660808201523060a082015260009060c00160405160208183030381529060405280519060200120905090565b600060ff8216601f81111561183a57604051632cd44ac360e21b815260040160405180910390fd5b60008082516041036120475760208301516040840151606085015160001a61203b8782858561219d565b94509450505050610d01565b50600090506002610d01565b6000816004811115612067576120676128bb565b0361206f5750565b6001816004811115612083576120836128bb565b036120d05760405162461bcd60e51b815260206004820152601860248201527f45434453413a20696e76616c6964207369676e617475726500000000000000006044820152606401610989565b60028160048111156120e4576120e46128bb565b036121315760405162461bcd60e51b815260206004820152601f60248201527f45434453413a20696e76616c6964207369676e6174757265206c656e677468006044820152606401610989565b6003816004811115612145576121456128bb565b036115f35760405162461bcd60e51b815260206004820152602260248201527f45434453413a20696e76616c6964207369676e6174757265202773272076616c604482015261756560f01b6064820152608401610989565b6000807f7fffffffffffffffffffffffffffffff5d576e7357a4501ddfe92f46681b20a08311156121d45750600090506003612258565b6040805160008082526020820180845289905260ff881692820192909252606081018690526080810185905260019060a0016020604051602081039080840390855afa158015612228573d6000803e3d6000fd5b5050604051601f1901519150506001600160a01b03811661225157600060019250925050612258565b9150600090505b94509492505050565b6001600160a01b03811681146115f357600080fd5b60006020828403121561228857600080fd5b8135610c8881612261565b6000602082840312156122a557600080fd5b5035919050565b600080604083850312156122bf57600080fd5b50508035926020909101359150565b6000815180845260005b818110156122f4576020818501810151868301820152016122d8565b506000602082860101526020601f19601f83011685010191505092915050565b60ff60f81b881681526000602060e08184015261233460e084018a6122ce565b8381036040850152612346818a6122ce565b606085018990526001600160a01b038816608086015260a0850187905284810360c0860152855180825283870192509083019060005b818110156123985783518352928401929184019160010161237c565b50909c9b505050505050505050505050565b60008083601f8401126123bc57600080fd5b50813567ffffffffffffffff8111156123d457600080fd5b602083019150836020828501011115610d0157600080fd5b60008060008060006060868803121561240457600080fd5b85359450602086013567ffffffffffffffff8082111561242357600080fd5b61242f89838a016123aa565b9096509450604088013591508082111561244857600080fd5b50612455888289016123aa565b969995985093965092949392505050565b6000806000806060858703121561247c57600080fd5b843561248781612261565b935060208501359250604085013567ffffffffffffffff8111156124aa57600080fd5b6124b6878288016123aa565b95989497509550505050565b6001600160a01b039390931683526020830191909152604082015260600190565b6000602082840312156124f557600080fd5b5051919050565b60006020828403121561250e57600080fd5b81518015158114610c8857600080fd5b634e487b7160e01b600052601160045260246000fd5b600181815b8085111561256f5781600019048211156125555761255561251e565b8085161561256257918102915b93841c9390800290612539565b509250929050565b6000826125865750600161183a565b816125935750600061183a565b81600181146125a957600281146125b3576125cf565b600191505061183a565b60ff8411156125c4576125c461251e565b50506001821b61183a565b5060208310610133831016604e8410600b84101617156125f2575081810a61183a565b6125fc8383612534565b80600019048211156126105761261061251e565b029392505050565b6000610c8862ffffff841683612577565b634e487b7160e01b600052604160045260246000fd5b60006020828403121561265157600080fd5b8151610c8881612261565b8183823760009101908152919050565b858152602081018590526001600160a01b03841660408201526080606082018190528101829052818360a0830137600081830160a090810191909152601f909201601f19160101949350505050565b600181811c908216806126cf57607f821691505b6020821081036126ef57634e487b7160e01b600052602260045260246000fd5b50919050565b601f821115611dca57600081815260208120601f850160051c8101602086101561271c5750805b601f850160051c820191505b8181101561273b57828155600101612728565b505050505050565b815167ffffffffffffffff81111561275d5761275d612629565b6127718161276b84546126bb565b846126f5565b602080601f8311600181146127a6576000841561278e5750858301515b600019600386901b1c1916600185901b17855561273b565b600085815260208120601f198616915b828110156127d5578886015182559484019460019091019084016127b6565b50858210156127f35787850151600019600388901b60f8161c191681555b5050505050600190811b01905550565b808202811582820484141761183a5761183a61251e565b60008261283757634e487b7160e01b600052601260045260246000fd5b500490565b8181038181111561183a5761183a61251e565b8082018082111561183a5761183a61251e565b60408152600061287560408301856122ce565b90508260208301529392505050565b602081526000610c8860208301846122ce565b805160208083015191908110156126ef5760001960209190910360031b1b16919050565b634e487b7160e01b600052602160045260246000fdfea2646970667358221220dc9232a1bfe425fd93c7df401887a96aba456621fc4312cef8ae421f5a09c3f764736f6c63430008120033",
  "linkReferences": {},
  "deployedLinkReferences": {}
}