{
  "_format": "hh-sol-artifact-1",
  "contractName": "WESale",
  "sourceName": "contracts/WESale.sol",
  "abi": [
    {
      "inputs": [
        {
          "internalType": "string",
          "name": "_name",
          "type": "string"
        },
        {
          "internalType": "string",
          "name": "_version",
          "type": "string"
        },
        {
          "internalType": "address",
          "name": "_owner",
          "type": "address"
        },
        {
          "internalType": "address",
          "name": "_teamWallet",
          "type": "address"
        },
        {
          "internalType": "address",
          "name": "_presaleToken",
          "type": "address"
        },
        {
          "internalType": "address",
          "name": "_investToken",
          "type": "address"
        },
        {
          "internalType": "uint256",
          "name": "_deposit",
          "type": "uint256"
        },
        {
          "components": [
            {
              "internalType": "uint256",
              "name": "price",
              "type": "uint256"
            },
            {
              "internalType": "uint24",
              "name": "liquidityRate",
              "type": "uint24"
            },
            {
              "internalType": "uint256",
              "name": "minInvest",
              "type": "uint256"
            },
            {
              "internalType": "uint256",
              "name": "maxInvest",
              "type": "uint256"
            },
            {
              "internalType": "uint256",
              "name": "softCap",
              "type": "uint256"
            },
            {
              "internalType": "uint256",
              "name": "hardCap",
              "type": "uint256"
            },
            {
              "internalType": "address",
              "name": "router",
              "type": "address"
            },
            {
              "internalType": "uint256",
              "name": "dexInitPrice",
              "type": "uint256"
            },
            {
              "internalType": "uint256",
              "name": "startedAt",
              "type": "uint256"
            },
            {
              "internalType": "uint256",
              "name": "endedAt",
              "type": "uint256"
            },
            {
              "internalType": "uint24",
              "name": "firstRelease",
              "type": "uint24"
            },
            {
              "internalType": "uint24",
              "name": "cycle",
              "type": "uint24"
            },
            {
              "internalType": "uint24",
              "name": "cycleRelease",
              "type": "uint24"
            },
            {
              "internalType": "uint24",
              "name": "investTokenDecimals",
              "type": "uint24"
            }
          ],
          "internalType": "struct Parameters",
          "name": "_parameters",
          "type": "tuple"
        }
      ],
      "stateMutability": "nonpayable",
      "type": "constructor"
    },
    {
      "inputs": [],
      "name": "ClaimInvestError",
      "type": "error"
    },
    {
      "inputs": [],
      "name": "ClaimPresaleError",
      "type": "error"
    },
    {
      "inputs": [],
      "name": "DidNotMeetDivestmentRequirements",
      "type": "error"
    },
    {
      "inputs": [],
      "name": "GTMaximumInvestment",
      "type": "error"
    },
    {
      "inputs": [],
      "name": "HasBeenCanceled",
      "type": "error"
    },
    {
      "inputs": [],
      "name": "IllegalOperation",
      "type": "error"
    },
    {
      "inputs": [],
      "name": "InsufficientAllowedInvestAmount",
      "type": "error"
    },
    {
      "inputs": [],
      "name": "InsufficientInvestBalance",
      "type": "error"
    },
    {
      "inputs": [
        {
          "internalType": "string",
          "name": "_origin",
          "type": "string"
        },
        {
          "internalType": "uint256",
          "name": "_num",
          "type": "uint256"
        }
      ],
      "name": "InvalidNumber",
      "type": "error"
    },
    {
      "inputs": [],
      "name": "InvalidShortString",
      "type": "error"
    },
    {
      "inputs": [],
      "name": "InvestmentClosed",
      "type": "error"
    },
    {
      "inputs": [],
      "name": "InvestmentIsNotClosed",
      "type": "error"
    },
    {
      "inputs": [],
      "name": "IsAnAutoListingLaunchPad",
      "type": "error"
    },
    {
      "inputs": [],
      "name": "LTMinimumInvestment",
      "type": "error"
    },
    {
      "inputs": [],
      "name": "Locked",
      "type": "error"
    },
    {
      "inputs": [],
      "name": "NotAnAutoListingLaunchPad",
      "type": "error"
    },
    {
      "inputs": [],
      "name": "PresaleNotCompleted",
      "type": "error"
    },
    {
      "inputs": [],
      "name": "SaleCompleted",
      "type": "error"
    },
    {
      "inputs": [
        {
          "internalType": "string",
          "name": "str",
          "type": "string"
        }
      ],
      "name": "StringTooLong",
      "type": "error"
    },
    {
      "inputs": [],
      "name": "TransferAllowedInvestAmount",
      "type": "error"
    },
    {
      "inputs": [],
      "name": "TransferAllowedPresaleAmount",
      "type": "error"
    },
    {
      "inputs": [],
      "name": "TransferLiquidityFailed",
      "type": "error"
    },
    {
      "inputs": [],
      "name": "TransferLiquiditySignatureVerificationFailed",
      "type": "error"
    },
    {
      "anonymous": false,
      "inputs": [
        {
          "indexed": false,
          "internalType": "uint256",
          "name": "_timestamp",
          "type": "uint256"
        }
      ],
      "name": "Cancel",
      "type": "event"
    },
    {
      "anonymous": false,
      "inputs": [
        {
          "indexed": false,
          "internalType": "address",
          "name": "_sender",
          "type": "address"
        },
        {
          "indexed": false,
          "internalType": "uint256",
          "name": "_amount",
          "type": "uint256"
        },
        {
          "indexed": false,
          "internalType": "uint256",
          "name": "_timestamp",
          "type": "uint256"
        }
      ],
      "name": "CancelFounderReturn",
      "type": "event"
    },
    {
      "anonymous": false,
      "inputs": [
        {
          "indexed": false,
          "internalType": "address",
          "name": "_sender",
          "type": "address"
        },
        {
          "indexed": false,
          "internalType": "uint256",
          "name": "_amount",
          "type": "uint256"
        },
        {
          "indexed": false,
          "internalType": "uint256",
          "name": "_timestamp",
          "type": "uint256"
        }
      ],
      "name": "CancelReturn",
      "type": "event"
    },
    {
      "anonymous": false,
      "inputs": [
        {
          "indexed": false,
          "internalType": "address",
          "name": "_sender",
          "type": "address"
        },
        {
          "indexed": false,
          "internalType": "uint256",
          "name": "_amount",
          "type": "uint256"
        },
        {
          "indexed": false,
          "internalType": "uint256",
          "name": "_timestamp",
          "type": "uint256"
        }
      ],
      "name": "ClaimInvest",
      "type": "event"
    },
    {
      "anonymous": false,
      "inputs": [
        {
          "indexed": false,
          "internalType": "address",
          "name": "_sender",
          "type": "address"
        },
        {
          "indexed": false,
          "internalType": "uint256",
          "name": "_amount",
          "type": "uint256"
        },
        {
          "indexed": false,
          "internalType": "uint256",
          "name": "_timestamp",
          "type": "uint256"
        }
      ],
      "name": "ClaimPresale",
      "type": "event"
    },
    {
      "anonymous": false,
      "inputs": [],
      "name": "EIP712DomainChanged",
      "type": "event"
    },
    {
      "anonymous": false,
      "inputs": [
        {
          "indexed": false,
          "internalType": "address",
          "name": "_sender",
          "type": "address"
        },
        {
          "indexed": false,
          "internalType": "uint256",
          "name": "_amount",
          "type": "uint256"
        },
        {
          "indexed": false,
          "internalType": "uint256",
          "name": "_timestamp",
          "type": "uint256"
        }
      ],
      "name": "FounderDivest",
      "type": "event"
    },
    {
      "anonymous": false,
      "inputs": [
        {
          "indexed": false,
          "internalType": "address",
          "name": "_sender",
          "type": "address"
        },
        {
          "indexed": false,
          "internalType": "uint256",
          "name": "_amount",
          "type": "uint256"
        },
        {
          "indexed": false,
          "internalType": "uint256",
          "name": "_timestamp",
          "type": "uint256"
        }
      ],
      "name": "Invest",
      "type": "event"
    },
    {
      "anonymous": false,
      "inputs": [
        {
          "indexed": true,
          "internalType": "address",
          "name": "previousOwner",
          "type": "address"
        },
        {
          "indexed": true,
          "internalType": "address",
          "name": "newOwner",
          "type": "address"
        }
      ],
      "name": "OwnershipTransferred",
      "type": "event"
    },
    {
      "anonymous": false,
      "inputs": [
        {
          "indexed": false,
          "internalType": "address",
          "name": "_sender",
          "type": "address"
        },
        {
          "indexed": false,
          "internalType": "uint256",
          "name": "_amount",
          "type": "uint256"
        },
        {
          "indexed": false,
          "internalType": "uint256",
          "name": "_timestamp",
          "type": "uint256"
        }
      ],
      "name": "ParticipantDivest",
      "type": "event"
    },
    {
      "anonymous": false,
      "inputs": [
        {
          "indexed": false,
          "internalType": "address",
          "name": "_sender",
          "type": "address"
        },
        {
          "indexed": false,
          "internalType": "address",
          "name": "_router",
          "type": "address"
        },
        {
          "indexed": false,
          "internalType": "uint256",
          "name": "_amountA",
          "type": "uint256"
        },
        {
          "indexed": false,
          "internalType": "uint256",
          "name": "_amountB",
          "type": "uint256"
        },
        {
          "indexed": false,
          "internalType": "uint256",
          "name": "_timestamp",
          "type": "uint256"
        }
      ],
      "name": "TransferLP",
      "type": "event"
    },
    {
      "inputs": [],
      "name": "FEE",
      "outputs": [
        {
          "internalType": "uint24",
          "name": "",
          "type": "uint24"
        }
      ],
      "stateMutability": "view",
      "type": "function"
    },
    {
      "inputs": [],
      "name": "URGENT_DIVEST_FEE",
      "outputs": [
        {
          "internalType": "uint24",
          "name": "",
          "type": "uint24"
        }
      ],
      "stateMutability": "view",
      "type": "function"
    },
    {
      "inputs": [],
      "name": "_isEnded",
      "outputs": [
        {
          "internalType": "bool",
          "name": "",
          "type": "bool"
        }
      ],
      "stateMutability": "view",
      "type": "function"
    },
    {
      "inputs": [],
      "name": "_isFailed",
      "outputs": [
        {
          "internalType": "bool",
          "name": "",
          "type": "bool"
        }
      ],
      "stateMutability": "view",
      "type": "function"
    },
    {
      "inputs": [],
      "name": "_isLive",
      "outputs": [
        {
          "internalType": "bool",
          "name": "",
          "type": "bool"
        }
      ],
      "stateMutability": "view",
      "type": "function"
    },
    {
      "inputs": [],
      "name": "_isNative",
      "outputs": [
        {
          "internalType": "bool",
          "name": "",
          "type": "bool"
        }
      ],
      "stateMutability": "view",
      "type": "function"
    },
    {
      "inputs": [],
      "name": "_isStarted",
      "outputs": [
        {
          "internalType": "bool",
          "name": "",
          "type": "bool"
        }
      ],
      "stateMutability": "view",
      "type": "function"
    },
    {
      "inputs": [],
      "name": "cancel",
      "outputs": [],
      "stateMutability": "nonpayable",
      "type": "function"
    },
    {
      "inputs": [],
      "name": "claimInvest",
      "outputs": [],
      "stateMutability": "nonpayable",
      "type": "function"
    },
    {
      "inputs": [],
      "name": "claimPresale",
      "outputs": [],
      "stateMutability": "nonpayable",
      "type": "function"
    },
    {
      "inputs": [],
      "name": "divest",
      "outputs": [],
      "stateMutability": "nonpayable",
      "type": "function"
    },
    {
      "inputs": [],
      "name": "eip712Domain",
      "outputs": [
        {
          "internalType": "bytes1",
          "name": "fields",
          "type": "bytes1"
        },
        {
          "internalType": "string",
          "name": "name",
          "type": "string"
        },
        {
          "internalType": "string",
          "name": "version",
          "type": "string"
        },
        {
          "internalType": "uint256",
          "name": "chainId",
          "type": "uint256"
        },
        {
          "internalType": "address",
          "name": "verifyingContract",
          "type": "address"
        },
        {
          "internalType": "bytes32",
          "name": "salt",
          "type": "bytes32"
        },
        {
          "internalType": "uint256[]",
          "name": "extensions",
          "type": "uint256[]"
        }
      ],
      "stateMutability": "view",
      "type": "function"
    },
    {
      "inputs": [],
      "name": "factory",
      "outputs": [
        {
          "internalType": "address",
          "name": "",
          "type": "address"
        }
      ],
      "stateMutability": "view",
      "type": "function"
    },
    {
      "inputs": [],
      "name": "founderDivest",
      "outputs": [],
      "stateMutability": "nonpayable",
      "type": "function"
    },
    {
      "inputs": [
        {
          "internalType": "uint256",
          "name": "presaleAmount",
          "type": "uint256"
        },
        {
          "internalType": "uint256",
          "name": "investAmount",
          "type": "uint256"
        }
      ],
      "name": "getAmount",
      "outputs": [
        {
          "internalType": "uint256",
          "name": "_presaleAmount",
          "type": "uint256"
        },
        {
          "internalType": "uint256",
          "name": "_investAmount",
          "type": "uint256"
        }
      ],
      "stateMutability": "view",
      "type": "function"
    },
    {
      "inputs": [
        {
          "internalType": "address",
          "name": "_router",
          "type": "address"
        },
        {
          "internalType": "uint256",
          "name": "_amountA",
          "type": "uint256"
        },
        {
          "internalType": "bytes",
          "name": "_data",
          "type": "bytes"
        }
      ],
      "name": "getHash",
      "outputs": [
        {
          "internalType": "bytes32",
          "name": "",
          "type": "bytes32"
        }
      ],
      "stateMutability": "view",
      "type": "function"
    },
    {
      "inputs": [
        {
          "internalType": "address",
          "name": "investor",
          "type": "address"
        }
      ],
      "name": "getInvestOf",
      "outputs": [
        {
          "internalType": "uint256",
          "name": "",
          "type": "uint256"
        }
      ],
      "stateMutability": "view",
      "type": "function"
    },
    {
      "inputs": [],
      "name": "getTotalReleased",
      "outputs": [
        {
          "internalType": "uint256",
          "name": "",
          "type": "uint256"
        }
      ],
      "stateMutability": "view",
      "type": "function"
    },
    {
      "inputs": [],
      "name": "getTransferLiquidityInvestAmount",
      "outputs": [
        {
          "internalType": "uint256",
          "name": "_investTransferLPAmount",
          "type": "uint256"
        },
        {
          "internalType": "uint256",
          "name": "_investTransferTeamAmount",
          "type": "uint256"
        },
        {
          "internalType": "uint256",
          "name": "_fee",
          "type": "uint256"
        }
      ],
      "stateMutability": "view",
      "type": "function"
    },
    {
      "inputs": [
        {
          "internalType": "uint256",
          "name": "investAmount",
          "type": "uint256"
        }
      ],
      "name": "invest",
      "outputs": [],
      "stateMutability": "payable",
      "type": "function"
    },
    {
      "inputs": [],
      "name": "investToken",
      "outputs": [
        {
          "internalType": "address",
          "name": "",
          "type": "address"
        }
      ],
      "stateMutability": "view",
      "type": "function"
    },
    {
      "inputs": [],
      "name": "isCancel",
      "outputs": [
        {
          "internalType": "bool",
          "name": "",
          "type": "bool"
        }
      ],
      "stateMutability": "view",
      "type": "function"
    },
    {
      "inputs": [],
      "name": "owner",
      "outputs": [
        {
          "internalType": "address",
          "name": "",
          "type": "address"
        }
      ],
      "stateMutability": "view",
      "type": "function"
    },
    {
      "inputs": [],
      "name": "parameters",
      "outputs": [
        {
          "internalType": "uint256",
          "name": "price",
          "type": "uint256"
        },
        {
          "internalType": "uint24",
          "name": "liquidityRate",
          "type": "uint24"
        },
        {
          "internalType": "uint256",
          "name": "minInvest",
          "type": "uint256"
        },
        {
          "internalType": "uint256",
          "name": "maxInvest",
          "type": "uint256"
        },
        {
          "internalType": "uint256",
          "name": "softCap",
          "type": "uint256"
        },
        {
          "internalType": "uint256",
          "name": "hardCap",
          "type": "uint256"
        },
        {
          "internalType": "address",
          "name": "router",
          "type": "address"
        },
        {
          "internalType": "uint256",
          "name": "dexInitPrice",
          "type": "uint256"
        },
        {
          "internalType": "uint256",
          "name": "startedAt",
          "type": "uint256"
        },
        {
          "internalType": "uint256",
          "name": "endedAt",
          "type": "uint256"
        },
        {
          "internalType": "uint24",
          "name": "firstRelease",
          "type": "uint24"
        },
        {
          "internalType": "uint24",
          "name": "cycle",
          "type": "uint24"
        },
        {
          "internalType": "uint24",
          "name": "cycleRelease",
          "type": "uint24"
        },
        {
          "internalType": "uint24",
          "name": "investTokenDecimals",
          "type": "uint24"
        }
      ],
      "stateMutability": "view",
      "type": "function"
    },
    {
      "inputs": [],
      "name": "presaleToken",
      "outputs": [
        {
          "internalType": "address",
          "name": "",
          "type": "address"
        }
      ],
      "stateMutability": "view",
      "type": "function"
    },
    {
      "inputs": [],
      "name": "renounceOwnership",
      "outputs": [],
      "stateMutability": "nonpayable",
      "type": "function"
    },
    {
      "inputs": [],
      "name": "teamWallet",
      "outputs": [
        {
          "internalType": "address",
          "name": "",
          "type": "address"
        }
      ],
      "stateMutability": "view",
      "type": "function"
    },
    {
      "inputs": [],
      "name": "totalInvest",
      "outputs": [
        {
          "internalType": "uint256",
          "name": "",
          "type": "uint256"
        }
      ],
      "stateMutability": "view",
      "type": "function"
    },
    {
      "inputs": [],
      "name": "totalPresale",
      "outputs": [
        {
          "internalType": "uint256",
          "name": "",
          "type": "uint256"
        }
      ],
      "stateMutability": "view",
      "type": "function"
    },
    {
      "inputs": [
        {
          "internalType": "uint256",
          "name": "_amountA",
          "type": "uint256"
        },
        {
          "internalType": "bytes",
          "name": "_data",
          "type": "bytes"
        },
        {
          "internalType": "bytes",
          "name": "_signature",
          "type": "bytes"
        }
      ],
      "name": "transferLiquidity",
      "outputs": [],
      "stateMutability": "nonpayable",
      "type": "function"
    },
    {
      "inputs": [
        {
          "internalType": "address",
          "name": "newOwner",
          "type": "address"
        }
      ],
      "name": "transferOwnership",
      "outputs": [],
      "stateMutability": "nonpayable",
      "type": "function"
    },
    {
      "inputs": [],
      "name": "unlockedAt",
      "outputs": [
        {
          "internalType": "uint256",
          "name": "",
          "type": "uint256"
        }
      ],
      "stateMutability": "view",
      "type": "function"
    }
  ],
  "bytecode": "0x6101e06040526006805460ff1916905560006014553480156200002157600080fd5b506040516200329138038062003291833981016040819052620000449162000469565b8787620000513362000250565b6200006c600183620002a060201b620019091790919060201c565b6101205262000089816002620002a0602090811b6200190917901c565b61014052815160208084019190912060e052815190820120610100524660a0526200011760e05161010051604080517f8b73c3c69bb8fe3d512ecc4cf759cc79239f7b179b0ffacaa9a75d522b39400f60208201529081019290925260608201524660808201523060a082015260009060c00160405160208183030381529060405280519060200120905090565b60805250503060c0526200012b8662000250565b336001600160a01b039081166101609081529581166101c0529384166101809081529284166101a0908152600592909255805160075560208101516008805462ffffff92831662ffffff1990911617905560408201516009556060820151600a556080820151600b5560a0820151600c5560c0820151600d8054919096166001600160a01b03199091161790945560e0810151600e55610100810151600f556101208101516010556101408101516011805496830151948301519290930151851669010000000000000000000262ffffff60481b199286166601000000000000029290921665ffffffffffff60301b1994861663010000000265ffffffffffff19909716919095161794909417919091169190911791909117905550620007d5915050565b600080546001600160a01b038381166001600160a01b0319831681178455604051919092169283917f8be0079c531659141344cd1fd0a4f28419497f9722a3daafe3b4186f6b6457e09190a35050565b6000602083511015620002c057620002b883620002f0565b9050620002ea565b82620002d7836200033c60201b6200193c1760201c565b90620002e49082620006af565b5060ff90505b92915050565b600080829050601f8151111562000327578260405163305a27a960e01b81526004016200031e91906200077b565b60405180910390fd5b80516200033482620007b0565b179392505050565b90565b634e487b7160e01b600052604160045260246000fd5b6040516101c081016001600160401b03811182821017156200037b576200037b6200033f565b60405290565b60005b838110156200039e57818101518382015260200162000384565b50506000910152565b600082601f830112620003b957600080fd5b81516001600160401b0380821115620003d657620003d66200033f565b604051601f8301601f19908116603f011681019082821181831017156200040157620004016200033f565b816040528381528660208588010111156200041b57600080fd5b6200042e84602083016020890162000381565b9695505050505050565b80516001600160a01b03811681146200045057600080fd5b919050565b805162ffffff811681146200045057600080fd5b600080600080600080600080888a036102a08112156200048857600080fd5b89516001600160401b0380821115620004a057600080fd5b620004ae8d838e01620003a7565b9a5060208c0151915080821115620004c557600080fd5b50620004d48c828d01620003a7565b985050620004e560408b0162000438565b9650620004f560608b0162000438565b95506200050560808b0162000438565b94506200051560a08b0162000438565b935060c08a015192506101c060df19820112156200053257600080fd5b506200053d62000355565b60e08a01518152620005536101008b0162000455565b60208201526101208a01516040820152610140808b01516060830152610160808c01516080840152610180808d015160a08501526101a062000597818f0162000438565b60c08601526101c08e015160e08601526101e08e01516101008601526102008e0151610120860152620005ce6102208f0162000455565b84860152620005e16102408f0162000455565b83860152620005f46102608f0162000455565b82860152620006076102808f0162000455565b8186015250505050809150509295985092959890939650565b600181811c908216806200063557607f821691505b6020821081036200065657634e487b7160e01b600052602260045260246000fd5b50919050565b601f821115620006aa57600081815260208120601f850160051c81016020861015620006855750805b601f850160051c820191505b81811015620006a65782815560010162000691565b5050505b505050565b81516001600160401b03811115620006cb57620006cb6200033f565b620006e381620006dc845462000620565b846200065c565b602080601f8311600181146200071b5760008415620007025750858301515b600019600386901b1c1916600185901b178555620006a6565b600085815260208120601f198616915b828110156200074c578886015182559484019460019091019084016200072b565b50858210156200076b5787850151600019600388901b60f8161c191681555b5050505050600190811b01905550565b60208152600082518060208401526200079c81604085016020870162000381565b601f01601f19169190910160400192915050565b80516020808301519190811015620006565760001960209190910360031b1b16919050565b60805160a05160c05160e05161010051610120516101405161016051610180516101a0516101c0516129da620008b7600039600081816103b0015281816113c8015281816114210152818161187e01526118c60152600081816105cd01528181610a6a01528181610de9015281816110d00152611e4e0152600081816102dc015281816110f2015281816119890152611b9f01526000818161061601528181610f8601526117a801526000610e4e01526000610e230152600061208d0152600061206501526000611fc001526000611fea0152600061201401526129da6000f3fe6080604052600436106101e25760003560e01c80637c07a71011610102578063c45a015511610095578063ea8a1af011610064578063ea8a1af014610686578063eb8addc21461069b578063f2fde38b146106b0578063fc2612c9146106d057600080fd5b8063c45a015514610604578063c57981b514610638578063d4974fe91461064e578063e23145411461066657600080fd5b80638da5cb5b116100d15780638da5cb5b1461057d578063a1b356d41461059b578063badf822b146105bb578063c3015b52146105ef57600080fd5b80637c07a7101461042857806384b0196e1461043d57806389035730146104655780638cb1e9c11461056757600080fd5b8063367e4caf1161017a5780635eaa1729116101495780635eaa1729146103d2578063616b40e3146103e75780636bd3d406146103fd578063715018a61461041357600080fd5b8063367e4caf146103295780634b14c0ef146103545780634ca9899714610369578063599270441461039e57600080fd5b806316fbe6b4116101b657806316fbe6b4146102805780631cb36442146102b057806324ffea1a146102ca5780632afcf4801461031657600080fd5b806240c766146101e75780630390c55e14610210578063046ef9a514610254578063058aace11461026b575b600080fd5b3480156101f357600080fd5b50600f544210155b60405190151581526020015b60405180910390f35b34801561021c57600080fd5b5061024661022b36600461236b565b6001600160a01b031660009081526012602052604090205490565b604051908152602001610207565b34801561026057600080fd5b506102696106e5565b005b34801561027757600080fd5b50610269610830565b34801561028c57600080fd5b506102956108be565b60408051938452602084019290925290820152606001610207565b3480156102bc57600080fd5b506006546101fb9060ff1681565b3480156102d657600080fd5b506102fe7f000000000000000000000000000000000000000000000000000000000000000081565b6040516001600160a01b039091168152602001610207565b610269610324366004612388565b610932565b34801561033557600080fd5b50610340620186a081565b60405162ffffff9091168152602001610207565b34801561036057600080fd5b50610246610c50565b34801561037557600080fd5b506103896103843660046123a1565b610d15565b60408051928352602083019190915201610207565b3480156103aa57600080fd5b506102fe7f000000000000000000000000000000000000000000000000000000000000000081565b3480156103de57600080fd5b50610269610d8e565b3480156103f357600080fd5b5061024660045481565b34801561040957600080fd5b5061024660055481565b34801561041f57600080fd5b50610269610dd3565b34801561043457600080fd5b506101fb610de7565b34801561044957600080fd5b50610452610e15565b6040516102079796959493929190612409565b34801561047157600080fd5b50600754600854600954600a54600b54600c54600d54600e54600f546010546011546104d89a9962ffffff90811699989796956001600160a01b031694939291808216916301000000820481169166010000000000008104821691600160481b909104168e565b6040516102079e9d9c9b9a999897969594939291909d8e5262ffffff9c8d1660208f015260408e019b909b5260608d019990995260808c019790975260a08b01959095526001600160a01b039390931660c08a015260e0890191909152610100880152610120870152841661014086015283166101608501528216610180840152166101a08201526101c00190565b34801561057357600080fd5b5061024660035481565b34801561058957600080fd5b506000546001600160a01b03166102fe565b3480156105a757600080fd5b506102696105b63660046124e1565b610e9e565b3480156105c757600080fd5b506102fe7f000000000000000000000000000000000000000000000000000000000000000081565b3480156105fb57600080fd5b506101fb611507565b34801561061057600080fd5b506102fe7f000000000000000000000000000000000000000000000000000000000000000081565b34801561064457600080fd5b5061034061753081565b34801561065a57600080fd5b506010544210156101fb565b34801561067257600080fd5b5061024661068136600461255b565b611529565b34801561069257600080fd5b5061026961158b565b3480156106a757600080fd5b506101fb61165b565b3480156106bc57600080fd5b506102696106cb36600461236b565b611679565b3480156106dc57600080fd5b506102696116f2565b601454600103610708576040516303cb96db60e21b815260040160405180910390fd5b6001601455336000908152601260205260408120549081900361073e57604051634daee0a960e11b815260040160405180910390fd5b6000610748610c50565b90508060000361076b5760405163cebeeca360e01b815260040160405180910390fd5b600061079f620f4240610799600454610799876107938860055461193f90919063ffffffff16565b9061193f565b9061194b565b905080156108265733600090815260136020526040812054906107c28383611957565b90508015610823573360008181526013602052604090208490556107e7905b82611963565b7f3b9ed2e2036d893039f3fc012eb65deeed17b8ff45cc2f5ba416296910c94e1533824260405161081a939291906125b7565b60405180910390a15b50505b5050600060145550565b601454600103610853576040516303cb96db60e21b815260040160405180910390fd5b600160145560105442101561086f5761086a611a21565b6108b7565b60105442101580156108845750600b54600454105b80610891575060065460ff165b1561089e5761086a611ae1565b604051638b160bd360e01b815260040160405180910390fd5b6000601455565b60008060006108e6620f424061079961753062ffffff1660045461193f90919063ffffffff16565b905060006108ff8260045461195790919063ffffffff16565b60085490915061091e90620f42409061079990849062ffffff1661193f565b935061092a8185611957565b925050909192565b601454600103610955576040516303cb96db60e21b815260040160405180910390fd5b6001601455600454600c540361097e5760405163319420eb60e01b815260040160405180910390fd5b6009548110156109a1576040516351594acf60e11b815260040160405180910390fd5b600a548111156109c4576040516304334aa360e51b815260040160405180910390fd5b6004546109d2908290611b1d565b600c541015610a185760408051632c4a292d60e21b81526004810191909152600360448201526241494160e81b6064820152602481018290526084015b60405180910390fd5b610a20610de7565b15610a6857348114610a635760408051632c4a292d60e21b8152600481019190915260036044820152624e494160e81b6064820152346024820152608401610a0f565b610bd3565b7f000000000000000000000000000000000000000000000000000000000000000030826001600160a01b03831663dd62ed3e336040516001600160e01b031960e084901b1681526001600160a01b0391821660048201529085166024820152604401602060405180830381865afa158015610ae7573d6000803e3d6000fd5b505050506040513d601f19601f82011682018060405250810190610b0b91906125d8565b1015610b2a5760405163259dbadf60e01b815260040160405180910390fd5b6001600160a01b0382166323b872dd336040516001600160e01b031960e084901b1681526001600160a01b0391821660048201529084166024820152604481018690526064016020604051808303816000875af1158015610b8f573d6000803e3d6000fd5b505050506040513d601f19601f82011682018060405250810190610bb391906125f1565b610bd057604051634daee0a960e11b815260040160405180910390fd5b50505b33600090815260126020526040902054610bed9082611b1d565b33600090815260126020526040902055600454610c0a9082611b1d565b6004557f4ae4bd7655e0d350876a23cd90c4227b13db560e34435c6a488150a9c844bf5f338242604051610c40939291906125b7565b60405180910390a1506000601455565b600060035460001480610c64575060035442105b15610c6f5750600090565b600080610c876003544261195790919063ffffffff16565b6011549091506301000000900462ffffff16811115610cbd57601154610cba9082906301000000900462ffffff1661194b565b91505b60115462ffffff168215610cf757601154610cf4908290610cee9086906601000000000000900462ffffff1661193f565b90611b1d565b90505b620f4240811115610d0e57620f4240935050505090565b9392505050565b6000808315610d5257600754601154610d4b919061079990610d4490600160481b900462ffffff16600a61270d565b879061193f565b9250610d81565b601154610d7e90610d7090600160481b900462ffffff16600a61270d565b60075461079990869061193f565b93505b50829050815b9250929050565b601454600103610db1576040516303cb96db60e21b815260040160405180910390fd5b6001601455610dbe611b29565b610dc6611507565b1561089e5761086a611b83565b610ddb611b29565b610de56000611c6d565b565b7f00000000000000000000000000000000000000000000000000000000000000006001600160a01b03161590565b600060608082808083610e497f00000000000000000000000000000000000000000000000000000000000000006001611cbd565b610e747f00000000000000000000000000000000000000000000000000000000000000006002611cbd565b60408051600080825260208201909252600f60f81b9b939a50919850469750309650945092509050565b601454600103610ec1576040516303cb96db60e21b815260040160405180910390fd5b6001601455610ece611b29565b600d546001600160a01b0316610ef7576040516314a6598960e21b815260040160405180910390fd5b601054421080610f1757506010544210158015610f175750600b54600454105b15610f355760405163cebeeca360e01b815260040160405180910390fd5b600854600554600091610f5691620f424091610799919062ffffff1661193f565b905085811080610f64575085155b15610f8257604051631d5d2c9960e01b815260040160405180910390fd5b60007f0000000000000000000000000000000000000000000000000000000000000000905061102b816001600160a01b031663b1d00df06040518163ffffffff1660e01b8152600401602060405180830381865afa158015610fe8573d6000803e3d6000fd5b505050506040513d601f19601f8201168201806040525081019061100c9190612734565b600d54611024906001600160a01b03168a8a8a611529565b8686611d61565b156110495760405163247d106d60e11b815260040160405180910390fd5b60008060006110566108be565b9250925092506000846001600160a01b031663017e7e586040518163ffffffff1660e01b8152600401602060405180830381865afa15801561109c573d6000803e3d6000fd5b505050506040513d601f19601f820116820180604052508101906110c09190612734565b6011549091508b9085908c908c907f0000000000000000000000000000000000000000000000000000000000000000907f00000000000000000000000000000000000000000000000000000000000000009060009061113f9061113090600160481b900462ffffff16600a61270d565b6007546004546107999161193f565b905060006111628261115c8a60055461195790919063ffffffff16565b90611957565b6005839055600d5460405163095ea7b360e01b81526001600160a01b039182166004820152602481018b90529192506000919085169063095ea7b3906044016020604051808303816000875af11580156111c0573d6000803e3d6000fd5b505050506040513d601f19601f820116820180604052508101906111e491906125f1565b905080611204576040516306a92fdf60e01b815260040160405180910390fd5b61120c610de7565b1561129d57600d546040516001600160a01b03909116908990611232908a908a90612751565b60006040518083038185875af1925050503d806000811461126f576040519150601f19603f3d011682016040523d82523d6000602084013e611274565b606091505b5050809150508061129857604051631bfe902f60e11b815260040160405180910390fd5b6113b9565b600d5460405163095ea7b360e01b81526001600160a01b039182166004820152602481018a90529086169063095ea7b3906044016020604051808303816000875af11580156112f0573d6000803e3d6000fd5b505050506040513d601f19601f8201168201806040525081019061131491906125f1565b905080611334576040516385dda44d60e01b815260040160405180910390fd5b600d546040516001600160a01b03909116906113539089908990612751565b6000604051808303816000865af19150503d8060008114611390576040519150601f19603f3d011682016040523d82523d6000602084013e611395565b606091505b505080915050806113b957604051631bfe902f60e11b815260040160405180910390fd5b6113c38a8c611dc0565b6113ed7f00000000000000000000000000000000000000000000000000000000000000008d611dc0565b6113f73383611963565b426003819055507f22a3f5b3c912571a13d0d6f19711381d887cb4dcb2f6f7aa57de664d42a09de07f00000000000000000000000000000000000000000000000000000000000000008d42604051611451939291906125b7565b60405180910390a17f3b9ed2e2036d893039f3fc012eb65deeed17b8ff45cc2f5ba416296910c94e1533834260405161148c939291906125b7565b60405180910390a1600d54604080513381526001600160a01b0390921660208301528181018b9052606082018a9052426080830152517f3579f62927f77888f0d41c632d9a2eff1914dc37b693733d1d7a70f92111ef989181900360a00190a150506000601455505050505050505050505050505050505050565b600061151560105442101590565b80156115245750600b54600454105b905090565b60006115827f08523daf28ee17754671f39f9958942c4717267760901eea3e6ffd35005a72ea85878686604051602001611567959493929190612761565b60405160208183030381529060405280519060200120611ee5565b95945050505050565b6014546001036115ae576040516303cb96db60e21b815260040160405180910390fd5b6001601455600354156115d4576040516372d2dd0b60e01b815260040160405180910390fd5b60065460ff16156115f857604051630306ad4760e31b815260040160405180910390fd5b6006805460ff1916600117905561161761160f3390565b600554611963565b7f46693e9d69e83400f28431bb5f4c82dbd15601770cb1e4ed7f0d805db9c5de78336005544260405161164c939291906125b7565b60405180910390a16000601455565b6000611669600f5442101590565b8015611524575050601054421090565b611681611b29565b6001600160a01b0381166116e65760405162461bcd60e51b815260206004820152602660248201527f4f776e61626c653a206e6577206f776e657220697320746865207a65726f206160448201526564647265737360d01b6064820152608401610a0f565b6116ef81611c6d565b50565b601454600103611715576040516303cb96db60e21b815260040160405180910390fd5b6001601455611722611b29565b600d546001600160a01b03161561174c576040516327189df160e21b815260040160405180910390fd5b611754611507565b1561177257604051632901819f60e01b815260040160405180910390fd5b6010544210806117865750600c5460045414155b156117a45760405163562523c960e11b815260040160405180910390fd5b60007f000000000000000000000000000000000000000000000000000000000000000090506000816001600160a01b031663017e7e586040518163ffffffff1660e01b8152600401602060405180830381865afa158015611809573d6000803e3d6000fd5b505050506040513d601f19601f8201168201806040525081019061182d9190612734565b90506000611854620f424061079961753062ffffff1660045461193f90919063ffffffff16565b9050600061186d8260045461195790919063ffffffff16565b90506118798383611dc0565b6118a37f000000000000000000000000000000000000000000000000000000000000000082611dc0565b7f22a3f5b3c912571a13d0d6f19711381d887cb4dcb2f6f7aa57de664d42a09de07f000000000000000000000000000000000000000000000000000000000000000082426040516118f6939291906125b7565b60405180910390a1505060006014555050565b60006020835110156119255761191e83611f12565b9050611936565b816119308482612838565b5060ff90505b92915050565b90565b6000610d0e82846128f8565b6000610d0e828461290f565b6000610d0e8284612931565b60405163a9059cbb60e01b81526001600160a01b038381166004830152602482018390527f00000000000000000000000000000000000000000000000000000000000000009160009183169063a9059cbb906044016020604051808303816000875af11580156119d7573d6000803e3d6000fd5b505050506040513d601f19601f820116820180604052508101906119fb91906125f1565b905080611a1b57604051633b0ef58f60e21b815260040160405180910390fd5b50505050565b3360009081526012602052604081205490819003611a5257604051634daee0a960e11b815260040160405180910390fd5b611a66620f424061079983620186a061193f565b90506000601281335b6001600160a01b03168152602081019190915260400160002055600454611a969082611957565b600455611aa33382611dc0565b7fa173b89e07e2dbd444e1ed177984a84d46231b8dda39ca48c731d081b853057c338242604051611ad6939291906125b7565b60405180910390a150565b3360009081526012602052604081205490819003611b1257604051634daee0a960e11b815260040160405180910390fd5b600060128133611a6f565b6000610d0e8284612944565b6000546001600160a01b03163314610de55760405162461bcd60e51b815260206004820181905260248201527f4f776e61626c653a2063616c6c6572206973206e6f7420746865206f776e65726044820152606401610a0f565b600060058190556040516370a0823160e01b81523060048201527f000000000000000000000000000000000000000000000000000000000000000091906001600160a01b038316906370a0823190602401602060405180830381865afa158015611bf1573d6000803e3d6000fd5b505050506040513d601f19601f82011682018060405250810190611c1591906125d8565b905080600003611c23575050565b611c2c336107e1565b7f6e009f616e8c14332574b9402c3b56141f9648e275161c6b65823921e6bc8a323360055442604051611c61939291906125b7565b60405180910390a15050565b600080546001600160a01b038381166001600160a01b0319831681178455604051919092169283917f8be0079c531659141344cd1fd0a4f28419497f9722a3daafe3b4186f6b6457e09190a35050565b606060ff8314611cd05761191e83611f50565b818054611cdc906127b0565b80601f0160208091040260200160405190810160405280929190818152602001828054611d08906127b0565b8015611d555780601f10611d2a57610100808354040283529160200191611d55565b820191906000526020600020905b815481529060010190602001808311611d3857829003601f168201915b50505050509050611936565b6000846001600160a01b0316611dad8585858080601f016020809104026020016040519081016040528093929190818152602001838380828437600092019190915250611f8f92505050565b6001600160a01b03161495945050505050565b6000611dca610de7565b15611e28576040516001600160a01b038416908390600081818185875af1925050503d8060008114611e18576040519150601f19603f3d011682016040523d82523d6000602084013e611e1d565b606091505b505080915050611ec2565b60405163a9059cbb60e01b81526001600160a01b038481166004830152602482018490527f0000000000000000000000000000000000000000000000000000000000000000919082169063a9059cbb906044016020604051808303816000875af1158015611e9a573d6000803e3d6000fd5b505050506040513d601f19601f82011682018060405250810190611ebe91906125f1565b9150505b80611ee057604051632901819f60e01b815260040160405180910390fd5b505050565b6000611936611ef2611fb3565b8360405161190160f01b8152600281019290925260228201526042902090565b600080829050601f81511115611f3d578260405163305a27a960e01b8152600401610a0f9190612957565b8051611f488261296a565b179392505050565b60606000611f5d836120de565b604080516020808252818301909252919250600091906020820181803683375050509182525060208101929092525090565b6000806000611f9e8585612106565b91509150611fab81612148565b509392505050565b6000306001600160a01b037f00000000000000000000000000000000000000000000000000000000000000001614801561200c57507f000000000000000000000000000000000000000000000000000000000000000046145b1561203657507f000000000000000000000000000000000000000000000000000000000000000090565b611524604080517f8b73c3c69bb8fe3d512ecc4cf759cc79239f7b179b0ffacaa9a75d522b39400f60208201527f0000000000000000000000000000000000000000000000000000000000000000918101919091527f000000000000000000000000000000000000000000000000000000000000000060608201524660808201523060a082015260009060c00160405160208183030381529060405280519060200120905090565b600060ff8216601f81111561193657604051632cd44ac360e21b815260040160405180910390fd5b600080825160410361213c5760208301516040840151606085015160001a61213087828585612292565b94509450505050610d87565b50600090506002610d87565b600081600481111561215c5761215c61298e565b036121645750565b60018160048111156121785761217861298e565b036121c55760405162461bcd60e51b815260206004820152601860248201527f45434453413a20696e76616c6964207369676e617475726500000000000000006044820152606401610a0f565b60028160048111156121d9576121d961298e565b036122265760405162461bcd60e51b815260206004820152601f60248201527f45434453413a20696e76616c6964207369676e6174757265206c656e677468006044820152606401610a0f565b600381600481111561223a5761223a61298e565b036116ef5760405162461bcd60e51b815260206004820152602260248201527f45434453413a20696e76616c6964207369676e6174757265202773272076616c604482015261756560f01b6064820152608401610a0f565b6000807f7fffffffffffffffffffffffffffffff5d576e7357a4501ddfe92f46681b20a08311156122c9575060009050600361234d565b6040805160008082526020820180845289905260ff881692820192909252606081018690526080810185905260019060a0016020604051602081039080840390855afa15801561231d573d6000803e3d6000fd5b5050604051601f1901519150506001600160a01b0381166123465760006001925092505061234d565b9150600090505b94509492505050565b6001600160a01b03811681146116ef57600080fd5b60006020828403121561237d57600080fd5b8135610d0e81612356565b60006020828403121561239a57600080fd5b5035919050565b600080604083850312156123b457600080fd5b50508035926020909101359150565b6000815180845260005b818110156123e9576020818501810151868301820152016123cd565b506000602082860101526020601f19601f83011685010191505092915050565b60ff60f81b881681526000602060e08184015261242960e084018a6123c3565b838103604085015261243b818a6123c3565b606085018990526001600160a01b038816608086015260a0850187905284810360c0860152855180825283870192509083019060005b8181101561248d57835183529284019291840191600101612471565b50909c9b505050505050505050505050565b60008083601f8401126124b157600080fd5b50813567ffffffffffffffff8111156124c957600080fd5b602083019150836020828501011115610d8757600080fd5b6000806000806000606086880312156124f957600080fd5b85359450602086013567ffffffffffffffff8082111561251857600080fd5b61252489838a0161249f565b9096509450604088013591508082111561253d57600080fd5b5061254a8882890161249f565b969995985093965092949392505050565b6000806000806060858703121561257157600080fd5b843561257c81612356565b935060208501359250604085013567ffffffffffffffff81111561259f57600080fd5b6125ab8782880161249f565b95989497509550505050565b6001600160a01b039390931683526020830191909152604082015260600190565b6000602082840312156125ea57600080fd5b5051919050565b60006020828403121561260357600080fd5b81518015158114610d0e57600080fd5b634e487b7160e01b600052601160045260246000fd5b600181815b8085111561266457816000190482111561264a5761264a612613565b8085161561265757918102915b93841c939080029061262e565b509250929050565b60008261267b57506001611936565b8161268857506000611936565b816001811461269e57600281146126a8576126c4565b6001915050611936565b60ff8411156126b9576126b9612613565b50506001821b611936565b5060208310610133831016604e8410600b84101617156126e7575081810a611936565b6126f18383612629565b806000190482111561270557612705612613565b029392505050565b6000610d0e62ffffff84168361266c565b634e487b7160e01b600052604160045260246000fd5b60006020828403121561274657600080fd5b8151610d0e81612356565b8183823760009101908152919050565b858152602081018590526001600160a01b03841660408201526080606082018190528101829052818360a0830137600081830160a090810191909152601f909201601f19160101949350505050565b600181811c908216806127c457607f821691505b6020821081036127e457634e487b7160e01b600052602260045260246000fd5b50919050565b601f821115611ee057600081815260208120601f850160051c810160208610156128115750805b601f850160051c820191505b818110156128305782815560010161281d565b505050505050565b815167ffffffffffffffff8111156128525761285261271e565b6128668161286084546127b0565b846127ea565b602080601f83116001811461289b57600084156128835750858301515b600019600386901b1c1916600185901b178555612830565b600085815260208120601f198616915b828110156128ca578886015182559484019460019091019084016128ab565b50858210156128e85787850151600019600388901b60f8161c191681555b5050505050600190811b01905550565b808202811582820484141761193657611936612613565b60008261292c57634e487b7160e01b600052601260045260246000fd5b500490565b8181038181111561193657611936612613565b8082018082111561193657611936612613565b602081526000610d0e60208301846123c3565b805160208083015191908110156127e45760001960209190910360031b1b16919050565b634e487b7160e01b600052602160045260246000fdfea2646970667358221220182cc2ea7f34cc8fe289019b95b18d7670f6fbb67067c1d692a9346be04efa9964736f6c63430008120033",
  "linkReferences": {},
  "deployedLinkReferences": {}
}