{
  "_format": "hh-sol-artifact-1",
  "contractName": "WESale",
  "sourceName": "contracts/WESale.sol",
  "abi": [
    {
      "inputs": [
        {
          "internalType": "string",
          "name": "_name",
          "type": "string"
        },
        {
          "internalType": "string",
          "name": "_version",
          "type": "string"
        },
        {
          "internalType": "address",
          "name": "_owner",
          "type": "address"
        },
        {
          "internalType": "address",
          "name": "_teamWallet",
          "type": "address"
        },
        {
          "internalType": "address",
          "name": "_presaleToken",
          "type": "address"
        },
        {
          "internalType": "address",
          "name": "_investToken",
          "type": "address"
        },
        {
          "internalType": "uint256",
          "name": "_deposit",
          "type": "uint256"
        }
      ],
      "stateMutability": "nonpayable",
      "type": "constructor"
    },
    {
      "inputs": [],
      "name": "ClaimInvestError",
      "type": "error"
    },
    {
      "inputs": [],
      "name": "ClaimPresaleError",
      "type": "error"
    },
    {
      "inputs": [],
      "name": "DidNotMeetDivestmentRequirements",
      "type": "error"
    },
    {
      "inputs": [],
      "name": "IllegalOperation",
      "type": "error"
    },
    {
      "inputs": [],
      "name": "InsufficientAllowedInvestAmount",
      "type": "error"
    },
    {
      "inputs": [],
      "name": "InsufficientInvestBalance",
      "type": "error"
    },
    {
      "inputs": [
        {
          "internalType": "string",
          "name": "_origin",
          "type": "string"
        },
        {
          "internalType": "uint256",
          "name": "_num",
          "type": "uint256"
        }
      ],
      "name": "InvalidNumber",
      "type": "error"
    },
    {
      "inputs": [],
      "name": "InvalidShortString",
      "type": "error"
    },
    {
      "inputs": [],
      "name": "InvestmentIsNotClosed",
      "type": "error"
    },
    {
      "inputs": [],
      "name": "IsAnAutoListingLaunchPad",
      "type": "error"
    },
    {
      "inputs": [],
      "name": "Locked",
      "type": "error"
    },
    {
      "inputs": [],
      "name": "NotAnAutoListingLaunchPad",
      "type": "error"
    },
    {
      "inputs": [],
      "name": "PresaleNotCompleted",
      "type": "error"
    },
    {
      "inputs": [
        {
          "internalType": "string",
          "name": "str",
          "type": "string"
        }
      ],
      "name": "StringTooLong",
      "type": "error"
    },
    {
      "inputs": [],
      "name": "TransferAllowedInvestAmount",
      "type": "error"
    },
    {
      "inputs": [],
      "name": "TransferAllowedPresaleAmount",
      "type": "error"
    },
    {
      "inputs": [],
      "name": "TransferLiquidityFailed",
      "type": "error"
    },
    {
      "inputs": [],
      "name": "TransferLiquiditySignatureVerificationFailed",
      "type": "error"
    },
    {
      "anonymous": false,
      "inputs": [],
      "name": "EIP712DomainChanged",
      "type": "event"
    },
    {
      "anonymous": false,
      "inputs": [
        {
          "indexed": true,
          "internalType": "address",
          "name": "previousOwner",
          "type": "address"
        },
        {
          "indexed": true,
          "internalType": "address",
          "name": "newOwner",
          "type": "address"
        }
      ],
      "name": "OwnershipTransferred",
      "type": "event"
    },
    {
      "inputs": [],
      "name": "FEE",
      "outputs": [
        {
          "internalType": "uint24",
          "name": "",
          "type": "uint24"
        }
      ],
      "stateMutability": "view",
      "type": "function"
    },
    {
      "inputs": [],
      "name": "_isEnded",
      "outputs": [
        {
          "internalType": "bool",
          "name": "",
          "type": "bool"
        }
      ],
      "stateMutability": "view",
      "type": "function"
    },
    {
      "inputs": [],
      "name": "_isFailed",
      "outputs": [
        {
          "internalType": "bool",
          "name": "",
          "type": "bool"
        }
      ],
      "stateMutability": "view",
      "type": "function"
    },
    {
      "inputs": [],
      "name": "_isLive",
      "outputs": [
        {
          "internalType": "bool",
          "name": "",
          "type": "bool"
        }
      ],
      "stateMutability": "view",
      "type": "function"
    },
    {
      "inputs": [],
      "name": "_isNative",
      "outputs": [
        {
          "internalType": "bool",
          "name": "",
          "type": "bool"
        }
      ],
      "stateMutability": "view",
      "type": "function"
    },
    {
      "inputs": [],
      "name": "_isStarted",
      "outputs": [
        {
          "internalType": "bool",
          "name": "",
          "type": "bool"
        }
      ],
      "stateMutability": "view",
      "type": "function"
    },
    {
      "inputs": [],
      "name": "claimPresale",
      "outputs": [],
      "stateMutability": "nonpayable",
      "type": "function"
    },
    {
      "inputs": [],
      "name": "cliamInvest",
      "outputs": [],
      "stateMutability": "nonpayable",
      "type": "function"
    },
    {
      "inputs": [],
      "name": "divest",
      "outputs": [],
      "stateMutability": "nonpayable",
      "type": "function"
    },
    {
      "inputs": [],
      "name": "eip712Domain",
      "outputs": [
        {
          "internalType": "bytes1",
          "name": "fields",
          "type": "bytes1"
        },
        {
          "internalType": "string",
          "name": "name",
          "type": "string"
        },
        {
          "internalType": "string",
          "name": "version",
          "type": "string"
        },
        {
          "internalType": "uint256",
          "name": "chainId",
          "type": "uint256"
        },
        {
          "internalType": "address",
          "name": "verifyingContract",
          "type": "address"
        },
        {
          "internalType": "bytes32",
          "name": "salt",
          "type": "bytes32"
        },
        {
          "internalType": "uint256[]",
          "name": "extensions",
          "type": "uint256[]"
        }
      ],
      "stateMutability": "view",
      "type": "function"
    },
    {
      "inputs": [],
      "name": "factory",
      "outputs": [
        {
          "internalType": "address",
          "name": "",
          "type": "address"
        }
      ],
      "stateMutability": "view",
      "type": "function"
    },
    {
      "inputs": [],
      "name": "founderDivest",
      "outputs": [],
      "stateMutability": "nonpayable",
      "type": "function"
    },
    {
      "inputs": [
        {
          "internalType": "uint256",
          "name": "presaleAmount",
          "type": "uint256"
        },
        {
          "internalType": "uint256",
          "name": "investAmount",
          "type": "uint256"
        }
      ],
      "name": "getAmount",
      "outputs": [
        {
          "internalType": "uint256",
          "name": "_presaleAmount",
          "type": "uint256"
        },
        {
          "internalType": "uint256",
          "name": "_investAmount",
          "type": "uint256"
        }
      ],
      "stateMutability": "view",
      "type": "function"
    },
    {
      "inputs": [
        {
          "internalType": "address",
          "name": "_router",
          "type": "address"
        },
        {
          "internalType": "uint256",
          "name": "_amountA",
          "type": "uint256"
        },
        {
          "internalType": "bytes",
          "name": "_data",
          "type": "bytes"
        }
      ],
      "name": "getHash",
      "outputs": [
        {
          "internalType": "bytes32",
          "name": "",
          "type": "bytes32"
        }
      ],
      "stateMutability": "view",
      "type": "function"
    },
    {
      "inputs": [],
      "name": "getTotalReleased",
      "outputs": [
        {
          "internalType": "uint256",
          "name": "",
          "type": "uint256"
        }
      ],
      "stateMutability": "view",
      "type": "function"
    },
    {
      "inputs": [],
      "name": "getTransferLiquidityInvestAmount",
      "outputs": [
        {
          "internalType": "uint256",
          "name": "_investTransferLPAmount",
          "type": "uint256"
        },
        {
          "internalType": "uint256",
          "name": "_investTransferTeamAmount",
          "type": "uint256"
        },
        {
          "internalType": "uint256",
          "name": "_fee",
          "type": "uint256"
        }
      ],
      "stateMutability": "view",
      "type": "function"
    },
    {
      "inputs": [
        {
          "internalType": "uint256",
          "name": "presaleAmount",
          "type": "uint256"
        }
      ],
      "name": "invest",
      "outputs": [],
      "stateMutability": "payable",
      "type": "function"
    },
    {
      "inputs": [],
      "name": "investToken",
      "outputs": [
        {
          "internalType": "address",
          "name": "",
          "type": "address"
        }
      ],
      "stateMutability": "view",
      "type": "function"
    },
    {
      "inputs": [],
      "name": "name",
      "outputs": [
        {
          "internalType": "string",
          "name": "",
          "type": "string"
        }
      ],
      "stateMutability": "view",
      "type": "function"
    },
    {
      "inputs": [],
      "name": "owner",
      "outputs": [
        {
          "internalType": "address",
          "name": "",
          "type": "address"
        }
      ],
      "stateMutability": "view",
      "type": "function"
    },
    {
      "inputs": [],
      "name": "parameters",
      "outputs": [
        {
          "internalType": "uint256",
          "name": "price",
          "type": "uint256"
        },
        {
          "internalType": "uint24",
          "name": "liquidityRate",
          "type": "uint24"
        },
        {
          "internalType": "uint256",
          "name": "minInvest",
          "type": "uint256"
        },
        {
          "internalType": "uint256",
          "name": "maxInvest",
          "type": "uint256"
        },
        {
          "internalType": "uint256",
          "name": "softCap",
          "type": "uint256"
        },
        {
          "internalType": "uint256",
          "name": "hardCap",
          "type": "uint256"
        },
        {
          "internalType": "address",
          "name": "router",
          "type": "address"
        },
        {
          "internalType": "uint256",
          "name": "dexInitPrice",
          "type": "uint256"
        },
        {
          "internalType": "uint256",
          "name": "startedAt",
          "type": "uint256"
        },
        {
          "internalType": "uint256",
          "name": "endedAt",
          "type": "uint256"
        },
        {
          "internalType": "uint24",
          "name": "firstRelease",
          "type": "uint24"
        },
        {
          "internalType": "uint24",
          "name": "cycle",
          "type": "uint24"
        },
        {
          "internalType": "uint24",
          "name": "cycleRelease",
          "type": "uint24"
        }
      ],
      "stateMutability": "view",
      "type": "function"
    },
    {
      "inputs": [],
      "name": "presaleToken",
      "outputs": [
        {
          "internalType": "address",
          "name": "",
          "type": "address"
        }
      ],
      "stateMutability": "view",
      "type": "function"
    },
    {
      "inputs": [],
      "name": "renounceOwnership",
      "outputs": [],
      "stateMutability": "nonpayable",
      "type": "function"
    },
    {
      "inputs": [],
      "name": "teamWallet",
      "outputs": [
        {
          "internalType": "address",
          "name": "",
          "type": "address"
        }
      ],
      "stateMutability": "view",
      "type": "function"
    },
    {
      "inputs": [],
      "name": "totalInvest",
      "outputs": [
        {
          "internalType": "uint256",
          "name": "",
          "type": "uint256"
        }
      ],
      "stateMutability": "view",
      "type": "function"
    },
    {
      "inputs": [],
      "name": "totalPresale",
      "outputs": [
        {
          "internalType": "uint256",
          "name": "",
          "type": "uint256"
        }
      ],
      "stateMutability": "view",
      "type": "function"
    },
    {
      "inputs": [
        {
          "internalType": "uint256",
          "name": "_amountA",
          "type": "uint256"
        },
        {
          "internalType": "bytes",
          "name": "_data",
          "type": "bytes"
        },
        {
          "internalType": "bytes",
          "name": "_signature",
          "type": "bytes"
        }
      ],
      "name": "transferLiquidity",
      "outputs": [],
      "stateMutability": "nonpayable",
      "type": "function"
    },
    {
      "inputs": [
        {
          "internalType": "address",
          "name": "newOwner",
          "type": "address"
        }
      ],
      "name": "transferOwnership",
      "outputs": [],
      "stateMutability": "nonpayable",
      "type": "function"
    },
    {
      "inputs": [],
      "name": "unlockedAt",
      "outputs": [
        {
          "internalType": "uint256",
          "name": "",
          "type": "uint256"
        }
      ],
      "stateMutability": "view",
      "type": "function"
    },
    {
      "inputs": [],
      "name": "version",
      "outputs": [
        {
          "internalType": "string",
          "name": "",
          "type": "string"
        }
      ],
      "stateMutability": "view",
      "type": "function"
    }
  ],
  "bytecode": "0x6101e060405260016015553480156200001757600080fd5b5060405162002e6138038062002e618339810160408190526200003a9162000482565b86866200004733620002a9565b62000062600183620002f960201b620017481790919060201c565b610120526200007f816002620002f9602090811b6200174817901c565b61014052815160208084019190912060e052815190820120610100524660a0526200010d60e05161010051604080517f8b73c3c69bb8fe3d512ecc4cf759cc79239f7b179b0ffacaa9a75d522b39400f60208201529081019290925260608201524660808201523060a082015260009060c00160405160208183030381529060405280519060200120905090565b60809081523060c0908152604080516101a0810182526000808252602082018190529181018290526060810182905292830181905260a0830181905290820181905260e0820181905261010082018190526101208201819052610140820181905261016082018190526101808201529150620001869050565b6200019186620002a9565b60036200019f8982620005cf565b506003620001ae8882620005cf565b50336001600160a01b039081166101609081529581166101c0529384166101809081529284166101a052600791909155805160085560208101516009805462ffffff92831662ffffff199091161790556040820151600a556060820151600b556080820151600c5560a0820151600d5560c0820151600e8054919095166001600160a01b03199091161790935560e0810151600f5561010081015160105561012081015160115561014081015160128054958301519290930151841666010000000000000262ffffff60301b1992851663010000000265ffffffffffff199096169190941617939093179290921617905550620006f5915050565b600080546001600160a01b038381166001600160a01b0319831681178455604051919092169283917f8be0079c531659141344cd1fd0a4f28419497f9722a3daafe3b4186f6b6457e09190a35050565b60006020835110156200031957620003118362000349565b905062000343565b8262000330836200039560201b6200177b1760201c565b906200033d9082620005cf565b5060ff90505b92915050565b600080829050601f8151111562000380578260405163305a27a960e01b81526004016200037791906200069b565b60405180910390fd5b80516200038d82620006d0565b179392505050565b90565b634e487b7160e01b600052604160045260246000fd5b60005b83811015620003cb578181015183820152602001620003b1565b50506000910152565b600082601f830112620003e657600080fd5b81516001600160401b038082111562000403576200040362000398565b604051601f8301601f19908116603f011681019082821181831017156200042e576200042e62000398565b816040528381528660208588010111156200044857600080fd5b6200045b846020830160208901620003ae565b9695505050505050565b80516001600160a01b03811681146200047d57600080fd5b919050565b600080600080600080600060e0888a0312156200049e57600080fd5b87516001600160401b0380821115620004b657600080fd5b620004c48b838c01620003d4565b985060208a0151915080821115620004db57600080fd5b50620004ea8a828b01620003d4565b965050620004fb6040890162000465565b94506200050b6060890162000465565b93506200051b6080890162000465565b92506200052b60a0890162000465565b915060c0880151905092959891949750929550565b600181811c908216806200055557607f821691505b6020821081036200057657634e487b7160e01b600052602260045260246000fd5b50919050565b601f821115620005ca57600081815260208120601f850160051c81016020861015620005a55750805b601f850160051c820191505b81811015620005c657828155600101620005b1565b5050505b505050565b81516001600160401b03811115620005eb57620005eb62000398565b6200060381620005fc845462000540565b846200057c565b602080601f8311600181146200063b5760008415620006225750858301515b600019600386901b1c1916600185901b178555620005c6565b600085815260208120601f198616915b828110156200066c578886015182559484019460019091019084016200064b565b50858210156200068b5787850151600019600388901b60f8161c191681555b5050505050600190811b01905550565b6020815260008251806020840152620006bc816040850160208701620003ae565b601f01601f19169190910160400192915050565b80516020808301519190811015620005765760001960209190910360031b1b16919050565b60805160a05160c05160e05161010051610120516101405161016051610180516101a0516101c05161268a620007d7600039600081816103560152818161143a015261172301526000818161054b01528181610a5401528181610ea6015281816111c20152611afe01526000818161028a0152818161090501528181610cc801528181610d73015281816111e401526117c801526000818161059401528181611044015261164d01526000610f0b01526000610ee001526000611d3d01526000611d1501526000611c7001526000611c9a01526000611cc4015261268a6000f3fe6080604052600436106101cc5760003560e01c80637c07a710116100f7578063c3015b5211610095578063e231454111610064578063e2314541146105f8578063eb8addc214610618578063f2fde38b1461062d578063f538c5191461064d57600080fd5b8063c3015b521461056d578063c45a015514610582578063c57981b5146105b6578063d4974fe9146105e057600080fd5b80638cb1e9c1116100d15780638cb1e9c1146104e55780638da5cb5b146104fb578063a1b356d414610519578063badf822b1461053957600080fd5b80637c07a710146103ce57806384b0196e146103e3578063890357301461040b57600080fd5b80634b14c0ef1161016f5780635eaa17291161013e5780635eaa172914610378578063616b40e31461038d5780636bd3d406146103a3578063715018a6146103b957600080fd5b80634b14c0ef146102d75780634ca98997146102fa57806354fd4d501461032f578063599270441461034457600080fd5b806306fdde03116101ab57806306fdde031461022657806316fbe6b41461024857806324ffea1a146102785780632afcf480146102c457600080fd5b806240c766146101d1578063046ef9a5146101fa578063058aace114610211575b600080fd5b3480156101dd57600080fd5b506010544210155b60405190151581526020015b60405180910390f35b34801561020657600080fd5b5061020f610662565b005b34801561021d57600080fd5b5061020f61074d565b34801561023257600080fd5b5061023b6107c8565b6040516101f1919061204c565b34801561025457600080fd5b5061025d610856565b604080519384526020840192909252908201526060016101f1565b34801561028457600080fd5b506102ac7f000000000000000000000000000000000000000000000000000000000000000081565b6040516001600160a01b0390911681526020016101f1565b61020f6102d236600461205f565b6108ca565b3480156102e357600080fd5b506102ec610c03565b6040519081526020016101f1565b34801561030657600080fd5b5061031a610315366004612078565b610cbb565b604080519283526020830191909152016101f1565b34801561033b57600080fd5b5061023b610e25565b34801561035057600080fd5b506102ac7f000000000000000000000000000000000000000000000000000000000000000081565b34801561038457600080fd5b5061020f610e32565b34801561039957600080fd5b506102ec60065481565b3480156103af57600080fd5b506102ec60075481565b3480156103c557600080fd5b5061020f610e90565b3480156103da57600080fd5b506101e5610ea4565b3480156103ef57600080fd5b506103f8610ed2565b6040516101f1979695949392919061209a565b34801561041757600080fd5b50600854600954600a54600b54600c54600d54600e54600f546010546011546012546104739a9962ffffff90811699989796956001600160a01b031694939291808216916301000000820481169166010000000000009004168d565b604080519d8e5262ffffff9c8d1660208f01528d019a909a5260608c019890985260808b019690965260a08a01949094526001600160a01b0390921660c089015260e088015261010087015261012086015283166101408501528216610160840152166101808201526101a0016101f1565b3480156104f157600080fd5b506102ec60055481565b34801561050757600080fd5b506000546001600160a01b03166102ac565b34801561052557600080fd5b5061020f610534366004612172565b610f5b565b34801561054557600080fd5b506102ac7f000000000000000000000000000000000000000000000000000000000000000081565b34801561057957600080fd5b506101e561147c565b34801561058e57600080fd5b506102ac7f000000000000000000000000000000000000000000000000000000000000000081565b3480156105c257600080fd5b506105cc61753081565b60405162ffffff90911681526020016101f1565b3480156105ec57600080fd5b506011544211156101e5565b34801561060457600080fd5b506102ec610613366004612201565b61149e565b34801561062457600080fd5b506101e5611500565b34801561063957600080fd5b5061020f61064836600461225d565b61151e565b34801561065957600080fd5b5061020f611597565b601554600103610685576040516303cb96db60e21b815260040160405180910390fd5b6000601581905533815260136020526040812054908190036106ba57604051634daee0a960e11b815260040160405180910390fd5b60006106c4610c03565b905060006106dd6006548461177e90919063ffffffff16565b905060006106f8620f42406106f2858561178a565b9061177e565b9050801561074257336000908152601460205260408120549061071b8383611796565b9050801561073f5733600081815260146020526040902084905561073f90826117a2565b50505b505060016015555050565b601554600103610770576040516303cb96db60e21b815260040160405180910390fd5b6000601555600c5460065410806107965750601154421180156107965750600d54600654105b156107a8576107a3611860565b6107c1565b604051638b160bd360e01b815260040160405180910390fd5b6001601555565b600380546107d59061227a565b80601f01602080910402602001604051908101604052809291908181526020018280546108019061227a565b801561084e5780601f106108235761010080835404028352916020019161084e565b820191906000526020600020905b81548152906001019060200180831161083157829003601f168201915b505050505081565b600080600061087e620f42406106f261753062ffffff1660065461178a90919063ffffffff16565b905060006108978260065461179690919063ffffffff16565b6009549091506108b690620f4240906106f290849062ffffff1661178a565b93506108c28185611796565b925050909192565b6015546001036108ed576040516303cb96db60e21b815260040160405180910390fd5b600060158190556108fe8282610cbb565b91505060007f0000000000000000000000000000000000000000000000000000000000000000905060006109a7826001600160a01b031663313ce5676040518163ffffffff1660e01b8152600401602060405180830381865afa158015610969573d6000803e3d6000fd5b505050506040513d601f19601f8201168201806040525081019061098d91906122b4565b61099890600a6123d1565b600854600d546106f29161178a565b90506109be600654846118ab90919063ffffffff16565b811015610a025760408051632c4a292d60e21b81526004810191909152600360448201526241494160e81b6064820152602481018490526084015b60405180910390fd5b610a0a610ea4565b15610a5257348314610a4d5760408051632c4a292d60e21b8152600481019190915260036044820152624e494160e81b60648201523460248201526084016109f9565b610bbe565b7f000000000000000000000000000000000000000000000000000000000000000030846001600160a01b03831663dd62ed3e336040516001600160e01b031960e084901b1681526001600160a01b0391821660048201529085166024820152604401602060405180830381865afa158015610ad1573d6000803e3d6000fd5b505050506040513d601f19601f82011682018060405250810190610af591906123e0565b1015610b145760405163259dbadf60e01b815260040160405180910390fd5b6001600160a01b0382166323b872dd336040516001600160e01b031960e084901b1681526001600160a01b0391821660048201529084166024820152604481018890526064016020604051808303816000875af1158015610b79573d6000803e3d6000fd5b505050506040513d601f19601f82011682018060405250810190610b9d91906123f9565b15610bbb57604051634daee0a960e11b815260040160405180910390fd5b50505b33600090815260136020526040902054610bd890846118ab565b33600090815260136020526040902055600654610bf590846118ab565b600655505060016015555050565b6000600554421015610c155750600090565b600080610c2d6005544261179690919063ffffffff16565b6012549091506301000000900462ffffff16811115610c6357601254610c609082906301000000900462ffffff1661177e565b91505b60125462ffffff168215610c9d57601254610c9a908290610c949086906601000000000000900462ffffff1661178a565b906118ab565b90505b620f4240811115610cb457620f4240935050505090565b9392505050565b6000808315610d6f5760007f00000000000000000000000000000000000000000000000000000000000000009050610d67816001600160a01b031663313ce5676040518163ffffffff1660e01b8152600401602060405180830381865afa158015610d2a573d6000803e3d6000fd5b505050506040513d601f19601f82011682018060405250810190610d4e91906122b4565b610d5990600a6123d1565b6008546106f290889061178a565b935050610e18565b60007f00000000000000000000000000000000000000000000000000000000000000009050610e146008600001546106f2836001600160a01b031663313ce5676040518163ffffffff1660e01b8152600401602060405180830381865afa158015610dde573d6000803e3d6000fd5b505050506040513d601f19601f82011682018060405250810190610e0291906122b4565b610e0d90600a6123d1565b879061178a565b9450505b50829050815b9250929050565b600480546107d59061227a565b601554600103610e55576040516303cb96db60e21b815260040160405180910390fd5b6000601555610e626118b7565b610e6a61147c565b15610e8857604051638b160bd360e01b815260040160405180910390fd5b6107c1611911565b610e986118b7565b610ea2600061191d565b565b7f00000000000000000000000000000000000000000000000000000000000000006001600160a01b03161590565b600060608082808083610f067f0000000000000000000000000000000000000000000000000000000000000000600161196d565b610f317f0000000000000000000000000000000000000000000000000000000000000000600261196d565b60408051600080825260208201909252600f60f81b9b939a50919850469750309650945092509050565b601554600103610f7e576040516303cb96db60e21b815260040160405180910390fd5b6000601555610f8b6118b7565b600e546001600160a01b0316610fb4576040516314a6598960e21b815260040160405180910390fd5b600c546006541080610fd55750600d54600654108015610fd5575060115442115b15610ff35760405163cebeeca360e01b815260040160405180910390fd5b60095460075460009161101491620f4240916106f2919062ffffff1661178a565b905085811080611022575085155b1561104057604051631d5d2c9960e01b815260040160405180910390fd5b60007f000000000000000000000000000000000000000000000000000000000000000090506110e9816001600160a01b031663b1d00df06040518163ffffffff1660e01b8152600401602060405180830381865afa1580156110a6573d6000803e3d6000fd5b505050506040513d601f19601f820116820180604052508101906110ca9190612431565b600e546110e2906001600160a01b03168a8a8a61149e565b8686611a11565b156111075760405163247d106d60e11b815260040160405180910390fd5b6000806000611114610856565b9250925092506000846001600160a01b031663017e7e586040518163ffffffff1660e01b8152600401602060405180830381865afa15801561115a573d6000803e3d6000fd5b505050506040513d601f19601f8201168201806040525081019061117e9190612431565b60075490915061118e908c611796565b600755600e5460405163095ea7b360e01b81526001600160a01b039182166004820152602481018d90528c9186918d918d917f0000000000000000000000000000000000000000000000000000000000000000917f00000000000000000000000000000000000000000000000000000000000000009160009183169063095ea7b3906044016020604051808303816000875af1158015611232573d6000803e3d6000fd5b505050506040513d601f19601f8201168201806040525081019061125691906123f9565b905080611276576040516306a92fdf60e01b815260040160405180910390fd5b61127e610ea4565b1561130f57600e546040516001600160a01b039091169087906112a4908890889061244e565b60006040518083038185875af1925050503d80600081146112e1576040519150601f19603f3d011682016040523d82523d6000602084013e6112e6565b606091505b5050809150508061130a57604051631bfe902f60e11b815260040160405180910390fd5b61142b565b600e5460405163095ea7b360e01b81526001600160a01b039182166004820152602481018890529084169063095ea7b3906044016020604051808303816000875af1158015611362573d6000803e3d6000fd5b505050506040513d601f19601f8201168201806040525081019061138691906123f9565b9050806113a6576040516385dda44d60e01b815260040160405180910390fd5b600e546040516001600160a01b03909116906113c5908790879061244e565b6000604051808303816000865af19150503d8060008114611402576040519150601f19603f3d011682016040523d82523d6000602084013e611407565b606091505b5050809150508061142b57604051631bfe902f60e11b815260040160405180910390fd5b611435888a611a70565b61145f7f00000000000000000000000000000000000000000000000000000000000000008b611a70565b505042600555505060016015555050505050505050505050505050565b600061148a60115442111590565b80156114995750600c54600654105b905090565b60006114f77f08523daf28ee17754671f39f9958942c4717267760901eea3e6ffd35005a72ea858786866040516020016114dc95949392919061245e565b60405160208183030381529060405280519060200120611b95565b95945050505050565b600061150e60105442101590565b8015611499575050601154421190565b6115266118b7565b6001600160a01b03811661158b5760405162461bcd60e51b815260206004820152602660248201527f4f776e61626c653a206e6577206f776e657220697320746865207a65726f206160448201526564647265737360d01b60648201526084016109f9565b6115948161191d565b50565b6015546001036115ba576040516303cb96db60e21b815260040160405180910390fd5b60006015556115c76118b7565b600e546001600160a01b0316156115f1576040516327189df160e21b815260040160405180910390fd5b6115f961147c565b1561161757604051632901819f60e01b815260040160405180910390fd5b60115442118061162b5750600d5460065414155b156116495760405163562523c960e11b815260040160405180910390fd5b60007f000000000000000000000000000000000000000000000000000000000000000090506000816001600160a01b031663017e7e586040518163ffffffff1660e01b8152600401602060405180830381865afa1580156116ae573d6000803e3d6000fd5b505050506040513d601f19601f820116820180604052508101906116d29190612431565b905060006116f9620f42406106f261753062ffffff1660065461178a90919063ffffffff16565b905060006117128260065461179690919063ffffffff16565b905061171e8383611a70565b6107427f000000000000000000000000000000000000000000000000000000000000000082611a70565b60006020835110156117645761175d83611bc2565b9050611775565b8161176f84826124fb565b5060ff90505b92915050565b90565b6000610cb482846125bb565b6000610cb482846125dd565b6000610cb482846125f4565b60405163a9059cbb60e01b81526001600160a01b038381166004830152602482018390527f00000000000000000000000000000000000000000000000000000000000000009160009183169063a9059cbb906044016020604051808303816000875af1158015611816573d6000803e3d6000fd5b505050506040513d601f19601f8201168201806040525081019061183a91906123f9565b90508061185a57604051633b0ef58f60e21b815260040160405180910390fd5b50505050565b336000908152601360205260408120549081900361189157604051634daee0a960e11b815260040160405180910390fd5b336000818152601360205260408120556115949082611a70565b6000610cb48284612607565b6000546001600160a01b03163314610ea25760405162461bcd60e51b815260206004820181905260248201527f4f776e61626c653a2063616c6c6572206973206e6f7420746865206f776e657260448201526064016109f9565b610ea233600754611a70565b600080546001600160a01b038381166001600160a01b0319831681178455604051919092169283917f8be0079c531659141344cd1fd0a4f28419497f9722a3daafe3b4186f6b6457e09190a35050565b606060ff83146119805761175d83611c00565b81805461198c9061227a565b80601f01602080910402602001604051908101604052809291908181526020018280546119b89061227a565b8015611a055780601f106119da57610100808354040283529160200191611a05565b820191906000526020600020905b8154815290600101906020018083116119e857829003601f168201915b50505050509050611775565b6000846001600160a01b0316611a5d8585858080601f016020809104026020016040519081016040528093929190818152602001838380828437600092019190915250611c3f92505050565b6001600160a01b03161495945050505050565b6000611a7a610ea4565b15611ad8576040516001600160a01b038416908390600081818185875af1925050503d8060008114611ac8576040519150601f19603f3d011682016040523d82523d6000602084013e611acd565b606091505b505080915050611b72565b60405163a9059cbb60e01b81526001600160a01b038481166004830152602482018490527f0000000000000000000000000000000000000000000000000000000000000000919082169063a9059cbb906044016020604051808303816000875af1158015611b4a573d6000803e3d6000fd5b505050506040513d601f19601f82011682018060405250810190611b6e91906123f9565b9150505b80611b9057604051632901819f60e01b815260040160405180910390fd5b505050565b6000611775611ba2611c63565b8360405161190160f01b8152600281019290925260228201526042902090565b600080829050601f81511115611bed578260405163305a27a960e01b81526004016109f9919061204c565b8051611bf88261261a565b179392505050565b60606000611c0d83611d8e565b604080516020808252818301909252919250600091906020820181803683375050509182525060208101929092525090565b6000806000611c4e8585611db6565b91509150611c5b81611df8565b509392505050565b6000306001600160a01b037f000000000000000000000000000000000000000000000000000000000000000016148015611cbc57507f000000000000000000000000000000000000000000000000000000000000000046145b15611ce657507f000000000000000000000000000000000000000000000000000000000000000090565b611499604080517f8b73c3c69bb8fe3d512ecc4cf759cc79239f7b179b0ffacaa9a75d522b39400f60208201527f0000000000000000000000000000000000000000000000000000000000000000918101919091527f000000000000000000000000000000000000000000000000000000000000000060608201524660808201523060a082015260009060c00160405160208183030381529060405280519060200120905090565b600060ff8216601f81111561177557604051632cd44ac360e21b815260040160405180910390fd5b6000808251604103611dec5760208301516040840151606085015160001a611de087828585611f42565b94509450505050610e1e565b50600090506002610e1e565b6000816004811115611e0c57611e0c61263e565b03611e145750565b6001816004811115611e2857611e2861263e565b03611e755760405162461bcd60e51b815260206004820152601860248201527f45434453413a20696e76616c6964207369676e6174757265000000000000000060448201526064016109f9565b6002816004811115611e8957611e8961263e565b03611ed65760405162461bcd60e51b815260206004820152601f60248201527f45434453413a20696e76616c6964207369676e6174757265206c656e6774680060448201526064016109f9565b6003816004811115611eea57611eea61263e565b036115945760405162461bcd60e51b815260206004820152602260248201527f45434453413a20696e76616c6964207369676e6174757265202773272076616c604482015261756560f01b60648201526084016109f9565b6000807f7fffffffffffffffffffffffffffffff5d576e7357a4501ddfe92f46681b20a0831115611f795750600090506003611ffd565b6040805160008082526020820180845289905260ff881692820192909252606081018690526080810185905260019060a0016020604051602081039080840390855afa158015611fcd573d6000803e3d6000fd5b5050604051601f1901519150506001600160a01b038116611ff657600060019250925050611ffd565b9150600090505b94509492505050565b6000815180845260005b8181101561202c57602081850181015186830182015201612010565b506000602082860101526020601f19601f83011685010191505092915050565b602081526000610cb46020830184612006565b60006020828403121561207157600080fd5b5035919050565b6000806040838503121561208b57600080fd5b50508035926020909101359150565b60ff60f81b881681526000602060e0818401526120ba60e084018a612006565b83810360408501526120cc818a612006565b606085018990526001600160a01b038816608086015260a0850187905284810360c0860152855180825283870192509083019060005b8181101561211e57835183529284019291840191600101612102565b50909c9b505050505050505050505050565b60008083601f84011261214257600080fd5b50813567ffffffffffffffff81111561215a57600080fd5b602083019150836020828501011115610e1e57600080fd5b60008060008060006060868803121561218a57600080fd5b85359450602086013567ffffffffffffffff808211156121a957600080fd5b6121b589838a01612130565b909650945060408801359150808211156121ce57600080fd5b506121db88828901612130565b969995985093965092949392505050565b6001600160a01b038116811461159457600080fd5b6000806000806060858703121561221757600080fd5b8435612222816121ec565b935060208501359250604085013567ffffffffffffffff81111561224557600080fd5b61225187828801612130565b95989497509550505050565b60006020828403121561226f57600080fd5b8135610cb4816121ec565b600181811c9082168061228e57607f821691505b6020821081036122ae57634e487b7160e01b600052602260045260246000fd5b50919050565b6000602082840312156122c657600080fd5b815160ff81168114610cb457600080fd5b634e487b7160e01b600052601160045260246000fd5b600181815b8085111561232857816000190482111561230e5761230e6122d7565b8085161561231b57918102915b93841c93908002906122f2565b509250929050565b60008261233f57506001611775565b8161234c57506000611775565b8160018114612362576002811461236c57612388565b6001915050611775565b60ff84111561237d5761237d6122d7565b50506001821b611775565b5060208310610133831016604e8410600b84101617156123ab575081810a611775565b6123b583836122ed565b80600019048211156123c9576123c96122d7565b029392505050565b6000610cb460ff841683612330565b6000602082840312156123f257600080fd5b5051919050565b60006020828403121561240b57600080fd5b81518015158114610cb457600080fd5b634e487b7160e01b600052604160045260246000fd5b60006020828403121561244357600080fd5b8151610cb4816121ec565b8183823760009101908152919050565b858152602081018590526001600160a01b03841660408201526080606082018190528101829052818360a0830137600081830160a090810191909152601f909201601f19160101949350505050565b601f821115611b9057600081815260208120601f850160051c810160208610156124d45750805b601f850160051c820191505b818110156124f3578281556001016124e0565b505050505050565b815167ffffffffffffffff8111156125155761251561241b565b61252981612523845461227a565b846124ad565b602080601f83116001811461255e57600084156125465750858301515b600019600386901b1c1916600185901b1785556124f3565b600085815260208120601f198616915b8281101561258d5788860151825594840194600190910190840161256e565b50858210156125ab5787850151600019600388901b60f8161c191681555b5050505050600190811b01905550565b6000826125d857634e487b7160e01b600052601260045260246000fd5b500490565b8082028115828204841417611775576117756122d7565b81810381811115611775576117756122d7565b80820180821115611775576117756122d7565b805160208083015191908110156122ae5760001960209190910360031b1b16919050565b634e487b7160e01b600052602160045260246000fdfea2646970667358221220d8fab3983a863577b39472f244e42c3e751d0b71428a7c54b6c9748c1667b07364736f6c63430008120033",
  "linkReferences": {},
  "deployedLinkReferences": {}
}