{
  "_format": "hh-sol-artifact-1",
  "contractName": "WESale",
  "sourceName": "contracts/WESale.sol",
  "abi": [
    {
      "inputs": [
        {
          "internalType": "string",
          "name": "_name",
          "type": "string"
        },
        {
          "internalType": "string",
          "name": "_version",
          "type": "string"
        },
        {
          "internalType": "address",
          "name": "_owner",
          "type": "address"
        },
        {
          "internalType": "address",
          "name": "_teamWallet",
          "type": "address"
        },
        {
          "internalType": "address",
          "name": "_presaleToken",
          "type": "address"
        },
        {
          "internalType": "address",
          "name": "_investToken",
          "type": "address"
        },
        {
          "internalType": "uint256",
          "name": "_deposit",
          "type": "uint256"
        },
        {
          "components": [
            {
              "internalType": "uint256",
              "name": "price",
              "type": "uint256"
            },
            {
              "internalType": "uint24",
              "name": "liquidityRate",
              "type": "uint24"
            },
            {
              "internalType": "uint256",
              "name": "minInvest",
              "type": "uint256"
            },
            {
              "internalType": "uint256",
              "name": "maxInvest",
              "type": "uint256"
            },
            {
              "internalType": "uint256",
              "name": "softCap",
              "type": "uint256"
            },
            {
              "internalType": "uint256",
              "name": "hardCap",
              "type": "uint256"
            },
            {
              "internalType": "address",
              "name": "router",
              "type": "address"
            },
            {
              "internalType": "uint256",
              "name": "dexInitPrice",
              "type": "uint256"
            },
            {
              "internalType": "uint256",
              "name": "startedAt",
              "type": "uint256"
            },
            {
              "internalType": "uint256",
              "name": "endedAt",
              "type": "uint256"
            },
            {
              "internalType": "uint24",
              "name": "firstRelease",
              "type": "uint24"
            },
            {
              "internalType": "uint24",
              "name": "cycle",
              "type": "uint24"
            },
            {
              "internalType": "uint24",
              "name": "cycleRelease",
              "type": "uint24"
            },
            {
              "internalType": "uint24",
              "name": "investTokenDecimals",
              "type": "uint24"
            }
          ],
          "internalType": "struct Parameters",
          "name": "_parameters",
          "type": "tuple"
        }
      ],
      "stateMutability": "nonpayable",
      "type": "constructor"
    },
    {
      "inputs": [],
      "name": "ClaimInvestError",
      "type": "error"
    },
    {
      "inputs": [],
      "name": "ClaimPresaleError",
      "type": "error"
    },
    {
      "inputs": [],
      "name": "DidNotMeetDivestmentRequirements",
      "type": "error"
    },
    {
      "inputs": [],
      "name": "EditingIsCurrentlyNotAllowed",
      "type": "error"
    },
    {
      "inputs": [],
      "name": "GTMaximumInvestment",
      "type": "error"
    },
    {
      "inputs": [],
      "name": "HasBeenCanceled",
      "type": "error"
    },
    {
      "inputs": [],
      "name": "IllegalOperation",
      "type": "error"
    },
    {
      "inputs": [],
      "name": "InsufficientAllowedInvestAmount",
      "type": "error"
    },
    {
      "inputs": [],
      "name": "InsufficientInvestBalance",
      "type": "error"
    },
    {
      "inputs": [
        {
          "internalType": "string",
          "name": "_origin",
          "type": "string"
        },
        {
          "internalType": "uint256",
          "name": "_num",
          "type": "uint256"
        }
      ],
      "name": "InvalidNumber",
      "type": "error"
    },
    {
      "inputs": [],
      "name": "InvalidShortString",
      "type": "error"
    },
    {
      "inputs": [],
      "name": "InvestmentClosed",
      "type": "error"
    },
    {
      "inputs": [],
      "name": "InvestmentIsNotClosed",
      "type": "error"
    },
    {
      "inputs": [],
      "name": "IsAnAutoListingLaunchPad",
      "type": "error"
    },
    {
      "inputs": [],
      "name": "LTMinimumInvestment",
      "type": "error"
    },
    {
      "inputs": [],
      "name": "Locked",
      "type": "error"
    },
    {
      "inputs": [],
      "name": "NotAnAutoListingLaunchPad",
      "type": "error"
    },
    {
      "inputs": [],
      "name": "PresaleNotCompleted",
      "type": "error"
    },
    {
      "inputs": [],
      "name": "SaleCompleted",
      "type": "error"
    },
    {
      "inputs": [
        {
          "internalType": "string",
          "name": "str",
          "type": "string"
        }
      ],
      "name": "StringTooLong",
      "type": "error"
    },
    {
      "inputs": [],
      "name": "TransferAllowedInvestAmount",
      "type": "error"
    },
    {
      "inputs": [],
      "name": "TransferAllowedPresaleAmount",
      "type": "error"
    },
    {
      "inputs": [],
      "name": "TransferLiquidityFailed",
      "type": "error"
    },
    {
      "inputs": [],
      "name": "TransferLiquiditySignatureVerificationFailed",
      "type": "error"
    },
    {
      "anonymous": false,
      "inputs": [
        {
          "indexed": false,
          "internalType": "uint256",
          "name": "_timestamp",
          "type": "uint256"
        }
      ],
      "name": "Cancel",
      "type": "event"
    },
    {
      "anonymous": false,
      "inputs": [
        {
          "indexed": false,
          "internalType": "address",
          "name": "_sender",
          "type": "address"
        },
        {
          "indexed": false,
          "internalType": "uint256",
          "name": "_amount",
          "type": "uint256"
        },
        {
          "indexed": false,
          "internalType": "uint256",
          "name": "_timestamp",
          "type": "uint256"
        }
      ],
      "name": "CancelFounderReturn",
      "type": "event"
    },
    {
      "anonymous": false,
      "inputs": [
        {
          "indexed": false,
          "internalType": "address",
          "name": "_sender",
          "type": "address"
        },
        {
          "indexed": false,
          "internalType": "uint256",
          "name": "_amount",
          "type": "uint256"
        },
        {
          "indexed": false,
          "internalType": "uint256",
          "name": "_timestamp",
          "type": "uint256"
        }
      ],
      "name": "CancelReturn",
      "type": "event"
    },
    {
      "anonymous": false,
      "inputs": [
        {
          "indexed": false,
          "internalType": "address",
          "name": "_sender",
          "type": "address"
        },
        {
          "indexed": false,
          "internalType": "uint256",
          "name": "_amount",
          "type": "uint256"
        },
        {
          "indexed": false,
          "internalType": "uint256",
          "name": "_timestamp",
          "type": "uint256"
        }
      ],
      "name": "ClaimPresale",
      "type": "event"
    },
    {
      "anonymous": false,
      "inputs": [],
      "name": "EIP712DomainChanged",
      "type": "event"
    },
    {
      "anonymous": false,
      "inputs": [
        {
          "indexed": false,
          "internalType": "address",
          "name": "_sender",
          "type": "address"
        },
        {
          "indexed": false,
          "internalType": "uint256",
          "name": "_amount",
          "type": "uint256"
        },
        {
          "indexed": false,
          "internalType": "uint256",
          "name": "_timestamp",
          "type": "uint256"
        }
      ],
      "name": "FounderDivest",
      "type": "event"
    },
    {
      "anonymous": false,
      "inputs": [
        {
          "indexed": false,
          "internalType": "address",
          "name": "_sender",
          "type": "address"
        },
        {
          "indexed": false,
          "internalType": "uint256",
          "name": "_amount",
          "type": "uint256"
        },
        {
          "indexed": false,
          "internalType": "uint256",
          "name": "_timestamp",
          "type": "uint256"
        }
      ],
      "name": "Invest",
      "type": "event"
    },
    {
      "anonymous": false,
      "inputs": [
        {
          "indexed": true,
          "internalType": "address",
          "name": "previousOwner",
          "type": "address"
        },
        {
          "indexed": true,
          "internalType": "address",
          "name": "newOwner",
          "type": "address"
        }
      ],
      "name": "OwnershipTransferred",
      "type": "event"
    },
    {
      "anonymous": false,
      "inputs": [
        {
          "indexed": false,
          "internalType": "address",
          "name": "_sender",
          "type": "address"
        },
        {
          "indexed": false,
          "internalType": "uint256",
          "name": "_amount",
          "type": "uint256"
        },
        {
          "indexed": false,
          "internalType": "uint256",
          "name": "_timestamp",
          "type": "uint256"
        }
      ],
      "name": "ParticipantDivest",
      "type": "event"
    },
    {
      "anonymous": false,
      "inputs": [
        {
          "indexed": false,
          "internalType": "address",
          "name": "_sender",
          "type": "address"
        },
        {
          "indexed": false,
          "internalType": "address",
          "name": "_router",
          "type": "address"
        },
        {
          "indexed": false,
          "internalType": "uint256",
          "name": "_amountA",
          "type": "uint256"
        },
        {
          "indexed": false,
          "internalType": "uint256",
          "name": "_amountB",
          "type": "uint256"
        },
        {
          "indexed": false,
          "internalType": "uint256",
          "name": "_timestamp",
          "type": "uint256"
        }
      ],
      "name": "TransferLP",
      "type": "event"
    },
    {
      "anonymous": false,
      "inputs": [
        {
          "indexed": false,
          "internalType": "uint256",
          "name": "_timestamp",
          "type": "uint256"
        }
      ],
      "name": "UpdateEndedAt",
      "type": "event"
    },
    {
      "inputs": [],
      "name": "FEE",
      "outputs": [
        {
          "internalType": "uint24",
          "name": "",
          "type": "uint24"
        }
      ],
      "stateMutability": "view",
      "type": "function"
    },
    {
      "inputs": [],
      "name": "URGENT_DIVEST_FEE",
      "outputs": [
        {
          "internalType": "uint24",
          "name": "",
          "type": "uint24"
        }
      ],
      "stateMutability": "view",
      "type": "function"
    },
    {
      "inputs": [],
      "name": "_canUpdate",
      "outputs": [
        {
          "internalType": "bool",
          "name": "",
          "type": "bool"
        }
      ],
      "stateMutability": "view",
      "type": "function"
    },
    {
      "inputs": [],
      "name": "_isCancel",
      "outputs": [
        {
          "internalType": "bool",
          "name": "",
          "type": "bool"
        }
      ],
      "stateMutability": "view",
      "type": "function"
    },
    {
      "inputs": [],
      "name": "_isEnded",
      "outputs": [
        {
          "internalType": "bool",
          "name": "",
          "type": "bool"
        }
      ],
      "stateMutability": "view",
      "type": "function"
    },
    {
      "inputs": [],
      "name": "_isFailed",
      "outputs": [
        {
          "internalType": "bool",
          "name": "",
          "type": "bool"
        }
      ],
      "stateMutability": "view",
      "type": "function"
    },
    {
      "inputs": [],
      "name": "_isLive",
      "outputs": [
        {
          "internalType": "bool",
          "name": "",
          "type": "bool"
        }
      ],
      "stateMutability": "view",
      "type": "function"
    },
    {
      "inputs": [],
      "name": "_isNative",
      "outputs": [
        {
          "internalType": "bool",
          "name": "",
          "type": "bool"
        }
      ],
      "stateMutability": "view",
      "type": "function"
    },
    {
      "inputs": [],
      "name": "_isStarted",
      "outputs": [
        {
          "internalType": "bool",
          "name": "",
          "type": "bool"
        }
      ],
      "stateMutability": "view",
      "type": "function"
    },
    {
      "inputs": [],
      "name": "cancel",
      "outputs": [],
      "stateMutability": "nonpayable",
      "type": "function"
    },
    {
      "inputs": [],
      "name": "claimInvest",
      "outputs": [],
      "stateMutability": "nonpayable",
      "type": "function"
    },
    {
      "inputs": [],
      "name": "claimPresale",
      "outputs": [],
      "stateMutability": "nonpayable",
      "type": "function"
    },
    {
      "inputs": [],
      "name": "divest",
      "outputs": [],
      "stateMutability": "nonpayable",
      "type": "function"
    },
    {
      "inputs": [],
      "name": "eip712Domain",
      "outputs": [
        {
          "internalType": "bytes1",
          "name": "fields",
          "type": "bytes1"
        },
        {
          "internalType": "string",
          "name": "name",
          "type": "string"
        },
        {
          "internalType": "string",
          "name": "version",
          "type": "string"
        },
        {
          "internalType": "uint256",
          "name": "chainId",
          "type": "uint256"
        },
        {
          "internalType": "address",
          "name": "verifyingContract",
          "type": "address"
        },
        {
          "internalType": "bytes32",
          "name": "salt",
          "type": "bytes32"
        },
        {
          "internalType": "uint256[]",
          "name": "extensions",
          "type": "uint256[]"
        }
      ],
      "stateMutability": "view",
      "type": "function"
    },
    {
      "inputs": [],
      "name": "factory",
      "outputs": [
        {
          "internalType": "address",
          "name": "",
          "type": "address"
        }
      ],
      "stateMutability": "view",
      "type": "function"
    },
    {
      "inputs": [],
      "name": "founderDivest",
      "outputs": [],
      "stateMutability": "nonpayable",
      "type": "function"
    },
    {
      "inputs": [
        {
          "internalType": "uint256",
          "name": "presaleAmount",
          "type": "uint256"
        },
        {
          "internalType": "uint256",
          "name": "investAmount",
          "type": "uint256"
        }
      ],
      "name": "getAmount",
      "outputs": [
        {
          "internalType": "uint256",
          "name": "_presaleAmount",
          "type": "uint256"
        },
        {
          "internalType": "uint256",
          "name": "_investAmount",
          "type": "uint256"
        }
      ],
      "stateMutability": "view",
      "type": "function"
    },
    {
      "inputs": [],
      "name": "getCanClaimTotal",
      "outputs": [
        {
          "internalType": "uint256",
          "name": "",
          "type": "uint256"
        },
        {
          "internalType": "uint256",
          "name": "",
          "type": "uint256"
        }
      ],
      "stateMutability": "view",
      "type": "function"
    },
    {
      "inputs": [],
      "name": "getClaimedTotal",
      "outputs": [
        {
          "internalType": "uint256",
          "name": "",
          "type": "uint256"
        }
      ],
      "stateMutability": "view",
      "type": "function"
    },
    {
      "inputs": [
        {
          "internalType": "address",
          "name": "_router",
          "type": "address"
        },
        {
          "internalType": "uint256",
          "name": "_amountA",
          "type": "uint256"
        },
        {
          "internalType": "bytes",
          "name": "_data",
          "type": "bytes"
        }
      ],
      "name": "getHash",
      "outputs": [
        {
          "internalType": "bytes32",
          "name": "",
          "type": "bytes32"
        }
      ],
      "stateMutability": "view",
      "type": "function"
    },
    {
      "inputs": [
        {
          "internalType": "address",
          "name": "investor",
          "type": "address"
        }
      ],
      "name": "getInvestOf",
      "outputs": [
        {
          "internalType": "uint256",
          "name": "",
          "type": "uint256"
        }
      ],
      "stateMutability": "view",
      "type": "function"
    },
    {
      "inputs": [],
      "name": "getTotalReleased",
      "outputs": [
        {
          "internalType": "uint256",
          "name": "",
          "type": "uint256"
        }
      ],
      "stateMutability": "view",
      "type": "function"
    },
    {
      "inputs": [],
      "name": "getTransferLiquidityInvestAmount",
      "outputs": [
        {
          "internalType": "uint256",
          "name": "_investTransferLPAmount",
          "type": "uint256"
        },
        {
          "internalType": "uint256",
          "name": "_investTransferTeamAmount",
          "type": "uint256"
        },
        {
          "internalType": "uint256",
          "name": "_fee",
          "type": "uint256"
        }
      ],
      "stateMutability": "view",
      "type": "function"
    },
    {
      "inputs": [
        {
          "internalType": "uint256",
          "name": "investAmount",
          "type": "uint256"
        }
      ],
      "name": "invest",
      "outputs": [],
      "stateMutability": "payable",
      "type": "function"
    },
    {
      "inputs": [],
      "name": "investToken",
      "outputs": [
        {
          "internalType": "address",
          "name": "",
          "type": "address"
        }
      ],
      "stateMutability": "view",
      "type": "function"
    },
    {
      "inputs": [],
      "name": "owner",
      "outputs": [
        {
          "internalType": "address",
          "name": "",
          "type": "address"
        }
      ],
      "stateMutability": "view",
      "type": "function"
    },
    {
      "inputs": [],
      "name": "parameters",
      "outputs": [
        {
          "internalType": "uint256",
          "name": "price",
          "type": "uint256"
        },
        {
          "internalType": "uint24",
          "name": "liquidityRate",
          "type": "uint24"
        },
        {
          "internalType": "uint256",
          "name": "minInvest",
          "type": "uint256"
        },
        {
          "internalType": "uint256",
          "name": "maxInvest",
          "type": "uint256"
        },
        {
          "internalType": "uint256",
          "name": "softCap",
          "type": "uint256"
        },
        {
          "internalType": "uint256",
          "name": "hardCap",
          "type": "uint256"
        },
        {
          "internalType": "address",
          "name": "router",
          "type": "address"
        },
        {
          "internalType": "uint256",
          "name": "dexInitPrice",
          "type": "uint256"
        },
        {
          "internalType": "uint256",
          "name": "startedAt",
          "type": "uint256"
        },
        {
          "internalType": "uint256",
          "name": "endedAt",
          "type": "uint256"
        },
        {
          "internalType": "uint24",
          "name": "firstRelease",
          "type": "uint24"
        },
        {
          "internalType": "uint24",
          "name": "cycle",
          "type": "uint24"
        },
        {
          "internalType": "uint24",
          "name": "cycleRelease",
          "type": "uint24"
        },
        {
          "internalType": "uint24",
          "name": "investTokenDecimals",
          "type": "uint24"
        }
      ],
      "stateMutability": "view",
      "type": "function"
    },
    {
      "inputs": [],
      "name": "presaleToken",
      "outputs": [
        {
          "internalType": "address",
          "name": "",
          "type": "address"
        }
      ],
      "stateMutability": "view",
      "type": "function"
    },
    {
      "inputs": [],
      "name": "renounceOwnership",
      "outputs": [],
      "stateMutability": "nonpayable",
      "type": "function"
    },
    {
      "inputs": [],
      "name": "teamWallet",
      "outputs": [
        {
          "internalType": "address",
          "name": "",
          "type": "address"
        }
      ],
      "stateMutability": "view",
      "type": "function"
    },
    {
      "inputs": [],
      "name": "test",
      "outputs": [],
      "stateMutability": "nonpayable",
      "type": "function"
    },
    {
      "inputs": [],
      "name": "totalInvest",
      "outputs": [
        {
          "internalType": "uint256",
          "name": "",
          "type": "uint256"
        }
      ],
      "stateMutability": "view",
      "type": "function"
    },
    {
      "inputs": [],
      "name": "totalPresale",
      "outputs": [
        {
          "internalType": "uint256",
          "name": "",
          "type": "uint256"
        }
      ],
      "stateMutability": "view",
      "type": "function"
    },
    {
      "inputs": [
        {
          "internalType": "uint256",
          "name": "_amountA",
          "type": "uint256"
        },
        {
          "internalType": "bytes",
          "name": "_data",
          "type": "bytes"
        },
        {
          "internalType": "bytes",
          "name": "_signature",
          "type": "bytes"
        }
      ],
      "name": "transferLiquidity",
      "outputs": [],
      "stateMutability": "nonpayable",
      "type": "function"
    },
    {
      "inputs": [
        {
          "internalType": "address",
          "name": "newOwner",
          "type": "address"
        }
      ],
      "name": "transferOwnership",
      "outputs": [],
      "stateMutability": "nonpayable",
      "type": "function"
    },
    {
      "inputs": [],
      "name": "unlockedAt",
      "outputs": [
        {
          "internalType": "uint256",
          "name": "",
          "type": "uint256"
        }
      ],
      "stateMutability": "view",
      "type": "function"
    },
    {
      "inputs": [
        {
          "internalType": "uint256",
          "name": "_endedAt",
          "type": "uint256"
        }
      ],
      "name": "updateEndedAt",
      "outputs": [],
      "stateMutability": "nonpayable",
      "type": "function"
    }
  ],
  "bytecode": "0x6101e06040526006805461ffff191661010017905560006014553480156200002657600080fd5b506040516200354b3803806200354b83398101604081905262000049916200046e565b8787620000563362000255565b62000071600183620002a560201b62001acb1790919060201c565b610120526200008e816002620002a5602090811b62001acb17901c565b61014052815160208084019190912060e052815190820120610100524660a0526200011c60e05161010051604080517f8b73c3c69bb8fe3d512ecc4cf759cc79239f7b179b0ffacaa9a75d522b39400f60208201529081019290925260608201524660808201523060a082015260009060c00160405160208183030381529060405280519060200120905090565b60805250503060c052620001308662000255565b336001600160a01b039081166101609081529581166101c0529384166101809081529284166101a0908152600592909255805160075560208101516008805462ffffff92831662ffffff1990911617905560408201516009556060820151600a556080820151600b5560a0820151600c5560c0820151600d8054919096166001600160a01b03199091161790945560e0810151600e55610100810151600f556101208101516010556101408101516011805496830151948301519290930151851669010000000000000000000262ffffff60481b199286166601000000000000029290921665ffffffffffff60301b1994861663010000000265ffffffffffff19909716919095161794909417919091169190911791909117905550620007da915050565b600080546001600160a01b038381166001600160a01b0319831681178455604051919092169283917f8be0079c531659141344cd1fd0a4f28419497f9722a3daafe3b4186f6b6457e09190a35050565b6000602083511015620002c557620002bd83620002f5565b9050620002ef565b82620002dc836200034160201b62001afe1760201c565b90620002e99082620006b4565b5060ff90505b92915050565b600080829050601f815111156200032c578260405163305a27a960e01b815260040162000323919062000780565b60405180910390fd5b80516200033982620007b5565b179392505050565b90565b634e487b7160e01b600052604160045260246000fd5b6040516101c081016001600160401b038111828210171562000380576200038062000344565b60405290565b60005b83811015620003a357818101518382015260200162000389565b50506000910152565b600082601f830112620003be57600080fd5b81516001600160401b0380821115620003db57620003db62000344565b604051601f8301601f19908116603f0116810190828211818310171562000406576200040662000344565b816040528381528660208588010111156200042057600080fd5b6200043384602083016020890162000386565b9695505050505050565b80516001600160a01b03811681146200045557600080fd5b919050565b805162ffffff811681146200045557600080fd5b600080600080600080600080888a036102a08112156200048d57600080fd5b89516001600160401b0380821115620004a557600080fd5b620004b38d838e01620003ac565b9a5060208c0151915080821115620004ca57600080fd5b50620004d98c828d01620003ac565b985050620004ea60408b016200043d565b9650620004fa60608b016200043d565b95506200050a60808b016200043d565b94506200051a60a08b016200043d565b935060c08a015192506101c060df19820112156200053757600080fd5b50620005426200035a565b60e08a01518152620005586101008b016200045a565b60208201526101208a01516040820152610140808b01516060830152610160808c01516080840152610180808d015160a08501526101a06200059c818f016200043d565b60c08601526101c08e015160e08601526101e08e01516101008601526102008e0151610120860152620005d36102208f016200045a565b84860152620005e66102408f016200045a565b83860152620005f96102608f016200045a565b828601526200060c6102808f016200045a565b8186015250505050809150509295985092959890939650565b600181811c908216806200063a57607f821691505b6020821081036200065b57634e487b7160e01b600052602260045260246000fd5b50919050565b601f821115620006af57600081815260208120601f850160051c810160208610156200068a5750805b601f850160051c820191505b81811015620006ab5782815560010162000696565b5050505b505050565b81516001600160401b03811115620006d057620006d062000344565b620006e881620006e1845462000625565b8462000661565b602080601f831160018114620007205760008415620007075750858301515b600019600386901b1c1916600185901b178555620006ab565b600085815260208120601f198616915b82811015620007515788860151825594840194600190910190840162000730565b5085821015620007705787850151600019600388901b60f8161c191681555b5050505050600190811b01905550565b6020815260008251806020840152620007a181604085016020870162000386565b601f01601f19169190910160400192915050565b805160208083015191908110156200065b5760001960209190910360031b1b16919050565b60805160a05160c05160e05161010051610120516101405161016051610180516101a0516101c051612c96620008b5600039600081816103ea015281816115090152611a9701526000818161062701528181610afb01528181610e5201528181611211015261210a0152600081816103160152818161123301528181611b270152611e5a015260008181610670015281816110c7015281816119c10152611cd701526000610eb701526000610e8c01526000612349015260006123210152600061227c015260006122a6015260006122d00152612c966000f3fe6080604052600436106102195760003560e01c80638903573011610123578063d27ee421116100ab578063eb6715b81161006f578063eb6715b814610722578063eb8addc214610744578063f2fde38b14610759578063f8a8fd6d14610779578063fc2612c91461078f57600080fd5b8063d27ee421146106a8578063d4075440146106bd578063d4974fe9146106d5578063e2314541146106ed578063ea8a1af01461070d57600080fd5b8063a1b356d4116100f2578063a1b356d4146105f5578063badf822b14610615578063c3015b5214610649578063c45a01551461065e578063c57981b51461069257600080fd5b8063890357301461049f5780638cb1e9c1146105a15780638da5cb5b146105b75780639ac2abe2146105d557600080fd5b80634b14c0ef116101a6578063616b40e311610175578063616b40e3146104215780636bd3d40614610437578063715018a61461044d5780637c07a7101461046257806384b0196e1461047757600080fd5b80634b14c0ef1461038e5780634ca98997146103a357806359927044146103d85780635eaa17291461040c57600080fd5b80631654879e116101ed5780631654879e146102b757806316fbe6b4146102d457806324ffea1a146103045780632afcf48014610350578063367e4caf1461036357600080fd5b806240c7661461021e5780630390c55e14610247578063046ef9a51461028b578063058aace1146102a2575b600080fd5b34801561022a57600080fd5b50600f544210155b60405190151581526020015b60405180910390f35b34801561025357600080fd5b5061027d610262366004612627565b6001600160a01b031660009081526012602052604090205490565b60405190815260200161023e565b34801561029757600080fd5b506102a06107a4565b005b3480156102ae57600080fd5b506102a0610876565b3480156102c357600080fd5b50600654610100900460ff16610232565b3480156102e057600080fd5b506102e96108f7565b6040805193845260208401929092529082015260600161023e565b34801561031057600080fd5b506103387f000000000000000000000000000000000000000000000000000000000000000081565b6040516001600160a01b03909116815260200161023e565b6102a061035e366004612644565b610971565b34801561036f57600080fd5b5061037a620186a081565b60405162ffffff909116815260200161023e565b34801561039a57600080fd5b5061027d610cb9565b3480156103af57600080fd5b506103c36103be36600461265d565b610d7e565b6040805192835260208301919091520161023e565b3480156103e457600080fd5b506103387f000000000000000000000000000000000000000000000000000000000000000081565b34801561041857600080fd5b506102a0610df7565b34801561042d57600080fd5b5061027d60045481565b34801561044357600080fd5b5061027d60055481565b34801561045957600080fd5b506102a0610e3c565b34801561046e57600080fd5b50610232610e50565b34801561048357600080fd5b5061048c610e7e565b60405161023e97969594939291906126c5565b3480156104ab57600080fd5b50600754600854600954600a54600b54600c54600d54600e54600f546010546011546105129a9962ffffff90811699989796956001600160a01b031694939291808216916301000000820481169166010000000000008104821691600160481b909104168e565b60405161023e9e9d9c9b9a999897969594939291909d8e5262ffffff9c8d1660208f015260408e019b909b5260608d019990995260808c019790975260a08b01959095526001600160a01b039390931660c08a015260e0890191909152610100880152610120870152841661014086015283166101608501528216610180840152166101a08201526101c00190565b3480156105ad57600080fd5b5061027d60035481565b3480156105c357600080fd5b506000546001600160a01b0316610338565b3480156105e157600080fd5b506102a06105f0366004612644565b610f07565b34801561060157600080fd5b506102a061061036600461279d565b610f9a565b34801561062157600080fd5b506103387f000000000000000000000000000000000000000000000000000000000000000081565b34801561065557600080fd5b506102326115e9565b34801561066a57600080fd5b506103387f000000000000000000000000000000000000000000000000000000000000000081565b34801561069e57600080fd5b5061037a61753081565b3480156106b457600080fd5b506103c361160b565b3480156106c957600080fd5b5060065460ff16610232565b3480156106e157600080fd5b50601054421015610232565b3480156106f957600080fd5b5061027d610708366004612817565b6116cb565b34801561071957600080fd5b506102a061172d565b34801561072e57600080fd5b503360009081526013602052604090205461027d565b34801561075057600080fd5b50610232611830565b34801561076557600080fd5b506102a0610774366004612627565b61184e565b34801561078557600080fd5b506102a042600355565b34801561079b57600080fd5b506102a06118c7565b6014546001036107c7576040516303cb96db60e21b815260040160405180910390fd5b60016014556107d46115e9565b806107df5750600354155b156107fd5760405163cebeeca360e01b815260040160405180910390fd5b60008061080861160b565b9092509050811561086d57336000818152601360205260409020829055610830905b83611b01565b7f3b9ed2e2036d893039f3fc012eb65deeed17b8ff45cc2f5ba416296910c94e15335b834260405161086493929190612873565b60405180910390a15b50506000601455565b601454600103610899576040516303cb96db60e21b815260040160405180910390fd5b60016014556108a66115e9565b806108b3575060065460ff165b156108c5576108c0611bbf565b6108f0565b6010544210156108d7576108c0611c57565b604051638b160bd360e01b815260040160405180910390fd5b6000601455565b6000806000610925620f424061091f61753062ffffff16600454611db490919063ffffffff16565b90611dc0565b9050600061093e82600454611dcc90919063ffffffff16565b60085490915061095d90620f42409061091f90849062ffffff16611db4565b93506109698185611dcc565b925050909192565b601454600103610994576040516303cb96db60e21b815260040160405180910390fd5b600160145560065460ff16156109bd57604051630306ad4760e31b815260040160405180910390fd5b600454600c54036109e15760405163319420eb60e01b815260040160405180910390fd5b600954811015610a04576040516351594acf60e11b815260040160405180910390fd5b6000610a2f82601283335b6001600160a01b0316815260208101919091526040016000205490611dd8565b600a54909150811115610a55576040516304334aa360e51b815260040160405180910390fd5b600454610a63908390611dd8565b600c541015610aa95760408051632c4a292d60e21b81526004810191909152600360448201526241494160e81b6064820152602481018390526084015b60405180910390fd5b610ab1610e50565b15610af957348214610af45760408051632c4a292d60e21b8152600481019190915260036044820152624e494160e81b6064820152346024820152608401610aa0565b610c64565b7f000000000000000000000000000000000000000000000000000000000000000030836001600160a01b03831663dd62ed3e336040516001600160e01b031960e084901b1681526001600160a01b0391821660048201529085166024820152604401602060405180830381865afa158015610b78573d6000803e3d6000fd5b505050506040513d601f19601f82011682018060405250810190610b9c9190612894565b1015610bbb5760405163259dbadf60e01b815260040160405180910390fd5b6001600160a01b0382166323b872dd336040516001600160e01b031960e084901b1681526001600160a01b0391821660048201529084166024820152604481018790526064016020604051808303816000875af1158015610c20573d6000803e3d6000fd5b505050506040513d601f19601f82011682018060405250810190610c4491906128ad565b610c6157604051634daee0a960e11b815260040160405180910390fd5b50505b610c72826012600033610a0f565b33600090815260126020526040902055600454610c8f9083611dd8565b6004557f4ae4bd7655e0d350876a23cd90c4227b13db560e34435c6a488150a9c844bf5f33610853565b600060035460001480610ccd575060035442105b15610cd85750600090565b600080610cf060035442611dcc90919063ffffffff16565b6011549091506301000000900462ffffff16811115610d2657601154610d239082906301000000900462ffffff16611dc0565b91505b60115462ffffff168215610d6057601154610d5d908290610d579086906601000000000000900462ffffff16611db4565b90611dd8565b90505b620f4240811115610d7757620f4240935050505090565b9392505050565b6000808315610dbb57600754601154610db4919061091f90610dad90600160481b900462ffffff16600a6129c9565b8790611db4565b9250610dea565b601154610de790610dd990600160481b900462ffffff16600a6129c9565b60075461091f908690611db4565b93505b50829050815b9250929050565b601454600103610e1a576040516303cb96db60e21b815260040160405180910390fd5b6001601455610e27611de4565b610e2f6115e9565b156108d7576108c0611e3e565b610e44611de4565b610e4e6000611f29565b565b7f00000000000000000000000000000000000000000000000000000000000000006001600160a01b03161590565b600060608082808083610eb27f00000000000000000000000000000000000000000000000000000000000000006001611f79565b610edd7f00000000000000000000000000000000000000000000000000000000000000006002611f79565b60408051600080825260208201909252600f60f81b9b939a50919850469750309650945092509050565b610f0f611de4565b60105442101580610f285750600654610100900460ff16155b80610f35575060065460ff165b15610f5357604051637d26363b60e01b815260040160405180910390fd5b60108190556006805461ff00191690556040518181527f7e9c09c1a583628741a9d9e67311f00c993bab376d57ce1e655cd77064407424906020015b60405180910390a150565b601454600103610fbd576040516303cb96db60e21b815260040160405180910390fd5b6001601455610fca611de4565b60065460ff1615610fee57604051630306ad4760e31b815260040160405180910390fd5b600d546001600160a01b0316611017576040516314a6598960e21b815260040160405180910390fd5b60035415611038576040516372d2dd0b60e01b815260040160405180910390fd5b601054421080611058575060105442101580156110585750600b54600454105b156110765760405163cebeeca360e01b815260040160405180910390fd5b60085460055460009161109791620f42409161091f919062ffffff16611db4565b9050858110806110a5575085155b156110c357604051631d5d2c9960e01b815260040160405180910390fd5b60007f0000000000000000000000000000000000000000000000000000000000000000905061116c816001600160a01b031663b1d00df06040518163ffffffff1660e01b8152600401602060405180830381865afa158015611129573d6000803e3d6000fd5b505050506040513d601f19601f8201168201806040525081019061114d91906129f0565b600d54611165906001600160a01b03168a8a8a6116cb565b868661201d565b1561118a5760405163247d106d60e11b815260040160405180910390fd5b60008060006111976108f7565b9250925092506000846001600160a01b031663017e7e586040518163ffffffff1660e01b8152600401602060405180830381865afa1580156111dd573d6000803e3d6000fd5b505050506040513d601f19601f8201168201806040525081019061120191906129f0565b6011549091508b9085908c908c907f0000000000000000000000000000000000000000000000000000000000000000907f0000000000000000000000000000000000000000000000000000000000000000906000906112809061127190600160481b900462ffffff16600a6129c9565b60075460045461091f91611db4565b905060006112a38261129d8a600554611dcc90919063ffffffff16565b90611dcc565b6005839055600d5460405163095ea7b360e01b81526001600160a01b039182166004820152602481018b90529192506000919085169063095ea7b3906044016020604051808303816000875af1158015611301573d6000803e3d6000fd5b505050506040513d601f19601f8201168201806040525081019061132591906128ad565b905080611345576040516306a92fdf60e01b815260040160405180910390fd5b61134d610e50565b156113de57600d546040516001600160a01b03909116908990611373908a908a90612a0d565b60006040518083038185875af1925050503d80600081146113b0576040519150601f19603f3d011682016040523d82523d6000602084013e6113b5565b606091505b505080915050806113d957604051631bfe902f60e11b815260040160405180910390fd5b6114fa565b600d5460405163095ea7b360e01b81526001600160a01b039182166004820152602481018a90529086169063095ea7b3906044016020604051808303816000875af1158015611431573d6000803e3d6000fd5b505050506040513d601f19601f8201168201806040525081019061145591906128ad565b905080611475576040516385dda44d60e01b815260040160405180910390fd5b600d546040516001600160a01b03909116906114949089908990612a0d565b6000604051808303816000865af19150503d80600081146114d1576040519150601f19603f3d011682016040523d82523d6000602084013e6114d6565b606091505b505080915050806114fa57604051631bfe902f60e11b815260040160405180910390fd5b6115048a8c61207c565b61152e7f00000000000000000000000000000000000000000000000000000000000000008d61207c565b6115373361082a565b426003557f3b9ed2e2036d893039f3fc012eb65deeed17b8ff45cc2f5ba416296910c94e1533834260405161156e93929190612873565b60405180910390a1600d54604080513381526001600160a01b0390921660208301528181018b9052606082018a9052426080830152517f3579f62927f77888f0d41c632d9a2eff1914dc37b693733d1d7a70f92111ef989181900360a00190a150506000601455505050505050505050505050505050505050565b60006115f760105442101590565b80156116065750600b54600454105b905090565b33600090815260126020526040812054819080820361163d57604051634daee0a960e11b815260040160405180910390fd5b6000611647610cb9565b90508060000361166a5760405163cebeeca360e01b815260040160405180910390fd5b6000611698620f424061091f60045461091f8761169288600554611db490919063ffffffff16565b90611db4565b9050600081156116c057336000908152601360205260409020546116bc8382611dcc565b9150505b909590945092505050565b60006117247f08523daf28ee17754671f39f9958942c4717267760901eea3e6ffd35005a72ea85878686604051602001611709959493929190612a1d565b604051602081830303815290604052805190602001206121a1565b95945050505050565b601454600103611750576040516303cb96db60e21b815260040160405180910390fd5b600160145560035415611776576040516372d2dd0b60e01b815260040160405180910390fd5b60065460ff161561179a57604051630306ad4760e31b815260040160405180910390fd5b6006805460ff191660011790556117b96117b13390565b600554611b01565b6040514281527f8bf30e7ff26833413be5f69e1d373744864d600b664204b4a2f9844a8eedb9ed9060200160405180910390a17f46693e9d69e83400f28431bb5f4c82dbd15601770cb1e4ed7f0d805db9c5de78336005544260405161182193929190612873565b60405180910390a16000601455565b600061183e600f5442101590565b8015611606575050601054421090565b611856611de4565b6001600160a01b0381166118bb5760405162461bcd60e51b815260206004820152602660248201527f4f776e61626c653a206e6577206f776e657220697320746865207a65726f206160448201526564647265737360d01b6064820152608401610aa0565b6118c481611f29565b50565b6014546001036118ea576040516303cb96db60e21b815260040160405180910390fd5b60016014556118f7611de4565b60065460ff161561191b57604051630306ad4760e31b815260040160405180910390fd5b600d546001600160a01b031615611945576040516327189df160e21b815260040160405180910390fd5b61194d6115e9565b1561196b57604051632901819f60e01b815260040160405180910390fd5b60105442108061197e5750600b54600454105b1561199c5760405163562523c960e11b815260040160405180910390fd5b600354156119bd576040516372d2dd0b60e01b815260040160405180910390fd5b60007f000000000000000000000000000000000000000000000000000000000000000090506000816001600160a01b031663017e7e586040518163ffffffff1660e01b8152600401602060405180830381865afa158015611a22573d6000803e3d6000fd5b505050506040513d601f19601f82011682018060405250810190611a4691906129f0565b90506000611a6d620f424061091f61753062ffffff16600454611db490919063ffffffff16565b90506000611a8682600454611dcc90919063ffffffff16565b9050611a92838361207c565b611abc7f00000000000000000000000000000000000000000000000000000000000000008261207c565b50504260035550506000601455565b6000602083511015611ae757611ae0836121ce565b9050611af8565b81611af28482612af4565b5060ff90505b92915050565b90565b60405163a9059cbb60e01b81526001600160a01b038381166004830152602482018390527f00000000000000000000000000000000000000000000000000000000000000009160009183169063a9059cbb906044016020604051808303816000875af1158015611b75573d6000803e3d6000fd5b505050506040513d601f19601f82011682018060405250810190611b9991906128ad565b905080611bb957604051633b0ef58f60e21b815260040160405180910390fd5b50505050565b3360009081526012602052604081205490819003611bf057604051634daee0a960e11b815260040160405180910390fd5b33600081815260126020526040812055611c0a908261207c565b60065460ff166118c457600454611c219082611dcc565b6004557fa173b89e07e2dbd444e1ed177984a84d46231b8dda39ca48c731d081b853057c338242604051610f8f93929190612873565b3360009081526012602052604081205490819003611c8857604051634daee0a960e11b815260040160405180910390fd5b6000611c9e620f424061091f84620186a0611db4565b336000908152601260205260408120819055909150611cbd8383611dcc565b600454909150611ccd9084611dcc565b60048190555060007f000000000000000000000000000000000000000000000000000000000000000090506000816001600160a01b031663017e7e586040518163ffffffff1660e01b8152600401602060405180830381865afa158015611d38573d6000803e3d6000fd5b505050506040513d601f19601f82011682018060405250810190611d5c91906129f0565b9050611d68818561207c565b611d72338461207c565b7fa173b89e07e2dbd444e1ed177984a84d46231b8dda39ca48c731d081b853057c338442604051611da593929190612873565b60405180910390a15050505050565b6000610d778284612bb4565b6000610d778284612bcb565b6000610d778284612bed565b6000610d778284612c00565b6000546001600160a01b03163314610e4e5760405162461bcd60e51b815260206004820181905260248201527f4f776e61626c653a2063616c6c6572206973206e6f7420746865206f776e65726044820152606401610aa0565b600060058190556040516370a0823160e01b81523060048201527f000000000000000000000000000000000000000000000000000000000000000091906001600160a01b038316906370a0823190602401602060405180830381865afa158015611eac573d6000803e3d6000fd5b505050506040513d601f19601f82011682018060405250810190611ed09190612894565b905080600003611ede575050565b611ee83382611b01565b7f6e009f616e8c14332574b9402c3b56141f9648e275161c6b65823921e6bc8a323360055442604051611f1d93929190612873565b60405180910390a15050565b600080546001600160a01b038381166001600160a01b0319831681178455604051919092169283917f8be0079c531659141344cd1fd0a4f28419497f9722a3daafe3b4186f6b6457e09190a35050565b606060ff8314611f8c57611ae08361220c565b818054611f9890612a6c565b80601f0160208091040260200160405190810160405280929190818152602001828054611fc490612a6c565b80156120115780601f10611fe657610100808354040283529160200191612011565b820191906000526020600020905b815481529060010190602001808311611ff457829003601f168201915b50505050509050611af8565b6000846001600160a01b03166120698585858080601f01602080910402602001604051908101604052809392919081815260200183838082843760009201919091525061224b92505050565b6001600160a01b03161495945050505050565b6000612086610e50565b156120e4576040516001600160a01b038416908390600081818185875af1925050503d80600081146120d4576040519150601f19603f3d011682016040523d82523d6000602084013e6120d9565b606091505b50508091505061217e565b60405163a9059cbb60e01b81526001600160a01b038481166004830152602482018490527f0000000000000000000000000000000000000000000000000000000000000000919082169063a9059cbb906044016020604051808303816000875af1158015612156573d6000803e3d6000fd5b505050506040513d601f19601f8201168201806040525081019061217a91906128ad565b9150505b8061219c57604051632901819f60e01b815260040160405180910390fd5b505050565b6000611af86121ae61226f565b8360405161190160f01b8152600281019290925260228201526042902090565b600080829050601f815111156121f9578260405163305a27a960e01b8152600401610aa09190612c13565b805161220482612c26565b179392505050565b606060006122198361239a565b604080516020808252818301909252919250600091906020820181803683375050509182525060208101929092525090565b600080600061225a85856123c2565b9150915061226781612404565b509392505050565b6000306001600160a01b037f0000000000000000000000000000000000000000000000000000000000000000161480156122c857507f000000000000000000000000000000000000000000000000000000000000000046145b156122f257507f000000000000000000000000000000000000000000000000000000000000000090565b611606604080517f8b73c3c69bb8fe3d512ecc4cf759cc79239f7b179b0ffacaa9a75d522b39400f60208201527f0000000000000000000000000000000000000000000000000000000000000000918101919091527f000000000000000000000000000000000000000000000000000000000000000060608201524660808201523060a082015260009060c00160405160208183030381529060405280519060200120905090565b600060ff8216601f811115611af857604051632cd44ac360e21b815260040160405180910390fd5b60008082516041036123f85760208301516040840151606085015160001a6123ec8782858561254e565b94509450505050610df0565b50600090506002610df0565b600081600481111561241857612418612c4a565b036124205750565b600181600481111561243457612434612c4a565b036124815760405162461bcd60e51b815260206004820152601860248201527f45434453413a20696e76616c6964207369676e617475726500000000000000006044820152606401610aa0565b600281600481111561249557612495612c4a565b036124e25760405162461bcd60e51b815260206004820152601f60248201527f45434453413a20696e76616c6964207369676e6174757265206c656e677468006044820152606401610aa0565b60038160048111156124f6576124f6612c4a565b036118c45760405162461bcd60e51b815260206004820152602260248201527f45434453413a20696e76616c6964207369676e6174757265202773272076616c604482015261756560f01b6064820152608401610aa0565b6000807f7fffffffffffffffffffffffffffffff5d576e7357a4501ddfe92f46681b20a08311156125855750600090506003612609565b6040805160008082526020820180845289905260ff881692820192909252606081018690526080810185905260019060a0016020604051602081039080840390855afa1580156125d9573d6000803e3d6000fd5b5050604051601f1901519150506001600160a01b03811661260257600060019250925050612609565b9150600090505b94509492505050565b6001600160a01b03811681146118c457600080fd5b60006020828403121561263957600080fd5b8135610d7781612612565b60006020828403121561265657600080fd5b5035919050565b6000806040838503121561267057600080fd5b50508035926020909101359150565b6000815180845260005b818110156126a557602081850181015186830182015201612689565b506000602082860101526020601f19601f83011685010191505092915050565b60ff60f81b881681526000602060e0818401526126e560e084018a61267f565b83810360408501526126f7818a61267f565b606085018990526001600160a01b038816608086015260a0850187905284810360c0860152855180825283870192509083019060005b818110156127495783518352928401929184019160010161272d565b50909c9b505050505050505050505050565b60008083601f84011261276d57600080fd5b50813567ffffffffffffffff81111561278557600080fd5b602083019150836020828501011115610df057600080fd5b6000806000806000606086880312156127b557600080fd5b85359450602086013567ffffffffffffffff808211156127d457600080fd5b6127e089838a0161275b565b909650945060408801359150808211156127f957600080fd5b506128068882890161275b565b969995985093965092949392505050565b6000806000806060858703121561282d57600080fd5b843561283881612612565b935060208501359250604085013567ffffffffffffffff81111561285b57600080fd5b6128678782880161275b565b95989497509550505050565b6001600160a01b039390931683526020830191909152604082015260600190565b6000602082840312156128a657600080fd5b5051919050565b6000602082840312156128bf57600080fd5b81518015158114610d7757600080fd5b634e487b7160e01b600052601160045260246000fd5b600181815b80851115612920578160001904821115612906576129066128cf565b8085161561291357918102915b93841c93908002906128ea565b509250929050565b60008261293757506001611af8565b8161294457506000611af8565b816001811461295a576002811461296457612980565b6001915050611af8565b60ff841115612975576129756128cf565b50506001821b611af8565b5060208310610133831016604e8410600b84101617156129a3575081810a611af8565b6129ad83836128e5565b80600019048211156129c1576129c16128cf565b029392505050565b6000610d7762ffffff841683612928565b634e487b7160e01b600052604160045260246000fd5b600060208284031215612a0257600080fd5b8151610d7781612612565b8183823760009101908152919050565b858152602081018590526001600160a01b03841660408201526080606082018190528101829052818360a0830137600081830160a090810191909152601f909201601f19160101949350505050565b600181811c90821680612a8057607f821691505b602082108103612aa057634e487b7160e01b600052602260045260246000fd5b50919050565b601f82111561219c57600081815260208120601f850160051c81016020861015612acd5750805b601f850160051c820191505b81811015612aec57828155600101612ad9565b505050505050565b815167ffffffffffffffff811115612b0e57612b0e6129da565b612b2281612b1c8454612a6c565b84612aa6565b602080601f831160018114612b575760008415612b3f5750858301515b600019600386901b1c1916600185901b178555612aec565b600085815260208120601f198616915b82811015612b8657888601518255948401946001909101908401612b67565b5085821015612ba45787850151600019600388901b60f8161c191681555b5050505050600190811b01905550565b8082028115828204841417611af857611af86128cf565b600082612be857634e487b7160e01b600052601260045260246000fd5b500490565b81810381811115611af857611af86128cf565b80820180821115611af857611af86128cf565b602081526000610d77602083018461267f565b80516020808301519190811015612aa05760001960209190910360031b1b16919050565b634e487b7160e01b600052602160045260246000fdfea26469706673582212207dacebcba1c6ec6f835277e0bf90cb3970b00bcdc5b279598eb2d785436d204e64736f6c63430008120033",
  "linkReferences": {},
  "deployedLinkReferences": {}
}