{
  "_format": "hh-sol-artifact-1",
  "contractName": "WESale",
  "sourceName": "contracts/WESale.sol",
  "abi": [
    {
      "inputs": [
        {
          "internalType": "string",
          "name": "_name",
          "type": "string"
        },
        {
          "internalType": "string",
          "name": "_version",
          "type": "string"
        },
        {
          "internalType": "address",
          "name": "_owner",
          "type": "address"
        },
        {
          "internalType": "address",
          "name": "_teamWallet",
          "type": "address"
        },
        {
          "internalType": "address",
          "name": "_presaleToken",
          "type": "address"
        },
        {
          "internalType": "address",
          "name": "_investToken",
          "type": "address"
        },
        {
          "internalType": "uint256",
          "name": "_deposit",
          "type": "uint256"
        }
      ],
      "stateMutability": "nonpayable",
      "type": "constructor"
    },
    {
      "inputs": [],
      "name": "ClaimInvestError",
      "type": "error"
    },
    {
      "inputs": [],
      "name": "ClaimPresaleError",
      "type": "error"
    },
    {
      "inputs": [],
      "name": "DidNotMeetDivestmentRequirements",
      "type": "error"
    },
    {
      "inputs": [],
      "name": "IllegalOperation",
      "type": "error"
    },
    {
      "inputs": [],
      "name": "InsufficientAllowedInvestAmount",
      "type": "error"
    },
    {
      "inputs": [],
      "name": "InsufficientInvestBalance",
      "type": "error"
    },
    {
      "inputs": [
        {
          "internalType": "string",
          "name": "_origin",
          "type": "string"
        },
        {
          "internalType": "uint256",
          "name": "_num",
          "type": "uint256"
        }
      ],
      "name": "InvalidNumber",
      "type": "error"
    },
    {
      "inputs": [],
      "name": "InvalidShortString",
      "type": "error"
    },
    {
      "inputs": [],
      "name": "InvestmentIsNotClosed",
      "type": "error"
    },
    {
      "inputs": [],
      "name": "IsAnAutoListingLaunchPad",
      "type": "error"
    },
    {
      "inputs": [],
      "name": "Locked",
      "type": "error"
    },
    {
      "inputs": [],
      "name": "NotAnAutoListingLaunchPad",
      "type": "error"
    },
    {
      "inputs": [],
      "name": "PresaleNotCompleted",
      "type": "error"
    },
    {
      "inputs": [
        {
          "internalType": "string",
          "name": "str",
          "type": "string"
        }
      ],
      "name": "StringTooLong",
      "type": "error"
    },
    {
      "inputs": [],
      "name": "TransferAllowedInvestAmount",
      "type": "error"
    },
    {
      "inputs": [],
      "name": "TransferAllowedPresaleAmount",
      "type": "error"
    },
    {
      "inputs": [],
      "name": "TransferLiquidityFailed",
      "type": "error"
    },
    {
      "inputs": [],
      "name": "TransferLiquiditySignatureVerificationFailed",
      "type": "error"
    },
    {
      "anonymous": false,
      "inputs": [],
      "name": "EIP712DomainChanged",
      "type": "event"
    },
    {
      "anonymous": false,
      "inputs": [
        {
          "indexed": true,
          "internalType": "address",
          "name": "previousOwner",
          "type": "address"
        },
        {
          "indexed": true,
          "internalType": "address",
          "name": "newOwner",
          "type": "address"
        }
      ],
      "name": "OwnershipTransferred",
      "type": "event"
    },
    {
      "inputs": [],
      "name": "FEE",
      "outputs": [
        {
          "internalType": "uint24",
          "name": "",
          "type": "uint24"
        }
      ],
      "stateMutability": "view",
      "type": "function"
    },
    {
      "inputs": [],
      "name": "_isEnded",
      "outputs": [
        {
          "internalType": "bool",
          "name": "",
          "type": "bool"
        }
      ],
      "stateMutability": "view",
      "type": "function"
    },
    {
      "inputs": [],
      "name": "_isFailed",
      "outputs": [
        {
          "internalType": "bool",
          "name": "",
          "type": "bool"
        }
      ],
      "stateMutability": "view",
      "type": "function"
    },
    {
      "inputs": [],
      "name": "_isLive",
      "outputs": [
        {
          "internalType": "bool",
          "name": "",
          "type": "bool"
        }
      ],
      "stateMutability": "view",
      "type": "function"
    },
    {
      "inputs": [],
      "name": "_isNative",
      "outputs": [
        {
          "internalType": "bool",
          "name": "",
          "type": "bool"
        }
      ],
      "stateMutability": "view",
      "type": "function"
    },
    {
      "inputs": [],
      "name": "_isStarted",
      "outputs": [
        {
          "internalType": "bool",
          "name": "",
          "type": "bool"
        }
      ],
      "stateMutability": "view",
      "type": "function"
    },
    {
      "inputs": [],
      "name": "claimPresale",
      "outputs": [],
      "stateMutability": "nonpayable",
      "type": "function"
    },
    {
      "inputs": [],
      "name": "cliamInvest",
      "outputs": [],
      "stateMutability": "nonpayable",
      "type": "function"
    },
    {
      "inputs": [],
      "name": "divest",
      "outputs": [],
      "stateMutability": "nonpayable",
      "type": "function"
    },
    {
      "inputs": [],
      "name": "eip712Domain",
      "outputs": [
        {
          "internalType": "bytes1",
          "name": "fields",
          "type": "bytes1"
        },
        {
          "internalType": "string",
          "name": "name",
          "type": "string"
        },
        {
          "internalType": "string",
          "name": "version",
          "type": "string"
        },
        {
          "internalType": "uint256",
          "name": "chainId",
          "type": "uint256"
        },
        {
          "internalType": "address",
          "name": "verifyingContract",
          "type": "address"
        },
        {
          "internalType": "bytes32",
          "name": "salt",
          "type": "bytes32"
        },
        {
          "internalType": "uint256[]",
          "name": "extensions",
          "type": "uint256[]"
        }
      ],
      "stateMutability": "view",
      "type": "function"
    },
    {
      "inputs": [],
      "name": "factory",
      "outputs": [
        {
          "internalType": "address",
          "name": "",
          "type": "address"
        }
      ],
      "stateMutability": "view",
      "type": "function"
    },
    {
      "inputs": [],
      "name": "founderDivest",
      "outputs": [],
      "stateMutability": "nonpayable",
      "type": "function"
    },
    {
      "inputs": [
        {
          "internalType": "uint256",
          "name": "presaleAmount",
          "type": "uint256"
        },
        {
          "internalType": "uint256",
          "name": "investAmount",
          "type": "uint256"
        }
      ],
      "name": "getAmount",
      "outputs": [
        {
          "internalType": "uint256",
          "name": "_presaleAmount",
          "type": "uint256"
        },
        {
          "internalType": "uint256",
          "name": "_investAmount",
          "type": "uint256"
        }
      ],
      "stateMutability": "view",
      "type": "function"
    },
    {
      "inputs": [
        {
          "internalType": "address",
          "name": "_router",
          "type": "address"
        },
        {
          "internalType": "uint256",
          "name": "_amountA",
          "type": "uint256"
        },
        {
          "internalType": "bytes",
          "name": "_data",
          "type": "bytes"
        }
      ],
      "name": "getHash",
      "outputs": [
        {
          "internalType": "bytes32",
          "name": "",
          "type": "bytes32"
        }
      ],
      "stateMutability": "view",
      "type": "function"
    },
    {
      "inputs": [],
      "name": "getTotalReleased",
      "outputs": [
        {
          "internalType": "uint256",
          "name": "",
          "type": "uint256"
        }
      ],
      "stateMutability": "view",
      "type": "function"
    },
    {
      "inputs": [],
      "name": "getTransferLiquidityInvestAmount",
      "outputs": [
        {
          "internalType": "uint256",
          "name": "_investTransferLPAmount",
          "type": "uint256"
        },
        {
          "internalType": "uint256",
          "name": "_investTransferTeamAmount",
          "type": "uint256"
        },
        {
          "internalType": "uint256",
          "name": "_fee",
          "type": "uint256"
        }
      ],
      "stateMutability": "view",
      "type": "function"
    },
    {
      "inputs": [
        {
          "internalType": "uint256",
          "name": "presaleAmount",
          "type": "uint256"
        }
      ],
      "name": "invest",
      "outputs": [],
      "stateMutability": "payable",
      "type": "function"
    },
    {
      "inputs": [],
      "name": "investToken",
      "outputs": [
        {
          "internalType": "address",
          "name": "",
          "type": "address"
        }
      ],
      "stateMutability": "view",
      "type": "function"
    },
    {
      "inputs": [],
      "name": "name",
      "outputs": [
        {
          "internalType": "string",
          "name": "",
          "type": "string"
        }
      ],
      "stateMutability": "view",
      "type": "function"
    },
    {
      "inputs": [],
      "name": "owner",
      "outputs": [
        {
          "internalType": "address",
          "name": "",
          "type": "address"
        }
      ],
      "stateMutability": "view",
      "type": "function"
    },
    {
      "inputs": [],
      "name": "parameters",
      "outputs": [
        {
          "internalType": "uint256",
          "name": "price",
          "type": "uint256"
        },
        {
          "internalType": "uint256",
          "name": "liquidityRate",
          "type": "uint256"
        },
        {
          "internalType": "uint256",
          "name": "minInvest",
          "type": "uint256"
        },
        {
          "internalType": "uint256",
          "name": "maxInvest",
          "type": "uint256"
        },
        {
          "internalType": "uint256",
          "name": "softCap",
          "type": "uint256"
        },
        {
          "internalType": "uint256",
          "name": "hardCap",
          "type": "uint256"
        },
        {
          "internalType": "address",
          "name": "router",
          "type": "address"
        },
        {
          "internalType": "uint256",
          "name": "dexInitPrice",
          "type": "uint256"
        },
        {
          "internalType": "uint256",
          "name": "startedAt",
          "type": "uint256"
        },
        {
          "internalType": "uint256",
          "name": "endedAt",
          "type": "uint256"
        },
        {
          "internalType": "uint256",
          "name": "firstRelease",
          "type": "uint256"
        },
        {
          "internalType": "uint256",
          "name": "cycle",
          "type": "uint256"
        },
        {
          "internalType": "uint256",
          "name": "cycleRelease",
          "type": "uint256"
        }
      ],
      "stateMutability": "view",
      "type": "function"
    },
    {
      "inputs": [],
      "name": "presaleToken",
      "outputs": [
        {
          "internalType": "address",
          "name": "",
          "type": "address"
        }
      ],
      "stateMutability": "view",
      "type": "function"
    },
    {
      "inputs": [],
      "name": "renounceOwnership",
      "outputs": [],
      "stateMutability": "nonpayable",
      "type": "function"
    },
    {
      "inputs": [],
      "name": "teamWallet",
      "outputs": [
        {
          "internalType": "address",
          "name": "",
          "type": "address"
        }
      ],
      "stateMutability": "view",
      "type": "function"
    },
    {
      "inputs": [],
      "name": "totalInvest",
      "outputs": [
        {
          "internalType": "uint256",
          "name": "",
          "type": "uint256"
        }
      ],
      "stateMutability": "view",
      "type": "function"
    },
    {
      "inputs": [],
      "name": "totalPresale",
      "outputs": [
        {
          "internalType": "uint256",
          "name": "",
          "type": "uint256"
        }
      ],
      "stateMutability": "view",
      "type": "function"
    },
    {
      "inputs": [
        {
          "internalType": "uint256",
          "name": "_amountA",
          "type": "uint256"
        },
        {
          "internalType": "bytes",
          "name": "_data",
          "type": "bytes"
        },
        {
          "internalType": "bytes",
          "name": "_signature",
          "type": "bytes"
        }
      ],
      "name": "transferLiquidity",
      "outputs": [],
      "stateMutability": "nonpayable",
      "type": "function"
    },
    {
      "inputs": [
        {
          "internalType": "address",
          "name": "newOwner",
          "type": "address"
        }
      ],
      "name": "transferOwnership",
      "outputs": [],
      "stateMutability": "nonpayable",
      "type": "function"
    },
    {
      "inputs": [],
      "name": "unlockedAt",
      "outputs": [
        {
          "internalType": "uint256",
          "name": "",
          "type": "uint256"
        }
      ],
      "stateMutability": "view",
      "type": "function"
    },
    {
      "inputs": [],
      "name": "version",
      "outputs": [
        {
          "internalType": "string",
          "name": "",
          "type": "string"
        }
      ],
      "stateMutability": "view",
      "type": "function"
    }
  ],
  "bytecode": "0x6101e060405260016017553480156200001757600080fd5b5060405162002aea38038062002aea8339810160408190526200003a9162000454565b868662000047336200027b565b62000062600183620002cb60201b6200152a1790919060201c565b610120526200007f816002620002cb602090811b6200152a17901c565b61014052815160208084019190912060e052815190820120610100524660a0526200010d60e05161010051604080517f8b73c3c69bb8fe3d512ecc4cf759cc79239f7b179b0ffacaa9a75d522b39400f60208201529081019290925260608201524660808201523060a082015260009060c00160405160208183030381529060405280519060200120905090565b60808181525050306001600160a01b031660c0816001600160a01b0316815250505050620001a5604051806101a0016040528060008152602001600081526020016000815260200160008152602001600081526020016000815260200160006001600160a01b031681526020016000815260200160008152602001600081526020016000815260200160008152602001600081525090565b620001b0866200027b565b6003620001be8982620005a1565b506003620001cd8882620005a1565b50336101609081526001600160a01b039586166101c0529385166101809081529285166101a052600791909155805160085560208101516009556040810151600a556060810151600b556080810151600c5560a0810151600d5560c0810151600e80546001600160a01b031916919095161790935560e0830151600f5561010083015160105561012083015160115561014083015160125590820151601355015160145550620006c7915050565b600080546001600160a01b038381166001600160a01b0319831681178455604051919092169283917f8be0079c531659141344cd1fd0a4f28419497f9722a3daafe3b4186f6b6457e09190a35050565b6000602083511015620002eb57620002e3836200031b565b905062000315565b8262000302836200036760201b6200155d1760201c565b906200030f9082620005a1565b5060ff90505b92915050565b600080829050601f8151111562000352578260405163305a27a960e01b81526004016200034991906200066d565b60405180910390fd5b80516200035f82620006a2565b179392505050565b90565b634e487b7160e01b600052604160045260246000fd5b60005b838110156200039d57818101518382015260200162000383565b50506000910152565b600082601f830112620003b857600080fd5b81516001600160401b0380821115620003d557620003d56200036a565b604051601f8301601f19908116603f011681019082821181831017156200040057620004006200036a565b816040528381528660208588010111156200041a57600080fd5b6200042d84602083016020890162000380565b9695505050505050565b80516001600160a01b03811681146200044f57600080fd5b919050565b600080600080600080600060e0888a0312156200047057600080fd5b87516001600160401b03808211156200048857600080fd5b620004968b838c01620003a6565b985060208a0151915080821115620004ad57600080fd5b50620004bc8a828b01620003a6565b965050620004cd6040890162000437565b9450620004dd6060890162000437565b9350620004ed6080890162000437565b9250620004fd60a0890162000437565b915060c0880151905092959891949750929550565b600181811c908216806200052757607f821691505b6020821081036200054857634e487b7160e01b600052602260045260246000fd5b50919050565b601f8211156200059c57600081815260208120601f850160051c81016020861015620005775750805b601f850160051c820191505b81811015620005985782815560010162000583565b5050505b505050565b81516001600160401b03811115620005bd57620005bd6200036a565b620005d581620005ce845462000512565b846200054e565b602080601f8311600181146200060d5760008415620005f45750858301515b600019600386901b1c1916600185901b17855562000598565b600085815260208120601f198616915b828110156200063e578886015182559484019460019091019084016200061d565b50858210156200065d5787850151600019600388901b60f8161c191681555b5050505050600190811b01905550565b60208152600082518060208401526200068e81604085016020870162000380565b601f01601f19169190910160400192915050565b80516020808301519190811015620005485760001960209190910360031b1b16919050565b60805160a05160c05160e05161010051610120516101405161016051610180516101a0516101c05161235662000794600039600081816103560152818161121c015261150501526000818161052b0152818161098f01528181610c8601528181610fa401526118e001526000818161028a01528181610fc601526115aa01526000818161057401528181610e26015261142f01526000610ceb01526000610cc001526000611b1f01526000611af701526000611a5201526000611a7c01526000611aa601526123566000f3fe6080604052600436106101cc5760003560e01c80637c07a710116100f7578063c3015b5211610095578063e231454111610064578063e2314541146105d8578063eb8addc2146105f8578063f2fde38b1461060d578063f538c5191461062d57600080fd5b8063c3015b521461054d578063c45a015514610562578063c57981b514610596578063d4974fe9146105c057600080fd5b80638cb1e9c1116100d15780638cb1e9c1146104c55780638da5cb5b146104db578063a1b356d4146104f9578063badf822b1461051957600080fd5b80637c07a710146103ce57806384b0196e146103e3578063890357301461040b57600080fd5b80634b14c0ef1161016f5780635eaa17291161013e5780635eaa172914610378578063616b40e31461038d5780636bd3d406146103a3578063715018a6146103b957600080fd5b80634b14c0ef146102d75780634ca98997146102fa57806354fd4d501461032f578063599270441461034457600080fd5b806306fdde03116101ab57806306fdde031461022657806316fbe6b41461024857806324ffea1a146102785780632afcf480146102c457600080fd5b806240c766146101d1578063046ef9a5146101fa578063058aace114610211575b600080fd5b3480156101dd57600080fd5b506010544210155b60405190151581526020015b60405180910390f35b34801561020657600080fd5b5061020f610642565b005b34801561021d57600080fd5b5061020f61072d565b34801561023257600080fd5b5061023b6107a8565b6040516101f19190611e2e565b34801561025457600080fd5b5061025d610836565b604080519384526020840192909252908201526060016101f1565b34801561028457600080fd5b506102ac7f000000000000000000000000000000000000000000000000000000000000000081565b6040516001600160a01b0390911681526020016101f1565b61020f6102d2366004611e41565b6108ac565b3480156102e357600080fd5b506102ec610b3d565b6040519081526020016101f1565b34801561030657600080fd5b5061031a610315366004611e5a565b610bc9565b604080519283526020830191909152016101f1565b34801561033b57600080fd5b5061023b610c05565b34801561035057600080fd5b506102ac7f000000000000000000000000000000000000000000000000000000000000000081565b34801561038457600080fd5b5061020f610c12565b34801561039957600080fd5b506102ec60065481565b3480156103af57600080fd5b506102ec60075481565b3480156103c557600080fd5b5061020f610c70565b3480156103da57600080fd5b506101e5610c84565b3480156103ef57600080fd5b506103f8610cb2565b6040516101f19796959493929190611e7c565b34801561041757600080fd5b50600854600954600a54600b54600c54600d54600e54600f5460105460115460125460135460145461045b9c9b9a999897966001600160a01b03169594939291908d565b604080519d8e5260208e019c909c529a8c019990995260608b019790975260808a019590955260a08901939093526001600160a01b0390911660c088015260e08701526101008601526101208501526101408401526101608301526101808201526101a0016101f1565b3480156104d157600080fd5b506102ec60055481565b3480156104e757600080fd5b506000546001600160a01b03166102ac565b34801561050557600080fd5b5061020f610514366004611f54565b610d3b565b34801561052557600080fd5b506102ac7f000000000000000000000000000000000000000000000000000000000000000081565b34801561055957600080fd5b506101e561125e565b34801561056e57600080fd5b506102ac7f000000000000000000000000000000000000000000000000000000000000000081565b3480156105a257600080fd5b506105ac61753081565b60405162ffffff90911681526020016101f1565b3480156105cc57600080fd5b506011544211156101e5565b3480156105e457600080fd5b506102ec6105f3366004611fe3565b611280565b34801561060457600080fd5b506101e56112e2565b34801561061957600080fd5b5061020f61062836600461203f565b611300565b34801561063957600080fd5b5061020f611379565b601754600103610665576040516303cb96db60e21b815260040160405180910390fd5b60006017819055338152601560205260408120549081900361069a57604051634daee0a960e11b815260040160405180910390fd5b60006106a4610b3d565b905060006106bd6006548461156090919063ffffffff16565b905060006106d8620f42406106d2858561156c565b90611560565b905080156107225733600090815260166020526040812054906106fb8383611578565b9050801561071f5733600081815260166020526040902084905561071f9082611584565b50505b505060016017555050565b601754600103610750576040516303cb96db60e21b815260040160405180910390fd5b6000601755600c5460065410806107765750601154421180156107765750600d54600654105b1561078857610783611642565b6107a1565b604051638b160bd360e01b815260040160405180910390fd5b6001601755565b600380546107b59061205c565b80601f01602080910402602001604051908101604052809291908181526020018280546107e19061205c565b801561082e5780601f106108035761010080835404028352916020019161082e565b820191906000526020600020905b81548152906001019060200180831161081157829003601f168201915b505050505081565b600080600061085e620f42406106d261753062ffffff1660065461156c90919063ffffffff16565b905060006108778260065461157890919063ffffffff16565b9050610898620f42406106d26008600101548461156c90919063ffffffff16565b93506108a48185611578565b925050909192565b6017546001036108cf576040516303cb96db60e21b815260040160405180910390fd5b600060178190556108e08282610bc9565b915050600654600d546000916108f6919061156c565b90508281101561093d5760408051632c4a292d60e21b81526004810191909152600360448201526241494160e81b6064820152602481018390526084015b60405180910390fd5b610945610c84565b1561098d573482146109885760408051632c4a292d60e21b8152600481019190915260036044820152624e494160e81b6064820152346024820152608401610934565b610af9565b7f000000000000000000000000000000000000000000000000000000000000000030836001600160a01b03831663dd62ed3e336040516001600160e01b031960e084901b1681526001600160a01b0391821660048201529085166024820152604401602060405180830381865afa158015610a0c573d6000803e3d6000fd5b505050506040513d601f19601f82011682018060405250810190610a309190612096565b1015610a4f5760405163259dbadf60e01b815260040160405180910390fd5b6001600160a01b0382166323b872dd336040516001600160e01b031960e084901b1681526001600160a01b0391821660048201529084166024820152604481018790526064016020604051808303816000875af1158015610ab4573d6000803e3d6000fd5b505050506040513d601f19601f82011682018060405250810190610ad891906120af565b15610af657604051634daee0a960e11b815260040160405180910390fd5b50505b33600090815260156020526040902054610b13908361168d565b33600090815260156020526040902055600654610b30908361168d565b6006555050600160175550565b6000600554421015610b4f5750600090565b600080610b676005544261157890919063ffffffff16565b601354909150811115610b8557601354610b82908290611560565b91505b6012548215610bab57601454610ba8908290610ba290869061156c565b9061168d565b90505b620f4240811115610bc257620f4240935050505090565b9392505050565b6000808315610be757600854610be090859061156c565b9250610bf8565b600854610bf5908490611560565b93505b50829050815b9250929050565b600480546107b59061205c565b601754600103610c35576040516303cb96db60e21b815260040160405180910390fd5b6000601755610c42611699565b610c4a61125e565b15610c6857604051638b160bd360e01b815260040160405180910390fd5b6107a16116f3565b610c78611699565b610c8260006116ff565b565b7f00000000000000000000000000000000000000000000000000000000000000006001600160a01b03161590565b600060608082808083610ce67f0000000000000000000000000000000000000000000000000000000000000000600161174f565b610d117f0000000000000000000000000000000000000000000000000000000000000000600261174f565b60408051600080825260208201909252600f60f81b9b939a50919850469750309650945092509050565b601754600103610d5e576040516303cb96db60e21b815260040160405180910390fd5b6000601755610d6b611699565b600e546001600160a01b0316610d94576040516314a6598960e21b815260040160405180910390fd5b600c546006541080610db55750600d54600654108015610db5575060115442115b15610dd35760405163cebeeca360e01b815260040160405180910390fd5b6000610df6620f42406106d260086001015460075461156c90919063ffffffff16565b905085811080610e04575085155b15610e2257604051631d5d2c9960e01b815260040160405180910390fd5b60007f00000000000000000000000000000000000000000000000000000000000000009050610ecb816001600160a01b031663b1d00df06040518163ffffffff1660e01b8152600401602060405180830381865afa158015610e88573d6000803e3d6000fd5b505050506040513d601f19601f82011682018060405250810190610eac91906120e7565b600e54610ec4906001600160a01b03168a8a8a611280565b86866117f3565b15610ee95760405163247d106d60e11b815260040160405180910390fd5b6000806000610ef6610836565b9250925092506000846001600160a01b031663017e7e586040518163ffffffff1660e01b8152600401602060405180830381865afa158015610f3c573d6000803e3d6000fd5b505050506040513d601f19601f82011682018060405250810190610f6091906120e7565b600754909150610f70908c611578565b600755600e5460405163095ea7b360e01b81526001600160a01b039182166004820152602481018d90528c9186918d918d917f0000000000000000000000000000000000000000000000000000000000000000917f00000000000000000000000000000000000000000000000000000000000000009160009183169063095ea7b3906044016020604051808303816000875af1158015611014573d6000803e3d6000fd5b505050506040513d601f19601f8201168201806040525081019061103891906120af565b905080611058576040516306a92fdf60e01b815260040160405180910390fd5b611060610c84565b156110f157600e546040516001600160a01b039091169087906110869088908890612104565b60006040518083038185875af1925050503d80600081146110c3576040519150601f19603f3d011682016040523d82523d6000602084013e6110c8565b606091505b505080915050806110ec57604051631bfe902f60e11b815260040160405180910390fd5b61120d565b600e5460405163095ea7b360e01b81526001600160a01b039182166004820152602481018890529084169063095ea7b3906044016020604051808303816000875af1158015611144573d6000803e3d6000fd5b505050506040513d601f19601f8201168201806040525081019061116891906120af565b905080611188576040516385dda44d60e01b815260040160405180910390fd5b600e546040516001600160a01b03909116906111a79087908790612104565b6000604051808303816000865af19150503d80600081146111e4576040519150601f19603f3d011682016040523d82523d6000602084013e6111e9565b606091505b5050809150508061120d57604051631bfe902f60e11b815260040160405180910390fd5b611217888a611852565b6112417f00000000000000000000000000000000000000000000000000000000000000008b611852565b505042600555505060016017555050505050505050505050505050565b600061126c60115442111590565b801561127b5750600c54600654105b905090565b60006112d97f08523daf28ee17754671f39f9958942c4717267760901eea3e6ffd35005a72ea858786866040516020016112be959493929190612114565b60405160208183030381529060405280519060200120611977565b95945050505050565b60006112f060105442101590565b801561127b575050601154421190565b611308611699565b6001600160a01b03811661136d5760405162461bcd60e51b815260206004820152602660248201527f4f776e61626c653a206e6577206f776e657220697320746865207a65726f206160448201526564647265737360d01b6064820152608401610934565b611376816116ff565b50565b60175460010361139c576040516303cb96db60e21b815260040160405180910390fd5b60006017556113a9611699565b600e546001600160a01b0316156113d3576040516327189df160e21b815260040160405180910390fd5b6113db61125e565b156113f957604051632901819f60e01b815260040160405180910390fd5b60115442118061140d5750600d5460065414155b1561142b5760405163562523c960e11b815260040160405180910390fd5b60007f000000000000000000000000000000000000000000000000000000000000000090506000816001600160a01b031663017e7e586040518163ffffffff1660e01b8152600401602060405180830381865afa158015611490573d6000803e3d6000fd5b505050506040513d601f19601f820116820180604052508101906114b491906120e7565b905060006114db620f42406106d261753062ffffff1660065461156c90919063ffffffff16565b905060006114f48260065461157890919063ffffffff16565b90506115008383611852565b6107227f000000000000000000000000000000000000000000000000000000000000000082611852565b60006020835110156115465761153f836119a4565b9050611557565b8161155184826121b1565b5060ff90505b92915050565b90565b6000610bc28284612287565b6000610bc282846122a9565b6000610bc282846122c0565b60405163a9059cbb60e01b81526001600160a01b038381166004830152602482018390527f00000000000000000000000000000000000000000000000000000000000000009160009183169063a9059cbb906044016020604051808303816000875af11580156115f8573d6000803e3d6000fd5b505050506040513d601f19601f8201168201806040525081019061161c91906120af565b90508061163c57604051633b0ef58f60e21b815260040160405180910390fd5b50505050565b336000908152601560205260408120549081900361167357604051634daee0a960e11b815260040160405180910390fd5b336000818152601560205260408120556113769082611852565b6000610bc282846122d3565b6000546001600160a01b03163314610c825760405162461bcd60e51b815260206004820181905260248201527f4f776e61626c653a2063616c6c6572206973206e6f7420746865206f776e65726044820152606401610934565b610c8233600754611852565b600080546001600160a01b038381166001600160a01b0319831681178455604051919092169283917f8be0079c531659141344cd1fd0a4f28419497f9722a3daafe3b4186f6b6457e09190a35050565b606060ff83146117625761153f836119e2565b81805461176e9061205c565b80601f016020809104026020016040519081016040528092919081815260200182805461179a9061205c565b80156117e75780601f106117bc576101008083540402835291602001916117e7565b820191906000526020600020905b8154815290600101906020018083116117ca57829003601f168201915b50505050509050611557565b6000846001600160a01b031661183f8585858080601f016020809104026020016040519081016040528093929190818152602001838380828437600092019190915250611a2192505050565b6001600160a01b03161495945050505050565b600061185c610c84565b156118ba576040516001600160a01b038416908390600081818185875af1925050503d80600081146118aa576040519150601f19603f3d011682016040523d82523d6000602084013e6118af565b606091505b505080915050611954565b60405163a9059cbb60e01b81526001600160a01b038481166004830152602482018490527f0000000000000000000000000000000000000000000000000000000000000000919082169063a9059cbb906044016020604051808303816000875af115801561192c573d6000803e3d6000fd5b505050506040513d601f19601f8201168201806040525081019061195091906120af565b9150505b8061197257604051632901819f60e01b815260040160405180910390fd5b505050565b6000611557611984611a45565b8360405161190160f01b8152600281019290925260228201526042902090565b600080829050601f815111156119cf578260405163305a27a960e01b81526004016109349190611e2e565b80516119da826122e6565b179392505050565b606060006119ef83611b70565b604080516020808252818301909252919250600091906020820181803683375050509182525060208101929092525090565b6000806000611a308585611b98565b91509150611a3d81611bda565b509392505050565b6000306001600160a01b037f000000000000000000000000000000000000000000000000000000000000000016148015611a9e57507f000000000000000000000000000000000000000000000000000000000000000046145b15611ac857507f000000000000000000000000000000000000000000000000000000000000000090565b61127b604080517f8b73c3c69bb8fe3d512ecc4cf759cc79239f7b179b0ffacaa9a75d522b39400f60208201527f0000000000000000000000000000000000000000000000000000000000000000918101919091527f000000000000000000000000000000000000000000000000000000000000000060608201524660808201523060a082015260009060c00160405160208183030381529060405280519060200120905090565b600060ff8216601f81111561155757604051632cd44ac360e21b815260040160405180910390fd5b6000808251604103611bce5760208301516040840151606085015160001a611bc287828585611d24565b94509450505050610bfe565b50600090506002610bfe565b6000816004811115611bee57611bee61230a565b03611bf65750565b6001816004811115611c0a57611c0a61230a565b03611c575760405162461bcd60e51b815260206004820152601860248201527f45434453413a20696e76616c6964207369676e617475726500000000000000006044820152606401610934565b6002816004811115611c6b57611c6b61230a565b03611cb85760405162461bcd60e51b815260206004820152601f60248201527f45434453413a20696e76616c6964207369676e6174757265206c656e677468006044820152606401610934565b6003816004811115611ccc57611ccc61230a565b036113765760405162461bcd60e51b815260206004820152602260248201527f45434453413a20696e76616c6964207369676e6174757265202773272076616c604482015261756560f01b6064820152608401610934565b6000807f7fffffffffffffffffffffffffffffff5d576e7357a4501ddfe92f46681b20a0831115611d5b5750600090506003611ddf565b6040805160008082526020820180845289905260ff881692820192909252606081018690526080810185905260019060a0016020604051602081039080840390855afa158015611daf573d6000803e3d6000fd5b5050604051601f1901519150506001600160a01b038116611dd857600060019250925050611ddf565b9150600090505b94509492505050565b6000815180845260005b81811015611e0e57602081850181015186830182015201611df2565b506000602082860101526020601f19601f83011685010191505092915050565b602081526000610bc26020830184611de8565b600060208284031215611e5357600080fd5b5035919050565b60008060408385031215611e6d57600080fd5b50508035926020909101359150565b60ff60f81b881681526000602060e081840152611e9c60e084018a611de8565b8381036040850152611eae818a611de8565b606085018990526001600160a01b038816608086015260a0850187905284810360c0860152855180825283870192509083019060005b81811015611f0057835183529284019291840191600101611ee4565b50909c9b505050505050505050505050565b60008083601f840112611f2457600080fd5b50813567ffffffffffffffff811115611f3c57600080fd5b602083019150836020828501011115610bfe57600080fd5b600080600080600060608688031215611f6c57600080fd5b85359450602086013567ffffffffffffffff80821115611f8b57600080fd5b611f9789838a01611f12565b90965094506040880135915080821115611fb057600080fd5b50611fbd88828901611f12565b969995985093965092949392505050565b6001600160a01b038116811461137657600080fd5b60008060008060608587031215611ff957600080fd5b843561200481611fce565b935060208501359250604085013567ffffffffffffffff81111561202757600080fd5b61203387828801611f12565b95989497509550505050565b60006020828403121561205157600080fd5b8135610bc281611fce565b600181811c9082168061207057607f821691505b60208210810361209057634e487b7160e01b600052602260045260246000fd5b50919050565b6000602082840312156120a857600080fd5b5051919050565b6000602082840312156120c157600080fd5b81518015158114610bc257600080fd5b634e487b7160e01b600052604160045260246000fd5b6000602082840312156120f957600080fd5b8151610bc281611fce565b8183823760009101908152919050565b858152602081018590526001600160a01b03841660408201526080606082018190528101829052818360a0830137600081830160a090810191909152601f909201601f19160101949350505050565b601f82111561197257600081815260208120601f850160051c8101602086101561218a5750805b601f850160051c820191505b818110156121a957828155600101612196565b505050505050565b815167ffffffffffffffff8111156121cb576121cb6120d1565b6121df816121d9845461205c565b84612163565b602080601f83116001811461221457600084156121fc5750858301515b600019600386901b1c1916600185901b1785556121a9565b600085815260208120601f198616915b8281101561224357888601518255948401946001909101908401612224565b50858210156122615787850151600019600388901b60f8161c191681555b5050505050600190811b01905550565b634e487b7160e01b600052601160045260246000fd5b6000826122a457634e487b7160e01b600052601260045260246000fd5b500490565b808202811582820484141761155757611557612271565b8181038181111561155757611557612271565b8082018082111561155757611557612271565b805160208083015191908110156120905760001960209190910360031b1b16919050565b634e487b7160e01b600052602160045260246000fdfea2646970667358221220dd7fa8d31e5581fed435e79f1d2072fedac7b5d34ed82417490032eed607fa6a64736f6c63430008120033",
  "linkReferences": {},
  "deployedLinkReferences": {}
}